:020000040202F6
:10800000000000001D800202DFF80CD000F01AF81A
:10801000004800472D8002028457002002B5EFF38C
:10802000088181F30988054800470000044880471B
:10803000EFF3098181F3088802BD00004580020248
:1080400025900202064C074D06E0E06840F001036F
:1080500094E8070098471034AC42F6D3FFF7D8FFF6
:10806000489C0202589C02022DE9F05F0546002060
:1080700092469B4688460646814640241BE0284699
:1080800041464746224600F04AF853465A46C01A2F
:10809000914110D311461846224600F031F82D1AAE
:1080A00067EB01084F4622460120002100F028F826
:1080B00017EB00094E41201EA4F10104DFDC484605
:1080C00031462A464346BDE8F09F40EA01039B073C
:1080D00003D009E008C9121F08C0042AFAD203E03D
:1080E00011F8013B00F8013B521EF9D270470346DC
:1080F00011F8012B00F8012B002AF9D1184670471E
:10810000202A04DB203A00FA02F100207047914057
:10811000C2F1200320FA03F3194390407047202A4C
:1081200004DB203A21FA02F00021704721FA02F321
:10813000D040C2F120029140084319467047000028
:1081400081B000900099086840F00100086001B01B
:108150007047000081B000900099086840F08000EE
:10816000086001B07047000082B001908DF80310E4
:108170000199086820F4FE4008609DF803200199E9
:10818000086840EA0220086002B0704782B001909F
:108190008DF803100199086820F4FE0008609DF82E
:1081A00003200199086840EA0240086002B0704765
:1081B00082B001908DF803100199086820F0FE400C
:1081C00008609DF803200199086840EA0260086091
:1081D00002B0704781B000900099086840F04000FC
:1081E000086001B07047000081B0009000990868F5
:1081F00040F00800086001B07047000081B00090B6
:108200000099086840F01000086001B07047000055
:1082100082B001908DF803100199086820F00600E3
:1082200008609DF803200199086840EA4200086050
:1082300002B0704782B001908DF803100199086870
:1082400020F4000008609DF803200199086840EAC6
:10825000C250086002B0704781B000900099886AEF
:1082600040F03900886201B07047000081B0009092
:108270000098806A00F0010001B0704781B0009062
:108280000098806AC0F3C00001B0704781B00090D0
:108290000098806AC0F3001001B0704781B0009070
:1082A0000098806AC0F3401001B0704781B0009020
:1082B0000098006A000C01B07047000081B0009087
:1082C0000098006A80B201B07047000082B001904F
:1082D000ADF802100199C86840F6FF729043C8607B
:1082E000BDF802200199C8681043C86002B0704709
:1082F00082B00190ADF802100199086940F6FF7252
:1083000090430861BDF80220019908691043086193
:1083100002B0704782B00190ADF80210019948692F
:1083200040F6FF7290434861BDF802200199486908
:108330001043486102B0704782B00190ADF802105E
:108340000199886940F6FF7290438861BDF8022068
:10835000019988691043886102B0704782B001902A
:10836000ADF802100199C86940F6FF729043C861E8
:10837000BDF802200199C8691043C86102B0704776
:1083800080B586B0DDF820C08DF81300039102920D
:1083900001939DF813007F2812D1FFE7029946F25E
:1083A0004000C4F2000000EB81009DF804209DF81D
:1083B00020304FF0FF3101F08FF80020059024E0CD
:1083C00003989DF8131001F017F800900098B0F191
:1083D000FF3F03DCFFE70098059016E0029946F2A4
:1083E0004000C4F2000000EB810000999DF80420D9
:1083F0009DF8203001F070F89DF813009DF80C10E6
:1084000000F016F800200590FFE7059806B080BD43
:1084100080B582B08DF807009DF807006A461421E8
:108420001160622102220523FFF7AAFF02B080BD7E
:1084300080B584B08DF80B008DF80A109DF80B0004
:108440009DF80A1001F032F901900198B0F1FF3F58
:1084500003DCFFE701980390BAE09DF80B001128B8
:1084600012DCFFE79DF80B2046F20000C4F200008A
:10847000104320F00300019902F00302C2EBC20393
:10848000072201F029F8A0E09DF80B00142810DC69
:10849000FFE701999DF80B206FF0150000EB4200FB
:1084A000C3B246F21000C4F20000022201F014F838
:1084B0008AE09DF80B0015280AD1FFE7019946F2E2
:1084C0001000C4F200000722142301F005F87AE03E
:1084D0009DF80B0016280AD1FFE7019946F2140017
:1084E000C4F200000722002300F0F6FF6AE09DF8C6
:1084F0000B001E2810DCFFE701999DF80B206FF0A0
:10850000260000EB4200C3B246F21400C4F20000A1
:10851000022200F0E1FF54E09DF80B001F280AD171
:10852000FFE7019946F21400C4F200000722172366
:1085300000F0D2FF44E09DF80B0020280AD1FFE7AD
:10854000019946F21400C4F2000002221E2300F03A
:10855000C3FF34E09DF80B0021280AD1FFE7019901
:1085600046F21800C4F200000222002300F0B4FF1B
:1085700024E09DF80B0023280FDCFFE701999DF80C
:108580000B00C0EBC000EC38C3B246F21800C4F2D6
:108590000000072200F0A0FF0FE001999DF80B20DA
:1085A0006FF0370000EB4200C3B246F21800C4F28D
:1085B0000000022200F090FFFFE7FFE7FFE7FFE780
:1085C000FFE7FFE7FFE7FFE7FFE700200390FFE794
:1085D000039804B080BD000080B582B0019001987E
:1085E00000EB400145F22850C2F2000000EBC10050
:1085F000183000F0B9FB02B080BD000080B500F07B
:1086000065FB80BD80B586B0059004910392FFE7BD
:1086100045F22850C2F20000007818B9FFE700F0D8
:1086200055FBFFE7FFE7EFF311804FF0200181F3E7
:108630001188019005980499039A00F007F80290B8
:10864000019880F31188029806B080BD80B58AB089
:1086500009900891079208980490099800EB40014E
:1086600045F22850C2F2000000EBC1001830039020
:1086700003984069029040B1FFE70298012819D0A1
:10868000FFE7029802282CD032E0039800F06CFB40
:10869000059005980799884203D2FFE700200690CD
:1086A00007E00798069003980499079A00F0ECFBFE
:1086B000FFE720E0039800F057FB05900598079925
:1086C000884203D2FFE70598019002E007980190E5
:1086D000FFE70198069003980499069A00F0D4FBEE
:1086E00009E003980499079A00F05EFB069002E007
:1086F00000200690FFE706980AB080BD80B582B0E2
:108700008DF807009DF80700012100F025F802B060
:1087100080BD000080B582B0019000208DF803007C
:10872000FFE79DF80300182813DCFFE701989DF888
:108730000310C840C00728B1FFE79DF80300FFF70A
:10874000DDFFFFE7FFE79DF8030001308DF8030030
:10875000E7E702B080BD000080B586B08DF8170055
:108760008DF816109DF8170001460491182800F2A4
:10877000AB810499DFE811F019002A003B004C009E
:108780005D006E007F009000A100B200CA00E3000F
:10879000F400050116012701380149015A0163015E
:1087A0006C0175017E018F019F019DF816100C2050
:1087B000C4F20000152200F075FE9DF8161014207A
:1087C000C4F20000122200F06DFE7EE19DF816104A
:1087D0000C20C4F20000162200F064FE9DF8161072
:1087E0001420C4F20000122200F05CFE6DE19DF83E
:1087F00016100C20C4F20000022200F053FE9DF877
:1088000016101420C4F20000002200F04BFE5CE1C0
:108810009DF816100C20C4F20000032200F042FE66
:108820009DF816101420C4F20000012200F03AFE58
:108830004BE19DF816100C20C4F20000042200F059
:1088400031FE9DF816101420C4F20000022200F040
:1088500029FE3AE19DF816100C20C4F20000012216
:1088600000F020FE9DF816101420C4F20000112222
:1088700000F018FE29E19DF816100C20C4F200004B
:10888000052200F00FFE9DF816101420C4F200001F
:108890000A2200F007FE18E19DF816100C20C4F221
:1088A0000000082200F0FEFD9DF816101420C4F20E
:1088B0000000092200F0F6FD07E19DF816100C20DB
:1088C000C4F20000092200F0EDFD9DF816105420BE
:1088D000C4F200000C2200F0E5FDF6E09DF8161051
:1088E0000C20C4F200000A2200F0DCFD9DF81610F6
:1088F0001420C4F200000390132200F0D3FD03986B
:108900009DF81610142200F0CDFDDEE09DF8161043
:108910000C20C4F200000B22019200F0C3FD019A6A
:108920009DF816101420C4F20000029000F0BAFD69
:1089300002989DF81610102200F0B4FDC5E09DF8D5
:1089400016100C20C4F200000C2200F0ABFD9DF8C4
:1089500016100820C4F20000002200F0A3FDB4E0CD
:108960009DF816100C20C4F200000D2200F09AFDB4
:108970009DF816101420C4F20000062200F092FDAB
:10898000A3E09DF816100C20C4F200000E2200F0A7
:1089900089FD9DF816101420C4F20000072200F093
:1089A00081FD92E09DF816100C20C4F200000F2209
:1089B00000F078FD9DF816101420C4F200000C227F
:1089C00000F070FD81E09DF816100C20C4F200004C
:1089D000102200F067FD9DF816101420C4F200006C
:1089E000082200F05FFD70E09DF816100C20C4F224
:1089F0000000112200F056FD9DF816101420C4F25C
:108A00000000042200F04EFD5FE09DF816100C20DF
:108A1000C4F20000122200F045FD9DF8161014204B
:108A2000C4F20000052200F03DFD4EE09DF8161056
:108A30000C20C4F20000132200F034FD45E09DF844
:108A400016100C20C4F20000142200F02BFD3CE0B4
:108A50009DF816100C20C4F20000002200F022FD48
:108A600033E09DF816100C20C4F20000062200F03E
:108A700019FD2AE09DF816100C20C4F20000172200
:108A800000F010FD9DF816101420C4F200000E2214
:108A900000F008FD19E09DF816108020C4F20000D7
:108AA0000090052200F0FEFC00989DF816100722A9
:108AB00000F0F8FC09E09DF816100C20C4F200004C
:108AC000192200F0EFFC00E0FFE706B080BD0000D7
:108AD00085B0049003918DF80B200F2001900720A2
:108AE00000900498022803D8FFE70020019079E065
:108AF0000498082803D8FFE70120019071E004984A
:108B0000202803D8FFE70220019069E004983F285D
:108B100003D8FFE70320019061E004987D2803D883
:108B2000FFE70420019059E00498FA2803D8FFE7F2
:108B30000520019051E00498B0F5FA7F03D8FFE7D3
:108B40000620019048E00498B0F57A7F03D8FFE74B
:108B5000072001903FE00498B0F57A6F03D8FFE753
:108B60000820019036E00498B0F57A5F03D8FFE75B
:108B7000092001902DE00498B0F57A4F03D8FFE763
:108B80000A20019024E00498B0F57A3F03D8FFE76B
:108B90000B2001901BE00498B0F57A2F03D8FFE773
:108BA0000C20019012E00498B0F57A1F03D8FFE77B
:108BB0000D20019009E00498B0F57A0F03D8FFE783
:108BC0000E20019000E0FFE7FFE7FFE7FFE7FFE788
:108BD000FFE7FFE7FFE7FFE7FFE7FFE7FFE7FFE765
:108BE000FFE7FFE70398042803D8FFE70020009081
:108BF00030E00398082803D8FFE70120009028E020
:108C00000398102803D8FFE70220009020E0039883
:108C1000202803D8FFE70320009018E003983F289E
:108C200003D8FFE70420009010E003987D2803D8C4
:108C3000FFE70520009008E00398FA2803D8FFE733
:108C40000620009000E0FFE7FFE7FFE7FFE7FFE710
:108C5000FFE7FFE741F21801C4F2000145F6A52045
:108C6000086000980002019940EA01109DF80B206D
:108C70000921002A18BF0D21084441F21001C4F255
:108C80000001086042F21401C4F21001086840F0CB
:108C90008050086005B0704741F21801C4F200012D
:108CA00045F6A520086041F21401C4F200014CF61B
:108CB000FE2008607047000082B001908DF803101C
:108CC0009DF803000199086002B0704780B582B03A
:108CD00045F22850C2F2000001900199012008617C
:108CE00001994861019849F6C631C0F202218161BB
:108CF000019A45F28050C2F20000D061019A4FF40F
:108D0000FA701062019A00209062019A5062019AF2
:108D1000D062019A1163019A45F27051C2F20001CA
:108D20005163019A10219163019908640199C86304
:108D3000019948640198073049F6C231C0F2022116
:108D4000FFF7D5F9BFF35F8F019849F6BB31C0F249
:108D50000221FFF7CCF9BFF35F8F019920208871C2
:108D6000BFF35F8F02B080BD84B0039003980069A9
:108D700002900398C068019002980199884209D82E
:108D8000FFE7039880680199401A02990844013866
:108D9000009005E002990198C04308440090FFE765
:108DA000009804B07047000080B58AB0099008911F
:108DB0000792002005900998C0680390FFE7099882
:108DC0000069049004980399884206D9FFE7049942
:108DD0000398C0430844069008E009988168039806
:108DE000049A801AC04308440690FFE70698099940
:108DF0008968039A891A884203D2FFE7069802908D
:108E000005E0099880680399401A0290FFE70298EC
:108E1000069006980799884203D2FFE706980190CA
:108E200002E007980190FFE70198069009984068D2
:108E3000039908440899069AFFF747F90699059897
:108E400008440590069908980844089006990798E0
:108E5000401A0790069903980844039003980999CB
:108E60008968884203D1FFE700200390FFE7BFF342
:108E70005F8F03980999C860FFE7079800289ED183
:108E8000FFE705980AB080BD80B586B005900491D3
:108E900003920598C0680190059880680199401A6E
:108EA000009000980399884210D9FFE70598406820
:108EB000019908440499039AFFF707F9BFF35F8FFC
:108EC0000198039908440599C8601BE00098029036
:108ED00005984068019908440499029AFFF7F5F84B
:108EE00003980099401A0290059840680499009AE6
:108EF0001144029AFFF7E9F8BFF35F8F02980599D2
:108F0000C860FFE706B080BD86B00590049103926B
:108F10000498C0000399B0FBF1F002900298C009D8
:108F2000019001990298A0EBC110029002980130C3
:108F300040080090019805994862BDF8060018B9EC
:108F4000FFE7019810B9FFE7FFE7FEE701984FF64A
:108F5000FF71884204D1FFE705990020886207E08D
:108F600001990298401A0290009805998862FFE7DB
:108F70000598C06A0599C86206B0704781B0009034
:108F800000988069C0F3401001B0704780B584B08C
:108F900003900291019203990020086303994864A9
:108FA000039988630399486003994862039988622A
:108FB0000399C8620398029AD1681269FFF7A4FF67
:108FC000029890F800C041788378C278802000EA47
:108FD000411040EA4C1040EA031040EAC20001F0A0
:108FE000030140EA41000399C8620298B0F8090001
:108FF000000400BA039948630198039988630299B1
:10900000087991F805C08B79CA79400240EA0C20B2
:10901000184440EAC230097A40EA81300399086373
:1090200004B080BD80B586B049F2B511C0F202210E
:10903000042000220592F5F7C5FD059A49F2951125
:10904000C0F202210520F5F7BDFD059A49F20D2178
:10905000C0F202210720F5F7B5FD059A49F2E53186
:10906000C0F2022102200490F5F7ACFD059A49F206
:109070009941C0F202210320F5F7A4FD059A49F2B7
:109080002921C0F202211046F5F79CFD00F046FAB6
:10909000059B69464B600E20086049F25D70C0F286
:1090A000022049F6B931C0F202218022FBF702FC0E
:1090B00045F27870C2F20000039000F047FB039A7B
:1090C00049F25D21C0F202210820F5F77BFD0498EA
:1090D0000599F5F761FC059806B080BD2DE9F043D0
:1090E00089B008904BF20000C4F2000001684BF216
:1090F0000400C4F2000002684BF20800C4F2000051
:1091000003684BF20C00C4F2000000684BF2100C34
:10911000C4F2000CDCF800E04BF2140CC4F2000CBA
:10912000DCF800404BF2180CC4F2000CDCF80050E4
:109130004BF21C0CC4F2000CDCF800604BF2200C6B
:10914000C4F2000CDCF800704BF2240CC4F2000CEA
:10915000DCF800804BF2280CC4F2000CDCF8009024
:10916000EC46CCF81C90CCF81880CCF81470CCF8F5
:109170001060CCF80C50CCF80840CCF804E0CCF8E7
:10918000000049F66630C0F20220F5F7DDFC09B0B8
:10919000BDE8F08380B582B001900091019801682C
:1091A000426849F62F30C0F20220F5F7CDFCFFE708
:1091B000FEE7000070B588B007900691DDF81CC08E
:1091C000CDF814C0DCF81810DCF81420DCF81C30E2
:1091D000DCF80000DCF804E0DCF80840DCF80C50B7
:1091E000DCF81060EC46CCF81060CCF80C50CCF8F1
:1091F0000840CCF804E0CCF8000049F6B720C0F2F3
:109200000220F5F7A1FCFFE7FEE7000080B582B081
:1092100001900091019949F62330C0F20220F5F740
:1092200093FCFFE7FEE7000080B582B0019000915B
:10923000FFE741F20000C4F20100FFF79FFE0128A2
:1092400001D1FFE7F5E70198017841F20000C4F28F
:109250000100FFF731FD002002B080BD80B586B06F
:10926000059004914EF60450CEF2000000686FF3B2
:109270005F20B0FA80F040098DF80B009DF80B00DC
:1092800028B1FFE7F5F70EFC406B8047FFE70020B1
:10929000FFF7A2F9039005990889498908440399C1
:1092A00088420EDAFFE705980168028900200190E4
:1092B000FFF7A8F90198059A51685289FFF7A2F9BA
:1092C000FFE79DF80B0028B1FFE7F5F7EBFB806B9C
:1092D0008047FFE7002006B080BD000080B588B061
:1092E0000790069103208DF8040000228DF80520D8
:1092F00001208DF806008DF807208DF808008DF804
:1093000009008DF80A008DF80B208DF80C208DF8DF
:109310000D008DF80E00079804900698059041F214
:109320000000C4F2010001A9FFF730FE08B080BDC3
:1093300080B584B003904BF20000C4F20000FEF749
:10934000A5FF38B1FFE749F64430C0F20220F5F737
:10935000FBFBFFE74BF20000C4F20000FEF79EFFAC
:1093600038B1FFE749F65430C0F20220F5F7ECFBC4
:10937000FFE74BF20000C4F20000FEF777FFC0B138
:10938000FFE74BF20000C4F200000090FEF796FFEA
:10939000014600980191FEF789FF019940EA0140DA
:1093A0000290029949F6A830C0F20220F5F7CCFBF2
:1093B000FFE74BF20000C4F20000FEF75FFF08B1C8
:1093C000FFE7FFE74BF20000C4F20000FEF744FFA6
:1093D00049F6AE20C0F20220F5F7B6FB002004B03B
:1093E00080BD000080B582B00190009100F096F839
:1093F000002002B080BD000088B006908DF81710E4
:109400000698C11700EB5170C0100490069800F048
:1094100007018020C8400390002002909DF81700AB
:10942000013801909DF8170049F29072C0F20222B3
:10943000132110FB0120009000980499405C0399CF
:10944000084204D1FFE74FF0FF30079020E0FFE72C
:109450000198002819D4FFE7019849F29072C0F2F0
:109460000222132100FB0120009000980499405C27
:109470000399084204D0FFE7029801300290FFE709
:10948000FFE7019801380190E2E702980790FFE7B3
:10949000079808B07047000082B00190009100204A
:1094A00002B0704783B002908DF807108DF8062047
:1094B0009DF80610012088400090029800680099ED
:1094C00088439DF807109DF80620914008430299B3
:1094D000086003B07047000085B0049003918DF8D8
:1094E0000B208DF80A309DF80B10012088400138C0
:1094F000019001989DF80A108840C043009004989C
:109500000068009908400399019A11409DF80A20CB
:10951000914008430499086005B0704780B588B051
:109520002020FFF7F7F843F20060C0F26E104FF40E
:10953000E131FFF7D3FE4EF6F050CEF200000068A6
:10954000C007D0B9FFE7FFE743F20062C0F26E1236
:109550000792079800EB800040004FF47A71A0FB5F
:10956000010100230593FEF77FFD059A06900699F9
:109570000846FFF7ADFAFFE7FFE700F07FF849F68E
:10958000D030C0F2022000F114010020039000F05E
:1095900029F8039B49F2DD00C0F202206946086009
:1095A00049F6B730C0F202204FF4806101220292E6
:1095B000FBF7ECFB014645F27470C2F2000001605B
:1095C00000680490FBF7F0F90299039B02460498A7
:1095D000EE464FF0FF3CCEF800C0FBF743FC08B06E
:1095E00080BD000080B584B08DF80F0002919DF819
:1095F0000F104BF20000C4F200000190FEF708FECD
:1096000001980021FEF716FE0198FEF7F7FD01987C
:10961000FEF7EAFD0198FEF7DDFD0198FEF79AFDE1
:10962000019802990988FEF751FE0198029949882C
:10963000FEF75EFE019802998988FEF76BFE01989D
:109640000299C988FEF778FE019802990989FEF708
:1096500085FE01980299897AFEF786FD01980299A4
:10966000097BFEF793FD01980299897BFEF7A0FD27
:109670000198FEF765FD04B080BD000080B540F2A2
:109680000040C0F22000FFF745F80B20FEF7C0FEB7
:1096900011201021FEF7CCFE49F23131C0F2022137
:1096A00012200022F5F798FA80BD000085B08DF8F1
:1096B0000F008DF80E109DF80F002A2804DBFFE73D
:1096C0004FF0FF3004903EE09DF80F0049F2907299
:1096D000C0F20222132110FB012002900020019011
:1096E0009DF80E000138009002989DF80E10CA08EF
:1096F000805C01F007028021D140084204D1FFE7DD
:109700004FF0FF3004901EE0FFE70098002817D4C8
:10971000FFE702980099CA1701EB5272D210805CE1
:1097200001F007028021D140084204D0FFE70198F0
:1097300001300190FFE7FFE7009801380090E4E76F
:1097400001980490FFE7049805B0704780B582B097
:109750000190FEF753FF02B080BD000080B582B0DB
:109760000190FFE74FF41050FAF704F8FFF794FA6E
:10977000F8E702E008C8121F08C1002AFAD17047B2
:109780007047002001E001C1121F002AFBD1704781
:10979000FFFFFFFAAAAA48C000020FFFFFFF000068
:1097A0000387E0FFFFFFF5555524A000010FFFFFE1
:1097B000FE800003A7E0FFFFFFFAAAA89090000038
:1097C0008FFFFFFE40000397E0FFFFFFF55556486F
:1097D0008800004FFFFFFE200003C7E0FFFFFFFAF5
:1097E000AAA9268400002FFFFFFE10000387E0FFD8
:1097F000FFFFF55554928200001FFFFFFE08000393
:109800008FE0FFFFFFFAAAAA4A8100020FFFFFFEC6
:1098100004000387E0FFFFFFF55555268080010F08
:10982000FFFFFE020003A7E0FFFFFFFAAAA8928055
:1098300040008FFFFFFE01000397E0FFFFFFF5559B
:10984000564A8020004FFFFFFE008003C7E0FFFF65
:10985000FFFAAAA9268010002FFFFFFE0040038711
:10986000E0FFFFFFF55554918008001FFFFFFE0049
:1098700020038FE0FFFFFFFAAAAA498004000FFF30
:10988000FFFE00100387E0FFFFFFF555552580021E
:10989000000FFFFFFE00080387E0FFFFFFFAAAA802
:1098A000918001000FFFFFFE00040387E0FFFFFF30
:1098B000F55556498000800FFFFFFE00021387E038
:1098C000FFFFFFFAAAA9258000400FFFFFFE00015D
:1098D0000B87E0FFFFFFF55554918000240FFFFF39
:1098E000FE00008787E0C8000000000000000000C4
:1098F000010000000000000000D000000000000097
:10990000000000020000000000000000C400000091
:10991000000000000000008000000000000000FFC8
:10992000FFFFFAAAAA488000100FFFFFFE000043C5
:1099300087E0FFFFFFF55555248000080FFFFFFE6D
:1099400000002387E0C0000000000000400000008D
:109950000000010000000000C00000000000002026
:109960000000000000008000000000C000000000B7
:109970000000100000000000004000000000C200D5
:109980000000000000000000004000000000000097
:1099900000C10000000000000000000020000000E6
:1099A00000000000C0800000000000000000001067
:1099B00000000000000000C00000000000000800DF
:1099C00000000000002000000000C00000000000B7
:1099D00000040000000000001000000000FFFFFF76
:1099E000FAAAA8908200000FFFFFFE08000387E09C
:1099F000C0000000000000010000000000000400A2
:109A0000000000C000000000000000800000000016
:109A1000000200000000FFFFFFF555564B8040009C
:109A20000FFFFFFE01000387E0FFFFFFFAAAA9274F
:109A30008020000FFFFFFE00800387E0C0000000D1
:109A4000000000001000000000000040000000C006
:109A500000000000000000080000000000002000DE
:109A60000000C00000000000000004000000000032
:109A70000010000000C00000000000000002000014
:109A80000000000008000000C0000000000000000E
:109A90000100000000000004000000C00000000001
:109AA0000000000080000000000002000000696E5D
:109AB00074206972200A00484152444641554C5472
:109AC0003A0A5043203A203078253038580A4C5210
:109AD000203A203078253038580A5053523A2030F6
:109AE00078253038580A5230203A203078253038DE
:109AF000580A5231203A203078253038580A5232EC
:109B0000203A203078253038580A5033203A203017
:109B100078253038580A5231323A2030782530389A
:109B2000580A005B4F4F4D5D20402025640A005BC2
:109B3000415353455254494F4E5D20402025733ABE
:109B400025640A00696E742069722073656E642052
:109B50006F6B0A00696E74206972207265706561AE
:109B600074206F6B0A0069725F6374726C203078C6
:109B70002578203078257820307825782C2030788A
:109B80002578203078257820307825782030782581
:109B90007820307825782C2030782578203078256A
:109BA0007820307825780A005265636569766564A7
:109BB0003A307825780A00610077005345474745D9
:109BC0005200525454005465726D696E616C00000D
:109BD0001F0147008F001100000023004700110003
:109BE000A401D200FB0043018B01D301FF0F000051
:109BF00023007F00000000008F0047008F0011004D
:109C00000000230035001100A401D200FB00430135
:109C10008B011F01FF0F000023007F0000000000E8
:109C200039003900000000000000390000001D006C
:109C3000BC01DE001B001D005600900000001A0051
:109C40001C00390000000000589C0202285500202A
:089C50005C0200008297020291
:04000005020280096A
:00000001FF
