:020000040002F8
:10800000000000001D800200DFF80CD000F01AF81C
:10801000004800472D8002003C79002002B5EFF3B4
:10802000088181F30988054800470000044880471B
:10803000EFF3098181F3088802BD0000458002004A
:1080400041850200064C074D06E0E06840F0010360
:1080500094E8070098471034AC42F6D3FFF7D8FFF6
:10806000908A0200A08A020083B002908DF8071067
:108070008DF806209DF80710012088400090029896
:108080000068009988439DF806109DF807209140EC
:1080900008430299086003B07047000080B582B0C1
:1080A0008DF807008DF806109DF80600032819D0FA
:1080B000FFE79DF807109DF80620002A18BF01224F
:1080C0002020C4F20000FFF7CFFF9DF807109DF8B5
:1080D00006000138B0FA80F042094FF04020FFF767
:1080E000C3FF0FE09DF807102020C4F2000000221B
:1080F000FFF7BAFF9DF807104FF040200122FFF76D
:10810000B3FFFFE702B080BD80B582B08DF80700F5
:108110008DF806109DF807109DF806201020C4F277
:108120000000FFF7A1FF02B080BD000083B08DF812
:108130000B008DF80A1044F21000C4F20000019008
:1081400044F21800C4F2000000909DF80A0050B9F3
:10815000FFE7019800689DF80B20012191408843BA
:108160000199086022E09DF80A0001280AD1FFE782
:10817000009800689DF80B20012191400843009968
:10818000086009E0009800689DF80B2001219140EB
:10819000884300990860FFE7019800689DF80B206C
:1081A00001219140084301990860FFE703B070473F
:1081B00084B003908DF80B108DF80A2003980021ED
:1081C000C4F20701084401909DF80B103F2088403D
:1081D000009001980068009988439DF80A109DF866
:1081E0000B20914008430199086004B070470000DB
:1081F00080B582B08DF807008DF806109DF8070055
:108200001821002808BF06219DF806205820FFF7F6
:10821000CFFF02B080BD000083B08DF80B008DF859
:108220000A109DF80B107C2000EA51004421C4F292
:108230000701084401909DF80B0000F00700800042
:108240008DF80300019800689DF803200F219140EC
:1082500088439DF80A109140084301990860002066
:1082600003B0704780B582B08DF807009DF8071005
:108270000820FFF749FF02B080BD000080B584B040
:108280000390039800F09CF800208DF8010018215D
:108290008DF800108DF802008DF803008DF80400B1
:1082A00007218DF805108DF806008DF807000120D4
:1082B0008DF808000398694600F02AF804B080BDE4
:1082C00081B00090009A0421C4F2070108681043AD
:1082D000086001B07047000082B001908DF8031073
:1082E0009DF803000199086002B0704782B00190C8
:1082F000009100980199086202B0704781B0009027
:108300000099486840F00200486001B070470000E2
:1083100082B00190009100998879CA79097A40EA7F
:10832000820040EAC10001994860DDF800C09CF875
:1083300005009CF801109CF802209CF803309CF882
:1083400004C040EA0C1040EA831040EAC21040EA40
:10835000012001990860009800780199086102B035
:108360007047000081B000900099486920F0070034
:10837000486101B07047000081B0009000994869E1
:1083800040F00700486101B07047000081B00090E4
:108390000099486920F00800486101B0704700006A
:1083A00081B000900099486940F00800486101B030
:1083B0007047000081B000900098806901B070475C
:1083C00081B0009000990020086100990860009930
:1083D00048600099486101B07047000082B0019088
:1083E00001988068ADF80200BDF8020002B0704745
:1083F00081B000900098C068C0F3800001B0704761
:1084000081B000900098C068C0F3400001B0704790
:1084100082B00190ADF80210BDF8020001998860A9
:1084200002B0704786B00590049103920498C00092
:108430000399B0FBF1F002900298C00901900199F4
:108440000298A0EBC1100290029801304008009001
:10845000019805994862BDF8060018B9FFE7019830
:1084600010B9FFE7FFE7FEE701984FF6FF7188427A
:1084700004D1FFE705990020886207E0019902987E
:10848000401A0290009805998862FFE70598C06A33
:108490000599C86206B0704781B000900098806965
:1084A000C0F3401001B0704780B584B003900291D2
:1084B0000192039900200863039948640399886333
:1084C0000399486003994862039988620399C862D6
:1084D0000398029AD1681269FFF7A4FF029890F8F6
:1084E00000C041788378C278802000EA411040EAD9
:1084F0004C1040EA031040EAC20001F0030140EAD8
:1085000041000399C8620298B0F80900000400BA5B
:10851000039948630198039988630299087991F84F
:1085200005C08B79CA79400240EA0C20184440EA21
:10853000C230097A40EA81300399086304B080BDF3
:1085400080B582B048F21D61C0F202010420002211
:108550000192F6F717F8019A48F2FD51C0F20201B4
:108560000520F6F70FF8019A48F27561C0F2020192
:108570000720F6F707F8019A48F29161C0F202016C
:108580001046F5F7FFFF00F005F9019802B080BD35
:1085900080B582B0019047F63410C2F20000016845
:1085A00047F62010C2F20000026848F66820C0F2C8
:1085B0000200F5F79FFF00200090FFE700980F28CA
:1085C00011D8FFE7009947F61010C2F20000415C95
:1085D00048F68520C0F20200F5F78CFFFFE700980F
:1085E00001300090EAE702B080BD000080B582B0A3
:1085F000019000F0C9F902B080BD000080B582B0E2
:108600000190009101980168426848F67020C0F21C
:108610000200F5F76FFFFFE7FEE7000070B588B0D6
:1086200007900691DDF81CC0CDF814C0DCF81810D6
:10863000DCF81420DCF81C30DCF80000DCF804E086
:10864000DCF80840DCF80C50DCF81060EC46CCF8A4
:108650001060CCF80C50CCF80840CCF804E0CCF812
:10866000000048F6F010C0F20200F5F743FFFFE704
:10867000FEE7000080B582B001900091019948F6B4
:108680005C20C0F20200F5F735FFFFE7FEE70000CF
:1086900080B582B001900091FFE70020C4F2020093
:1086A000FFF7FAFE012801D1FFE7F6E7019801780C
:1086B0000020C4F20200FFF70FFE002002B080BDD0
:1086C00080B588B00790069103208DF80400002241
:1086D0008DF8052001208DF806008DF807208DF813
:1086E00008008DF809008DF80A008DF80B208DF830
:1086F0000C208DF80D008DF80E0007980490069858
:1087000005900020C4F2020001A9FFF7CDFE08B0D9
:1087100080BD000080B588B04FF4C420FFF7D0FDC5
:108720000620019002210291FFF700FD052006902E
:1087300001210491FFF7FAFC049907200590FFF747
:10874000F5FC01980299FFF767FD04990698FFF779
:1087500063FD0820039000210791FFF75DFD049958
:108760000398FFF79BFC03980499FFF7CDFC05994C
:108770000798FFF73DFD0020C4F20600FFF77EFDDD
:108780000698079A48F64501C0F20201F5F704FF82
:1087900008B080BD80B588B043F20060C0F26E10B2
:1087A0004FF4E131FFF78CFFFFF7B4FF48F2ED50D3
:1087B000C0F202006946086048F68D20C0F202004F
:1087C00001904FF44061002306931A46FBF73CFFEB
:1087D000069B0146019847F60812C2F20002029277
:1087E000116048F29151C0F202016A4611604FF4E3
:1087F00080511A46FBF728FF0146029847F60C12F3
:10880000C2F200020492116000680390FBF72AFD97
:10881000069B0246039869460B6001210591FBF710
:108820007FFF049800680790FBF71CFD0599069BE5
:1088300002460798EC46CCF80030FBF771FF08B011
:1088400080BD000080B584B003900020C4F2060013
:10885000FFF7B0FD02909DF808000007002846D5FC
:10886000FFE7FFE747F63410C2F20000016800207E
:108870000F2900900AD8FFE70020C4F20600FFF796
:10888000BFFD002818BF01200090FFE70098C00737
:10889000C0B1FFE747F63410C2F20000016847F6A6
:1088A0002410C2F20000415C0020C4F20600FFF771
:1088B000AFFDFFE747F63411C2F20001086801304E
:1088C0000860CFE747F63410C2F2000000681028B5
:1088D00006D1FFE70020C4F20600FFF757FDFFE7CF
:1088E0000020C4F206000221FFF700FDFFE79DF81B
:1088F0000800400700280BD4FFE79DF80800800718
:10890000002805D4FFE79DF80800C00768B3FFE71B
:10891000FFE70020C4F20600FFF760FD47F62013D2
:10892000C2F200031A68511C196047F61011C2F216
:1089300000018854FFE70020C4F20600FFF758FD4D
:108940000028E6D1FFE747F62010C2F200000068D9
:10895000102809D1FFE70020C4F20600FFF702FD4E
:108960000120FFF77FFCFFE7FFE79DF80800C00745
:1089700038B1FFE70020C4F206000121FFF7B6FC82
:10898000FFE7002004B080BD80B582B000200190D8
:10899000FFE701980F280BD8FFE7019847F624114D
:1089A000C2F200010854FFE7019801300190F0E79E
:1089B0000020FFF757FC0020C4F206000090FFF7EC
:1089C000EFFC0098FFF7D8FC0098FFF797FC02B087
:1089D00080BD02E008C8121F08C1002AFAD1704702
:1089E0007047002001E001C1121F002AFBD170472F
:1089F000484152444641554C543A0A5043203A208B
:108A00003078253038580A4C52203A2030782530BA
:108A100038580A5053523A203078253038580A5284
:108A200030203A203078253038580A5231203A2008
:108A30003078253038580A5232203A2030782530A4
:108A400038580A5033203A203078253038580A52A6
:108A500031323A203078253038580A005B4F4F4D7C
:108A60005D20402025640A002025642025640A003A
:108A70005B415353455254494F4E5D20402025736E
:108A80003A25640A002D20307825782000743100C2
:108A9000A08A02000879002034000000E289020068
:04000005000280096C
:00000001FF
