:020000040202F6
:10800000000000001D800202DFF80CD000F01AF81A
:10801000004800472D8002028457002002B5EFF38C
:10802000088181F30988054800470000044880471B
:10803000EFF3098181F3088802BD00004580020248
:1080400051850202064C074D06E0E06840F001034E
:1080500094E8070098471034AC42F6D3FFF7D8FFF6
:10806000448E0202548E020240EA01039B0703D0B1
:1080700009E008C9121F08C0042AFAD203E011F867
:10808000013B00F8013B521EF9D27047034611F83C
:10809000012B00F8012B002AF9D118467047000087
:1080A00080B582B00190019800EB400145F2285064
:1080B000C2F2000000EBC100183000F0EBF802B093
:1080C00080BD000080B500F097F880BD80B586B017
:1080D000059004910392FFE745F22850C2F2000098
:1080E000007818B9FFE700F087F8FFE7FFE7EFF344
:1080F00011804FF0200181F31188019005980499B7
:10810000039A00F007F80290019880F31188029812
:1081100006B080BD80B58AB0099008910792089892
:108120000490099800EB400145F22850C2F200008B
:1081300000EBC1001830039003984069029040B1F1
:10814000FFE70298012819D0FFE7029802282CD0F7
:1081500032E0039800F09EF8059005980799884250
:1081600003D2FFE70020069007E0079806900398E7
:108170000499079A00F01EF9FFE720E0039800F049
:1081800089F8059005980799884203D2FFE705987A
:10819000019002E007980190FFE70198069003988C
:1081A0000499069A00F006F909E003980499079AE1
:1081B00000F090F8069002E000200690FFE7069895
:1081C0000AB080BD41F21801C4F2000145F6A520B5
:1081D000086041F21401C4F200014CF6FE20086070
:1081E0007047000082B001908DF803109DF80300E5
:1081F0000199086002B0704780B582B045F22850FE
:10820000C2F20000019001990120086101994861C2
:10821000019848F63261C0F202218161019A45F26B
:108220008050C2F20000D061019A4FF4FA701062DF
:10823000019A00209062019A5062019AD062019ADC
:108240001163019A45F27051C2F200015163019A23
:1082500010219163019908640199C86301994864E8
:108260000198073048F62E61C0F20221FFF70EFF99
:10827000BFF35F8F019848F62761C0F20221FFF734
:1082800005FFBFF35F8F019920208871BFF35F8FD7
:1082900002B080BD84B003900398006902900398F7
:1082A000C068019002980199884209D8FFE70398B5
:1082B00080680199401A029908440138009005E04D
:1082C00002990198C04308440090FFE7009804B069
:1082D0007047000080B58AB009900891079200208D
:1082E00005900998C0680390FFE709980069049019
:1082F00004980399884206D9FFE704990398C0437C
:108300000844069008E0099881680398049A801A46
:10831000C04308440690FFE7069809998968039AC4
:10832000891A884203D2FFE70698029005E009986F
:1083300080680399401A0290FFE702980690069819
:108340000799884203D2FFE70698019002E0079858
:108350000190FFE701980690099840680399084446
:108360000899069AFFF780FE06990598084405903B
:10837000069908980844089006990798401A0790AB
:1083800006990398084403900398099989688842DC
:1083900003D1FFE700200390FFE7BFF35F8F03984F
:1083A0000999C860FFE7079800289ED1FFE7059864
:1083B0000AB080BD80B586B00590049103920598FF
:1083C000C0680190059880680199401A0090009853
:1083D0000399884210D9FFE705984068019908443D
:1083E0000499039AFFF740FEBFF35F8F019803994A
:1083F00008440599C8601BE0009802900598406801
:10840000019908440499029AFFF72EFE03980099F7
:10841000401A0290059840680499009A1144029A03
:10842000FFF722FEBFF35F8F02980599C860FFE750
:1084300006B080BD86B00590049103920498C000F8
:108440000399B0FBF1F002900298C00901900199E4
:108450000298A0EBC11002900298013040080090F1
:10846000019805994862BDF8060018B9FFE7019820
:1084700010B9FFE7FFE7FEE701984FF6FF7188426A
:1084800004D1FFE705990020886207E0019902986E
:10849000401A0290009805998862FFE70598C06A23
:1084A0000599C86206B0704781B000900098806955
:1084B000C0F3401001B0704780B584B003900291C2
:1084C0000192039900200863039948640399886323
:1084D0000399486003994862039988620399C862C6
:1084E0000398029AD1681269FFF7A4FF029890F8E6
:1084F00000C041788378C278802000EA411040EAC9
:108500004C1040EA031040EAC20001F0030140EAC7
:1085100041000399C8620298B0F80900000400BA4B
:10852000039948630198039988630299087991F83F
:1085300005C08B79CA79400240EA0C20184440EA11
:10854000C230097A40EA81300399086304B080BDE3
:1085500080B586B000F0A6F940F26011C4F21001B7
:10856000C820C4F63220086042F20001C4F21001B3
:108570004CF65300CEF68000086042F20801C4F2C7
:10858000100147F60020CCF23650086042F20C0190
:10859000C4F2100148F23230086048F63D11C0F2D2
:1085A0000221012000220592F6F70CFB059A48F201
:1085B000D561C0F202210420F6F704FB059A48F2C7
:1085C000B561C0F202210520F6F7FCFA059A48F2DF
:1085D0002D71C0F202210720F6F7F4FA059A48F649
:1085E0008501C0F2022102200490F6F7EBFA059A09
:1085F00048F69901C0F202210320F6F7E3FA059A42
:1086000048F24971C0F202211046F6F7DBFA00F099
:108610008BF9059B69464B600E20086048F6852063
:10862000C0F2022048F61661C0F202218022FCF757
:1086300041F945F27C70C2F20000039000F0A4F909
:10864000039A48F27D71C0F202210820F6F7BAFAC7
:1086500004980599F6F7A0F9059806B080BD0000CA
:1086600080B584B084460698ADF80EC0ADF80C1005
:10867000ADF80A200193ADF80200002004B080BDDF
:1086800080B583B084460698DDF814E0ADF80AC0E2
:10869000ADF80810ADF80620ADF80430ADF80200D2
:1086A000002003B080BD000081B000900098807869
:1086B00001B0704780B582B00190009101980168C7
:1086C000426848F60160C0F20220F6F73DFAFFE783
:1086D000FEE7000070B588B007900691DDF81CC079
:1086E000CDF814C0DCF81810DCF81420DCF81C30CD
:1086F000DCF80000DCF804E0DCF80840DCF80C50A2
:10870000DCF81060EC46CCF81060CCF80C50CCF8DB
:108710000840CCF804E0CCF8000048F68950C0F2DC
:108720000220F6F711FAFFE7FEE7000080B582B0FD
:1087300001900091019948F6F550C0F20220F6F739
:1087400003FAFFE7FEE7000080B582B001900091D8
:10875000FFE741F20000C4F20100FFF7A5FE012887
:1087600001D1FFE7F5E70198017841F20000C4F27A
:108770000100FFF737FD002002B080BD80B586B054
:10878000059004914EF60450CEF2000000686FF39D
:108790005F20B0FA80F040098DF80B009DF80B00C7
:1087A00028B1FFE7F6F77EF9406B8047FFE700202E
:1087B000FFF776FC039005990889498908440399D5
:1087C00088420EDAFFE705980168028900200190CF
:1087D000FFF77CFC0198059A51685289FFF776FCF7
:1087E000FFE79DF80B0028B1FFE7F6F75BF9806B18
:1087F0008047FFE7002006B080BD000080B588B04C
:108800000790069103208DF8040000228DF80520C2
:1088100001208DF806008DF807208DF808008DF8EE
:1088200009008DF80A008DF80B208DF80C208DF8CA
:108830000D008DF80E00079804900698059041F2FF
:108840000000C4F2010001A9FFF736FE08B080BDA8
:1088500081B000900098B0F8030001B070470000AC
:1088600081B000900098807801B0704781B000908E
:108870000098007801B0704781B0009000980430F3
:1088800001B0704780B582B00190009100F04CF8C3
:10889000002002B080BD000082B001900091002055
:1088A00002B0704780B548F68830C0F20220F6F773
:1088B000B5F948F6D020C0F20220F6F7B5F980BD30
:1088C00080B58EB06A4600200C9090625062012103
:1088D0000D911162D0619161142353611061D060D8
:1088E0009060516007211160132120231A46DEF7A2
:1088F0000FF80C9848F6B822C0F202221121DDF7D9
:10890000BDFF0D990C9848F68852C0F20222DEF79E
:10891000CBF80D9948F6CA22C0F202220846DDF7CC
:10892000B9FF0EB080BD000080B543F20060C0F218
:108930006E104FF4E131FFF761FF80BD80B584B068
:108940000390029148F61860C0F20220F6F7FCF896
:1089500048F26160C0F2022048F28161C0F2022157
:10896000DCF79AF945F27470C2F2000048F6A911DA
:10897000C0F2022101914160E0F7D0FC0198DCF7E0
:1089800035FA002004B080BD80B582B00190FFF7B9
:1089900099FB02B080BD000083B002900191ADF858
:1089A0000220FFE703B0704780B586B08DF817004E
:1089B000ADF814100492ADF80E300498FFF756FF8E
:1089C0008DF80D009DF81700042801D0FFE757E04F
:1089D0009DF80D000146019105283BD0FFE7019865
:1089E0000E2821D0FFE701983E2822D0FFE701980A
:1089F000602808D0FFE70198B72834D0FFE7019836
:108A0000FF2831D03BE00498FFF74EFE022801D04A
:108A1000FFE735E048F63B61C0F202210020DDF7B8
:108A200005FEFFF74DFF2BE00498FFF711FFFFE76E
:108A300026E00498FFF714FF0A2809D1FFE70498FD
:108A4000808848F65031C0F20221DCF7E3F900E0FB
:108A5000FFE715E048F6CA22C0F2022201210846CB
:108A6000DDF718FF0CE00BE00498FFF705FF02901C
:108A7000029A106851681289FFF78EFF00E0FFE745
:108A800006B080BD80B582B00190FFE74FF4105072
:108A9000FAF770FEFFF796FBF8E702E008C8121F2E
:108AA00008C1002AFAD170477047002001E001C1D7
:108AB000121F002AFBD170470201060D0972737361
:108AC000695F72616E67696E6700000000000000F8
:108AD0003FE71BF646F89FF99EFA50FBF7FB53FC65
:108AE000BBFC23FD75FDC3FD0EFE52FE8CFEC4FED5
:108AF000FBFE2CFF59FF85FFB2FFD4FFF4FF1700E8
:108B00003900580072008D00A900C400DB00F1009C
:108B1000050119012C013F0150016201720182011E
:108B200091019F01AA01B701C401D001D901E2015D
:108B3000EE01F701FF01090212021A0220022902C6
:108B40002E0236023D0242024A02500255025B02E8
:108B50000A0002000100002800180D0002000200B7
:108B60000328020300002A080002000300002A0D67
:108B700000020004000328020500012A0800020088
:108B80000500012A0000000000000013011B003C4A
:108B90000149001201FC0613013100A6010100AEDB
:108BA00001400BA701CA951B01CC711C01020018E2
:108BB00001FF0F190103001A01200E3D018906254E
:108BC000010B072601090F270189072A010B082B32
:108BD00001090F2C0150733B000000000000000051
:108BE0000000000000000000000000000000000085
:108BF0000000000000000000000000000000000075
:108C00000000000000000000000000000000000064
:108C10000000000000000000000000000000000054
:108C200000000003010010140100101401FC0613E1
:108C30000000000000000000000000000000000034
:108C40000000000000000000000000000000000024
:108C5000000000040120231101202311735310147C
:108C600001131014000000000000000000000000CC
:108C700000000000000000000000000000000000F4
:108C80000000000000000004012023110120231136
:108C900073531014011310140000000000000000B2
:108CA00000000000000000000000000000000000C4
:108CB0000000000000000000000000040143061155
:108CC0000143061174531014011310140000000026
:108CD0000000000000000000000000000000000094
:108CE000000000000000000000000000000000057F
:108CF00001160010019B0139019B19696A93101438
:108D0000011310140000000000000000000000002B
:108D10000000000000000000000000000000000053
:108D2000000000000000000501170010019B213920
:108D3000019B19696A9310140113101400000000BC
:108D40000000000000000000000000000000000023
:108D5000000000000000000000000000000000050E
:108D600001041010019B013901DB0C6960931014A0
:108D700001131014000000000000000000000000BB
:108D800000000000000000000048415244464155E8
:108D90004C543A0A5043203A203078253038580A4B
:108DA0004C52203A203078253038580A5053523AE5
:108DB000203078253038580A5230203A2030782533
:108DC0003038580A5231203A203078253038580A45
:108DD0005232203A203078253038580A5033203A21
:108DE000203078253038580A5231323A20307825F0
:108DF0003038580A005B4F4F4D5D20402025640AF3
:108E0000005B415353455254494F4E5D204020254D
:108E1000733A25640A007700736574757020707268
:108E20006F66696C650A00534547474552005254C6
:108E300054005465726D696E616C00D934353637F3
:108E400096000000548E0202285500205C020000AB
:048E5000AA8A0202E6
:04000005020280096A
:00000001FF
