:020000040202F6
:10800000000000001D800202DFF80CD000F01AF81A
:10801000004800472D8002023C57002002B5EFF3D4
:10802000088181F30988054800470000044880471B
:10803000EFF3098181F3088802BD00004580020248
:108040007D970202064C074D06E0E06840F0010310
:1080500094E8070098471034AC42F6D3FFF7D8FFF6
:1080600084A2020294A20202D2B201E000F8012B23
:10807000491EFBD270470022F6E710B513460A46A8
:1080800004461946FFF7F0FF204610BD10B5002149
:10809000044600F06FF82046002100F021F845F278
:1080A0002802142C2046C4F2010288BF15384FF074
:1080B000010C142C02F10C0388BF02F580521168E8
:1080C0000CFA00F081431160142C84BF46F2340393
:1080D000C4F20103196821EA0000186010BD000015
:1080E00046F2800CC4F2000C00231F2800F01F0091
:1080F0004FF0010288BF012302FA00F001290CF1C0
:10810000080204D039B95CF8231081430BE052F81F
:108110002310014302E052F82310814342F8231058
:108120005CF82310014300204CF823107047000036
:1081300070B5054610284FF0FF301AD10C461129B2
:1081400018BF70BD46F26406C4F200063046012135
:108150000122032301F0AAFD30460121012204235C
:1081600001F0A4FD2846FFF791FF2046FFF78EFFA0
:10817000002070BD10B5044601F0E6FD0146002860
:1081800075D4112C0DD846F2140204F0FC00C4F290
:108190000002104404F003021438C2EBC2030722A9
:1081A0001FE0142C0BD86FF0150000EB440246F2D0
:1081B0001400C4F200000438D3B2022211E0162CDD
:1081C00009D0152C11D146F21400C4F20000043875
:1081D0000722142305E046F21400C4F2000007222F
:1081E000002301F063FD002010BD1E2C09D86FF0A4
:1081F000260000EB4400C3B246F21400C4F20000B3
:10820000DBE7212C0AD0202C0FD01F2C14D146F2F2
:108210001400C4F2000007221723E2E746F214001C
:10822000C4F2000004300222DAE746F21400C4F27D
:10823000000002221E23D4E7232C0AD8C4EBC4007A
:1082400000F1140246F21400C4F200000430D3B26C
:10825000A5E76FF0370000EB440246F21400C4F2C9
:1082600000000430D3B2022201F020FD00210846B4
:1082700010BD000080B5012100F012F880BD0000A3
:10828000B0B50446002503E00135192D08BFB0BD87
:1082900024FA05F0C007F7D0E8B2FFF7EBFFF3E7E9
:1082A000B0B5182888BFB0BD0C46DFE810F0190043
:1082B00020002F003A004900580067007600850032
:1082C0009000A000B400BE00C900D400E300F2009A
:1082D0000101100118012001280130013F014F0167
:1082E0000C25C4F2000528462146152205E00C2580
:1082F000C4F2000528462146162201F0B7FC05F11C
:1083000008002146122201F0B1FCB0BD0C25C4F2D8
:10831000000528462146022201F0A8FC05F10800CC
:10832000E8E00C25C4F2000528462146032201F0AE
:108330009DFC05F108002146012201F097FCB0BD2B
:108340000C25C4F2000528462146042201F08EFCCB
:1083500005F108002146022201F088FCB0BD0C2581
:10836000C4F2000528462146012201F07FFC05F1F8
:1083700008002146112201F079FCB0BD0C25C4F2A1
:10838000000528462146052201F070FC05F1080091
:1083900021460A2201F06AFCB0BD0C25C4F200059A
:1083A00028462146082201F061FC05F1080021461B
:1083B000092201F05BFCB0BD0C25C4F20005284683
:1083C0002146092201F052FC05F148004DE00C2540
:1083D000C4F20005284621460A2201F047FC083570
:1083E00028462146132201F041FC28467AE00C255C
:1083F000C4F20005284621460B2201F037FC08355F
:10840000284621460B2201F031FC28462146102245
:1084100001F02CFCB0BD0C25C4F200052846214615
:108420000C2201F023FC281F64E00C25C4F2000597
:10843000284621460D2201F019FC05F1080061E0F3
:108440000C25C4F20005284621460E2201F00EFC40
:1084500005F1080075E00C25C4F200052846214608
:108460000F2201F003FC05F1080021460C2201F067
:10847000FDFBB0BD0C25C4F20005284621461022A4
:1084800001F0F4FB05F108002146082201F0EEFBA3
:10849000B0BD0C25C4F2000528462146112201F08A
:1084A000E5FB05F108002146042201F0DFFBB0BD29
:1084B0000C25C4F2000528462146122201F0D6FB05
:1084C00005F108002146052201F0D0FBB0BD0C20CB
:1084D000C4F200002146132201F0C8FBB0BD0C20FD
:1084E000C4F200002146142201F0C0FBB0BD0C20F4
:1084F000C4F200002146002201F0B8FBB0BD0C2000
:10850000C4F200002146062201F0B0FBB0BD0C25EC
:10851000C4F2000528462146172201F0A7FB05F109
:10852000080021460E2201F0A1FBB0BD0C20C4F2D0
:10853000000000F1740528462146052201F096FB53
:1085400028462146072201F091FBB0BD0C20C4F261
:1085500000002146192201F089FBB0BDB0B52C20E6
:10856000C4F200000168006801F02F042F2101EA25
:10857000901500F0FFF86843B0FBF4F0B0BD0000C8
:1085800010B50424C4F200042068C00444BF4FF4B2
:10859000004010BD00F0EEF8A169090DB0FBF1F04C
:1085A00010BD000010B5811E152900F29680DFE88D
:1085B00001F00B0B0B9424303D4655945C687178A8
:1085C0001818212194948E840421C4F200010968B2
:1085D00021FA00F080043ED400F0CCF804460B20D1
:1085E0004DE00421C4F20001096821FA00F00007FF
:1085F0004DD472E000F094F810BD0420C4F20000E5
:10860000806A000427D400F0B5F804460B201B2133
:1086100058E000F0AFF80446062001F013FB444395
:10862000002001F00FFBB4FBF0F010BD0420C4F2F9
:108630000000006D000456D400F09CF855E00420C2
:10864000C4F200000068800405D400F093F80446EA
:108650000020182136E0FFF793FF10BD0420C4F27C
:108660000000806AC0033BD437E00420C4F200005D
:108670000068800231D500F05FF804460020142124
:1086800020E00420C4F200000068400225D500F07C
:1086900033F810BD0420C4F20000806A80031FD4A8
:1086A0001BE00420C4F200000068000215D500F0B1
:1086B00043F8044600200C2104E000F03DF8044695
:1086C0002020002101F0AAFAB4FBF0F010BD042034
:1086D000C4F20000806A000302D400F04BF810BD21
:1086E000FFF73CFF10BD00F007F8044601F0A0FAC8
:1086F000B4FBF0F010BD000010B50420C4F200007F
:108700000068400402D400F035F810BD00F014F801
:1087100004460020002101F081FAB4FBF0F010BD06
:1087200010B5FFF7E9FF04460020042101F076FAB6
:10873000B4FBF0F010BD0000B0B540F2A810C4F2D8
:1087400010000068C0025CBF0020B0BD4024C4F22D
:10875000000420682168C0F34500C1F3C53101FB66
:1087600000F500F007F82168B0FBF5F0C1F3C71180
:108770004843B0BD42F21000C4F21000006843F25A
:108780000061C005C0F26E1144BF0846704740F258
:108790007C10C4F210000068C0F304320F2A12D813
:1087A00041F20020C0F27A00DFE802F011080D1259
:1087B0000D0D0D140D0D0D0D0D0D0D1942F2004096
:1087C000C0F2F400704749F20000C0F2D0307047A8
:1087D0000846704744F60000C0F2E810704746F6BD
:1087E0000040C0F2DC20704710B58024C4F20004C1
:1087F000014620460422002301F046FA20460121CA
:10880000042201F033FA10BD012202FA01F100281E
:1088100018BF41F0410040F27411C4F21001086029
:1088200070470000032802D24FF0000C4FE00928E7
:1088300002D24FF0100C4AE0212802D24FF0200C57
:1088400045E0402802D24FF0300C40E07E2802D2B2
:108850004FF0400C3BE0FB2802D24FF0500C36E0CA
:10886000B0F5FA7F02D84FF0600C30E0B0F57A7FB7
:1088700002D84FF0700C2AE0B0F57A6F02D84FF0B2
:10888000800C24E0B0F57A5F02D84FF0900C1EE027
:10889000B0F57A4F02D84FF0A00C18E0B0F57A3F4F
:1088A00002D84FF0B00C12E0B0F57A2F02D84FF09A
:1088B000C00C0CE0B0F57A1F02D84FF0D00C06E0E7
:1088C0004FF0F00CB0F57A0F98BF4FF0E00C05298F
:1088D00001D200201EE0092902D24FF4807019E075
:1088E000112902D24FF4007014E0212902D24FF472
:1088F00040700FE0402902D24FF480600AE07E29E8
:1089000002D24FF4A06005E04FF4E060FB2938BFCD
:108910004FF4C06041F21001C4F2000145F6A523F6
:108920008B600D23002A08BF09234CEA0302104381
:10893000086042F21400C4F21000016841F0805156
:108940000160704741F21400C4F2000045F6A52111
:1089500041604CF6FE2101607047000001607047E5
:1089600041B2B1F1FF3F00F07F0045F26C6100EBD6
:108970004000C2F2000101EB80004FF0FF314FF0E8
:108980000002C7BFC0E913125430C0E901120C3015
:108990000021016070470000B0B545F26C60C2F282
:1089A00000000024048000BFE5B2013444F08000E0
:1089B000C0B200F0CDF8042DF6D30024E5B20134A6
:1089C000E0B200F0C5F8042DF8D3B0BD10B5817841
:1089D00045F26C6301F07F01C2F2000303EBC104B6
:1089E0004278B4F8951062F38301A4F89510828858
:1089F00062F30E11A4F89510827821F0010141EA8A
:108A0000D211A4F895108278C178104600F04AF986
:108A1000B4F8950040F002010220A4F8951010BDB2
:108A2000B0B582B0044640B204F07F0245F26C63F8
:108A3000B0F1FF3F40F6101002EB4201C2F200031A
:108A4000C4F2180003EB81010BDD01F14C0592B17A
:108A50004FF6FF7100EB4210C0F2070100F5007005
:108A60000CE001F1040542B14FF6FF71C0F20701BD
:108A700000EB421002E000F500707F2102682868D8
:108A8000431C1CD01140D5E90132511A401A194437
:108A90000028286069600FDD69460DF10602204656
:108AA00000F0F4F90099BDF806202046A96000F016
:108AB0007DFC002002B0B0BD4FF0FF3028600120E7
:108AC00002B0B0BD10B51024C4F218042068B0F193
:108AD000FF3FFBDC206840F001002060642001F0D3
:108AE000BDF800BF2068C007FCD110BD4FF61800CC
:108AF00040F60001CFF6FF70C4F218010A5842F0A8
:108B000010020A500A6842F0807242F003020A60C2
:108B10000A6822F4FE620A600A6822F400020A600F
:108B20000A6822F004020A6040F60402C4F2180245
:108B3000136823F00203136045F26C62C2F2000274
:108B4000D2F8C8200B581A4342F440520A507047DA
:108B500010B5044640B240F6001CC4F2180CB0F147
:108B6000FF3F04F07F0020DDC8B3411E0CEB411233
:108B7000D2F8201241F00061C2F82012D2F820127F
:108B8000B1F1FF3F05DC02F508710B6843F090433B
:108B90000B60D2F82812D2F828321943C2F82812F2
:108BA0004FF480318140CA434EE098B3421E0CEB33
:108BB0004212134653F8201F41F0006119601968F2
:108BC000B1F1FF3F03DC196841F080411960916AFF
:108BD000936A1943916201218140CA4334E0DCF871
:108BE000001241F00061CCF80012DCF80012B1F183
:108BF000FF3F05DCDCF8001241F08041CCF80012A8
:108C0000DCF80812DCF808221143CCF808126FF4E3
:108C1000803219E0DCF8002042F00062CCF800203D
:108C2000DCF80020B2F1FF3F05DCDCF8002042F068
:108C30008042CCF80020DCF80820DCF808301A4329
:108C4000CCF808206FF001025CF8E41C11404CF8ED
:108C5000E41C00F0C5F82046FFF782FE10BD0000BE
:108C600080B545F26C60C2F200000421417045F20B
:108C7000EC51C2F200010020002200F05DFC00F087
:108C8000F3F880BD80B545F26C60C2F200000521AA
:108C9000417045F22C61C2F200010020002200F078
:108CA0000BFC80BDB0B543B240F60812C4F2180206
:108CB000B3F1FF3F00F07F0026DD00284DD045F2E4
:108CC0006C63C2F2000303EBC00302EB4015B3F880
:108CD0009530D5F8F84101F00301C3F30A1344EAD3
:108CE0008141194341F0805141F40041C5F8F81128
:108CF000D5F80012D5F800321943C5F800124FF428
:108D0000803101FA00F04BE0D8B345F26C63C2F257
:108D1000000303EBC003B3F8953002EB4014C3F338
:108D20000A1C4FF0707301F0030E03EA805354F8ED
:108D3000085C43EA8E432B4343EA0C0343F0805321
:108D400043F40043410144F8083C535855582B4321
:108D50005350012101FA00F022E0D2F8F80101F0AD
:108D6000030140EA814040F40040C2F8F801D2F823
:108D70000002D2F800120843C2F800024FF480301B
:108D80000EE052F8080C01F0030140EA814040F483
:108D9000004042F8080C1068116808431060012078
:108DA00052F8EC1C084342F8EC0CB0BD40F604004D
:108DB000C4F21800016841F40071016001680907FC
:108DC000FCD51021C4F218010A6842F010020A60B2
:108DD0000A68D206FCD4016841F4806101607047E2
:108DE0001022C4F218025168490640F60401C4F288
:108DF000180103D40B6843F080030B6053685B06D3
:108E0000FCD500BF1368B3F1FF3FFBDC13689B0682
:108E1000FCD400F01F008001203010601068800634
:108E2000FCD4086840F480700860704745F22C60FC
:108E3000C2F20000704700004C20C4F21800006825
:108E40001021C0F3021001FA00F080B27047000058
:108E50004C20C4F2180000684FF4006100F00F00CD
:108E600001FA00F07047000040F600301821C4F20B
:108E70001800C6F20801016145F22C61C2F200013E
:108E80004161016841F00441016070472DE9F04102
:108E90000D4645F26C61904642B200F07F00C2F28E
:108EA000000101EBC003B3F89530B2F1FF3FC3F30B
:108EB0000A1414DD40B300EB400001EB8000C66CE7
:108EC000FFF7C6FF864202D3FFF7C2FF0646A6425F
:108ED0001DD9A0190138B0FBF4F087B218E000EBFF
:108EE000400201EB82014E68E0B1FFF7B1FF86421C
:108EF00002D3FFF7ADFF0646A64218D9A0190138E4
:108F0000B0FBF4F087B213E00127264619E00127F1
:108F1000FFF792FF874202D3FFF78EFF074607FB5A
:108F200004F60EE0A64228BF2646012709E00127E5
:108F3000FFF782FF874204D9FFF77EFF074600FB59
:108F400004F62E60A8F80070BDE8F081B0B582B0DC
:108F500045F26C64C2F2000460780138042839D804
:108F6000DFE800F0033A224C340045F22C65C2F2EF
:108F700000052878C0064BD16878092844D0052818
:108F800046D140F60000C4F21800016821F4FE61E9
:108F900001606988026801F07F0142EA0111016005
:108FA000207840F0100032E000200025FFF738FD67
:108FB00080B10120D4F8C410ADF8040001A88DF8E8
:108FC00006508847FFF74CFE02B0B0BD012060702C
:108FD000FFF74AFF02B0B0BD8020FFF721FD002857
:108FE000F8D00120D4F8C410ADF804008DF80600C4
:108FF00001A88847FFF746FE02B0B0BD01206070AF
:10900000FFF732FF02B0B0BD207840F020002070A2
:109010000020D4F8C4108DF8040001A88847022865
:1090200008D01028D6D1287800F0800000F0AAFAE5
:1090300002B0B0BDEA88002AC4D095F90000022130
:10904000B0F1FF3FC8BF032100286170C2D445F2D0
:109050002C61C2F20001002000F02EFA02B0B0BD77
:10906000B0B5044645F26C60C2F2000000210180F8
:10907000216922680C25C0E93112C4F2180528685C
:1090800040F040002860FFF71DFD55F8040C43F642
:10909000084140F0270045F8040C28682A688843F6
:1090A000104342F2084108432860E86840F0060097
:1090B000E86000F0AFFA1020FFF792FEFFF776FEAF
:1090C000FFF714FDA868A9680843A86055F8080CC4
:1090D00055F8081C084345F8080C00F00FFA022068
:1090E000002C08BF0420B0BD2DE9F04F81B014253D
:1090F000C4F21805D5F8009040F61C0445F26C6BDC
:10910000C4F218045FEAC940C2F2000B37D5D4F8A4
:10911000E40240F00060C4F8E40200202118D1F815
:109120000423203042F00062A028C1F80423F5D1C6
:1091300000F0B6F9206841F22D1140F001102060D6
:1091400054F80C0C40F00D0044F80C0C54F8080CCA
:10915000084344F8080C54F81C0C20F4FE6044F852
:109160001C0C686840F4402068600220DBF8C410E2
:109170008DF800006846884706208BF800005FEAFB
:1091800089401FD501208BF80100D4F8E40020F0BD
:109190000300C4F8E400D4F8E40240F00040C4F84E
:1091A000E402FFF761FEBBF8950048F20D010840AC
:1091B0009BF8001000F20240ABF8950041F0080067
:1091C0008BF800005FEA493044BF9BF800005FEA7B
:1091D000007035D45FEA093044BF9BF800005FEAB5
:1091E000007072D45FEA097040F21404C4F21804EB
:1091F00044BF9BF800005FEA007000F1B5805FEAB1
:10920000095044BF9BF800005FEA007100F1B48090
:10921000B9F1FF3F00F3C2809BF80000010740F165
:10922000BD8000F0F9008BF80000002000F020F96C
:109230000520DBF8C4108DF8000068468847ADE0D3
:1092400054F8040C216840F60816084085B200273F
:10925000C4F218064FF0010A08E0FFF777FEC4F8E1
:10926000EC800137052F06F12006B3D025FA07F070
:10927000C007F6D0B7B13068C1073060F1D047F011
:109280008000C0B2FFF7CCFB0028EAD0DBF8C410A6
:1092900068468DF800A08DF801708DF802A088470F
:1092A000DFE700BFD4F8EC805FEAC870D7D09BF846
:1092B00001000128D3D00228CFD18020FFF7B0FBD6
:1092C000002818BFFFF742FEC9E754F8040C2168D4
:1092D00040F608370840050CC4F218074FF0010AA1
:1092E0004FF0000811E0300748BFFFF7BDFDB006A2
:1092F00048BFFFF7B5FCC4F8EC6208F10108B8F10B
:10930000050F07F120073FF46DAF25FA08F0C007FD
:10931000F3D0B8F1000F15D03868C1073860ECD031
:1093200008F07F00FFF77CFB0028E6D0DBF8C410D4
:1093300000208DF8020068468DF800A08DF80180AD
:109340008847DAE7D4F8EC62F007CCD0300406D4D2
:109350009BF801000128CAD0FFF7F8FDC7E78BF89A
:1093600001A0FFF7F3FDC2E70320DBF8C4108DF87E
:1093700000006846884742E740F006008BF800008E
:10938000012000F075F80420DBF8C4108DF800000F
:1093900068468847B9F1FF3F7FF73EAF206840EA53
:1093A00009010020216001B0BDE8F08F43B240F612
:1093B000103CC4F2180CB3F1FF3F00F07F0012DD47
:1093C00040B36FF3DF416FF39F2241EAC241420194
:1093D0000CEB40104CF8021050F8101C41F0044106
:1093E00040F8101C704760B36FF3DF416FF39F22AA
:1093F00041EAC2410CEB401001F10051A0F50472AA
:1094000011614FF6F051CFF6FF71425842F004421D
:1094100042507047DCF8000001F07F0120F07F002F
:10942000DCF80030002A18BF01F50021084318437A
:10943000CCF800005CF8100C40F004404CF8100C24
:10944000704701F07F0002F0030140EAC1404FF68F
:109450000061CFF6FF714CF801004FF6F050CFF6E7
:10946000FF705CF8001041F004414CF800107047A8
:1094700080B5012808D140F60060C4F218000168E8
:1094800041F00101016007E040F60400C4F2180059
:10949000016821F001010160142000F0DFFB80BDB4
:1094A00080B51020FFF79CFCFFF780FCFFF774FAF3
:1094B00000F024F880BD000080B500F07F00052892
:1094C00001D88B0701D0042080BD6FF01F0303EB90
:1094D000401C40F60033C4F21803634420330028D4
:1094E00004BF40F60033C4F218031B681B045CBFC2
:1094F000082080BD00F0A4F8022080BD45F26C6019
:109500006FF00B01C2F200004FF0FF3C002300BFE0
:1095100042180C313C29C2E904C39361F8D10021FF
:109520004FF0FF3C002300BFC2180C33482BC2E9A8
:1095300013C15165F8D1704780B500F07F0CBCF1C4
:10954000050F01D88B0701D0042080BD6FF01F03E9
:1095500003EB4C1E40F60013C4F21803734420338F
:10956000BCF1000F04BF40F60013C4F218031B68DF
:109570001B045CBF082080BD40F0800000F060F854
:10958000022080BD10B50121012400F009F845F248
:109590006C60C2F200004470FFF766FC10BD000072
:1095A00043B210F07F006FF01F0240F6001C02EB88
:1095B0004010C4F2180C00EB0C0202F1200002F57E
:1095C000087202BF40F60010C4F218000CF50072D9
:1095D000B3F1FF3F08DD1068012914BF20F400102B
:1095E00040F40010106070470268012909D1016839
:1095F000B2F1FF3FD8BF41F0804141F4001101605A
:10960000704722F400110160016841F0805101604F
:10961000704700002420C4F218004021016040215E
:10962000C0F220014160DC30602100BF41F4001233
:109630002031B1F5807F40F8042FF7D1704700004A
:10964000B0B582B043B240F6141C0446C4F2180C04
:10965000B3F1FF3F00F07F0312DD45F26C6503EBD1
:109660004300C2F2000505EB800000F14C05002B21
:109670001ABF0CEB4310C0F80012CCF8001210E037
:1096800045F26C6003EB4305C2F2000000EB85007D
:10969000002B00F104050EBFCCF8001058014CF867
:1096A00000100020C5E9002069460DF106022046A1
:1096B000FFF7ECFB0099BDF806202046A960FFF7F4
:1096C00075FE002002B0B0BDC900B1FBF2F200236C
:1096D000D109B3EBD25F41620ED169B14FF6FF738E
:1096E00002F07F02C91A02F1010218BF510881621B
:1096F000C16AC162704700BFFEE700008069C0F325
:1097000040107047F0B581B0044600200D4620633C
:109710006064A06360606062A062E0622B69C968F7
:10972000174620461A46FFF7CFFF6978287880262B
:1097300006EA4116AA7846EA401001F00301EB78E8
:1097400040EA410040EA021040EAC300E062B5F896
:109750000900000400BA6063A763687929790002F0
:10976000AA7940EA4120E97910442A7A40EAC130D6
:1097700040EA8230206301B0F0BD000010B582B035
:1097800049F67931C0F20221042000220024F5F7C5
:1097900019FA49F65131C0F2022105200022F5F7ED
:1097A00011FA49F6A531C0F2022107200022F5F78F
:1097B00009FA49F6BD31C0F2022100200022F5F776
:1097C00001FA00F085FA0E20009049F6A950C0F287
:1097D000022004A1802200230194FBF76BF80020F3
:1097E00002B010BD770000002DE9F0410178012999
:1097F00039D0002940F07980FFF718FB0446007843
:1098000000F01F05022D00F0C380012D00F07180D3
:10981000002D40F0AE806078172800F2AA80022563
:10982000DFE810F018007900A7008500A700B60057
:109830009300A700A900C600A700A700A700A700E3
:10984000A700A700A700A700A700A700A700A700E0
:10985000A700F20045F2A851C2F2000101200880E1
:10986000002002228FE0817801292FD0E9BB4078C7
:1098700002283AD196A00221F5F766F945F2285060
:10988000C2F20000451E0A2694A400BF15F8011F6D
:109890002046F5F759F9013EF8D192A0F5F754F9B1
:1098A00045F26850C2F2000040213322FEF7DCFB93
:1098B00045F22851C2F20001812040220023FFF727
:1098C0003BFE40F002052846BDE8F08140780128C3
:1098D0000BD145F22851C2F20001022040220023A0
:1098E000FFF7EAFD40F0020556E002252846BDE8F4
:1098F000F081607817283CD12079052809D1E288C9
:1099000049F66C618E2A28BF8E22C0F20221002007
:1099100039E002253CE045F2E850C2F2000001685F
:10992000628821F00101120708BF01310AE045F207
:10993000E850C2F200000168628821F001011207BC
:1099400018BF01310160022522E060880321B1EBDC
:10995000102F7DD0000A022800F08680012808D14F
:10996000E28849F6F451122A28BF1222C0F20221DD
:10997000CDE710250CE045F2A851C2F2000101200C
:109980000870002001220023FFF7D6FD40F00205F9
:10999000022D01D0102D02D12846BDE8F081D4E976
:1099A000002341A02946F5F7CFF82846BDE8F0810D
:1099B00049F6D455C0F2022505F11200FFF706F86A
:1099C000804605F11900FFF701F845F228510646D7
:1099D000C2F20001022040220023FFF76DFD45F294
:1099E0006855C2F200050746284640213322FEF79B
:1099F0003BFB8120294640220023FFF79DFD48EADA
:109A0000060139430843C1E7207904280ED1E288D2
:109A100049F64461C0F2022100200023282A28BF11
:109A20002822FFF789FD40F0020500E00225207999
:109A30000528ADD1E28849F66C61C0F20221002010
:109A400000238E2A28BF8E22FFF776FD05439FE76D
:109A5000C0B2EE2811D0022815D0012819D149F63C
:109A60000C61C0F202210CE0E28849F6D451202AB0
:109A700028BF2022C0F2022149E749F63061C0F236
:109A8000022112220AE049F62061C0F202211022CE
:109A900004E049F60861C0F202210422E088824213
:109AA00088BF024633E700BF555342206576656E96
:109AB000742065786563206572726F722025782046
:109AC00028307825782030782578290A0000000091
:109AD00028256429646174613A20000020307825CB
:109AE000782000000A00000010B586B04FF4000096
:109AF000FEF7C6FBFEF720FE49F68171C1F25E61FA
:109B0000A0FB0101880DFEF76FFE49F2E901C0F2EA
:109B100002211A2000220024F5F75EF810201121FE
:109B2000FEF706FB01200121FEF76EFE40F6000065
:109B3000C8F200000494CDE90244019049F2E970B2
:109B4000C0F20220059001A8FFF78AFA06B010BD06
:109B5000D0E9001202A0F4F7F7FF00BFFEE700BF54
:109B60005B415353455254494F4E5D20402025736D
:109B70003A25640A0000000086B000F10806D0E92A
:109B800000CE70CED0E90521C3694AF21820C0F298
:109B90000220CDE900CECDE902450496F4F7D4FFCA
:109BA000FEE70000014602A0F4F7CEFFFEE700BF8B
:109BB0005B4F4F4D5D20402025640A00B0B541F257
:109BC00000040546C4F201042046FFF797FD012872
:109BD000FAD029782046FEF7C1FE0020B0BD000073
:109BE00080B586B00322C0F20102019240F2011258
:109BF000C0F2010202924FF48072ADF80C200122F3
:109C0000CDE9040141F200008DF80E20C4F20100FC
:109C100001A90022FFF776FD06B080BD4FF080421B
:109C200052F82000C84010F00F0008BF0120704714
:109C30005420C4F200000068C0F34900002808BFA7
:109C4000012070475821C4F20001096821FA00F090
:109C500010F03F0008BF012070470000002808BF37
:109C6000704700BF013800BFFCD1704780B54FF08E
:109C7000010CD0F800E00CFA02F32EEA0303914045
:109C80001943016080BD000080B54FF0FF3C0CFA25
:109C900002F26FEA020CD0F800E00CFA03F22EEAAE
:109CA000020299401143016080BD000010B54FF0E1
:109CB000FF3C0CFA02F46FEA040CD0F800E00CFA56
:109CC00003F2A1432EEA020299401143016010BD44
:109CD000B0B52020FEF7D4FA43F20060C0F26E1057
:109CE0004FF46121FFF77CFF4EF6F050CEF20000FA
:109CF0000068C00706D142F2107042F210710022D3
:109D0000FEF790FDFFF7F0FEFEF716FD0446FEF7A6
:109D1000F3FC05461720FEF745FC034602A021464A
:109D20002A46F4F711FFB0BD63707520636C6B2099
:109D300025642C2068636C6B202564207573622079
:109D40002564200A00000000292829D849F6FA6C69
:109D50000246C0F2022C1323C80812FB03C3185C8E
:109D600001F00703984000061AD5002904BF00201F
:109D7000704713230131002012FB03CC8B1EDA172E
:109D800003EB5272D2101CF8022003F007039A4032
:109D90001206A1F1010148BF01300129EEDC704734
:109DA0004FF0FF30704700004FF41050F9F7E2FC1D
:109DB000FEF7C8FDF8E702E008C8121F08C1002A34
:109DC000FAD170477047002001E001C1121F002A3C
:109DD000FBD1704709022000010100C0FA0904000C
:109DE0000002FF0101000705810240000007050293
:109DF0000240000012010002FF010140F1FF2FFAB2
:109E000000000102000100000403090412034900DC
:109E10006E00670063006800690070007300000056
:109E20001003770069006E002D0064006500760065
:109E300012034D0053004600540031003000300042
:109E400017000000280000000001040001000000CD
:109E500000000000000157494E5553420000000029
:109E60000000000000000000000000008E00000064
:109E7000000105000100840000000100000028002E
:109E800044006500760069006300650049006E00CB
:109E900074006500720066006100630065004700A1
:109EA00055004900440000004E0000007B003700D0
:109EB00038003900410034003200430037002D00E3
:109EC00046004200320035002D00340034003300DB
:109ED00042002D0039004500370045002D004100AB
:109EE00034003200360030004600330037003300C3
:109EF0003900380032007D000000FFFFFFFAAAAAF7
:109F000048C000020FFFFFFF00000387E0FFFFFFD4
:109F1000F5555524A000010FFFFFFE800003A7E0C8
:109F2000FFFFFFFAAAA8909000008FFFFFFE4000FD
:109F30000397E0FFFFFFF55556488800004FFFFFED
:109F4000FE200003C7E0FFFFFFFAAAA92684000055
:109F50002FFFFFFE10000387E0FFFFFFF55554922F
:109F60008200001FFFFFFE0800038FE0FFFFFFFAE3
:109F7000AAAA4A8100020FFFFFFE04000387E0FF48
:109F8000FFFFF55555268080010FFFFFFE020003FD
:109F9000A7E0FFFFFFFAAAA8928040008FFFFFFE14
:109FA00001000397E0FFFFFFF555564A8020004F60
:109FB000FFFFFE008003C7E0FFFFFFFAAAA926808B
:109FC00010002FFFFFFE00400387E0FFFFFFF55565
:109FD00054918008001FFFFFFE0020038FE0FFFF69
:109FE000FFFAAAAA498004000FFFFFFE00100387B2
:109FF000E0FFFFFFF55555258002000FFFFFFE0033
:10A00000080387E0FFFFFFFAAAA8918001000FFF75
:10A01000FFFE00040387E0FFFFFFF555564980006F
:10A02000800FFFFFFE00021387E0FFFFFFFAAAA9DF
:10A03000258000400FFFFFFE00010B87E0FFFFFFC0
:10A04000F55554918000240FFFFFFE00008787E044
:10A05000C800000000000000000001000000000037
:10A06000000000D00000000000000000000200001E
:10A07000000000000000C40000000000000000001C
:10A08000008000000000000000FFFFFFFAAAAA48BD
:10A090008000100FFFFFFE00004387E0FFFFFFF589
:10A0A0005555248000080FFFFFFE00002387E0C005
:10A0B000000000000000400000000000010000005F
:10A0C0000000C000000000000020000000000000B0
:10A0D0008000000000C00000000000001000000030
:10A0E0000000004000000000C2000000000000006E
:10A0F0000000004000000000000000C1000000005F
:10A100000000000000002000000000000000C080EF
:10A11000000000000000000000100000000000002F
:10A1200000C0000000000000080000000000002047
:10A1300000000000C000000000000004000000005B
:10A1400000001000000000FFFFFFFAAAA8908200A4
:10A15000000FFFFFFE08000387E0C00000000000C2
:10A1600000010000000000000400000000C000002A
:10A17000000000000080000000000002000000005D
:10A18000FFFFFFF555564B8040000FFFFFFE01001B
:10A190000387E0FFFFFFFAAAA9278020000FFFFF37
:10A1A000FE00800387E0C0000000000000001000F7
:10A1B000000000000040000000C00000000000009F
:10A1C000000800000000000020000000C0000000A7
:10A1D000000000000400000000000010000000C0AB
:10A1E0000000000000000002000000000000080065
:10A1F0000000C0000000000000000100000000009E
:10A200000004000000C0000000000000000080000A
:10A210000000000002000000484152444641554CF5
:10A22000543A0A5043203A203078253038580A4CA6
:10A2300052203A203078253038580A5053523A206C
:10A240003078253038580A5230203A20307825307E
:10A2500038580A5231203A203078253038580A527E
:10A2600032203A203078253038580A5033203A20AE
:10A270003078253038580A5231323A20307825303B
:10A2800038580A0094A20202285500201402000047
:04A29000C69D020263
:04000005020280096A
:00000001FF
