:020000040002F8
:10400000102700201D400200DFF80CD000F012F84D
:1040100000480047254002001027002002B5034851
:10402000004700000248804702BD00003540020002
:104030000D4A0200064C074D06E0E06840F001031F
:1040400094E8070098471034AC42F6D3FFF7E0FF3E
:10405000006502002065020010B5431A934209D2A0
:104060008318881803E010F8011D03F8011D521E83
:10407000F9D210BD40EA01039B0703D009E008C94B
:10408000121F08C0042AFAD203E011F8013B00F81D
:10409000013B521EF9D210BDD2B201E000F8012B53
:1040A000491EFBD270470022F6E710B513460A46B8
:1040B00004461946FFF7F0FF204610BD2DE9FE4FDC
:1040C000804681EA0300C00F0C46009021F00041B9
:1040D00023F00045B8EB0200A94105D24046214635
:1040E00090461C460B46024623F00040104347D042
:1040F000270DC7F30A00C3F30A510290401A01903A
:1041000040286BDAC3F3130040F4801B00989246FA
:1041100020B10023D2EB030A63EB0B0B0198594645
:10412000C0F14002504600F0A8F906460D46504640
:104130005946019A00F0C0F910EB080061410024D3
:1041400087EA115284EAE7731A4340D0009A62B3B7
:10415000019A012A4FEA075215DC001B61EB0201AC
:104160004FF0004202EA0752CDE90042001C41F53F
:10417000801132462B4600F0C0F903B0BDE8F08F45
:1041800040462146F9E7001B61EB0201001C41F5A6
:10419000801300185B412018A2F5001747EB0301BC
:1041A00040EAD570B6196D4111E06D084FEA360648
:1041B00045EAC0754FEA0752001B61EB0201001C83
:1041C00041F5801149084FEA30000019514132464B
:1041D0002B4603B0BDE8F04F00F080B900980122F3
:1041E00040000023D0EB020263EBE073009821460D
:1041F0004FEAE074B8EB000061EB0401E9E783F0FB
:1042000000435BE781F0004158E72DE9FE4F81EA6A
:10421000030404F0004421F0004100944FF0000B2F
:1042200023F0004350EA01045ED052EA03045BD05D
:10423000C3F30A54C1F30A552C44A4F2F334019495
:10424000A0FB0254C1F3130141F48011C3F3130323
:1042500043F4801301FB024400FB034E840A970AD7
:1042600044EA815447EA8357A4FB076802958D0A04
:1042700005FB07854FEA932C04FB0C542705029D90
:104280004FEA065847EA1637B5EB08056EEB070C00
:10429000870E920E47EA811742EA8312A7FB0201BA
:1042A000B6EB0B0164EB00042B0D43EA0C335E18F4
:1042B00044EB1C50DA465146E7FB0201C5F31304F8
:1042C0004FEA0B3343EA14534FEA0432019C43EAAA
:1042D0000603A4F10C040294009CCDE900B400F0A4
:1042E0000CF903B0BDE8F08F00200146F9E72DE995
:1042F000F04D81EA030404F0004B21F00045144620
:104300004FF0000A23F0004150EA050220D054EAA1
:1043100001021DD0C5F30A570246C5F31303C1F3CA
:104320001300C1F30A5640F4801543F48013A7EB41
:104330000608101BD64608F2FD3873EB050002D3C1
:1043400008F1010801E092185B41B8F1000F03DAAF
:1043500000200146BDE8F08D00204FF48011064694
:1043600084460EE0171B73EB050705D3121B63EBA6
:10437000050306434CEA010C49084FEA3000921845
:104380005B4150EA0107EDD152EA030012D082EA04
:10439000040083EA0501084305D0101BAB4106D297
:1043A0000122002306E000224FF0004302E06FF0FC
:1043B000010253101AEB06004CEB085110EB0A00F7
:1043C00041EB0B01BDE8F04D00F088B80EB5C10F10
:1043D00080EAE0700844CA07002140F233438DE8C8
:1043E0000E000A460B4600F088F803B000BD0EB57B
:1043F00040F2334102910021CDE900110A460B46FB
:1044000000F07BF803B000BD3EB5CA17CB0F002407
:1044100050405140C0186141DA0740F233430094E4
:10442000CDE901232246234600F067F803B030BDF2
:1044300070B5C1F30A5201F000450024C1F3130125
:1044400040F2FF3341F480119A4202DA0020014623
:1044500070BD40F233439A42A2F2334203DC52422F
:1044600000F01AF801E000F008F82C43F0D0002327
:10447000D0EB030063EB010170BD202A04DB203A7E
:1044800000FA02F1002070479140C2F1200320FAA7
:1044900003F3194390407047202A04DB203A21FAA5
:1044A00002F00021704721FA02F3D040C2F120024D
:1044B0009140084319467047202A06DBCB17203A63
:1044C00041FA02F043EAE07306E041FA02F3D04019
:1044D000C2F12002914008431946704710B5141EDE
:1044E00073F1000408DA401C41F1000192185B41AD
:1044F0001A4301D120F0010010BD2DE9F04D924684
:104500009B4611B1B1FA81F202E0B0FA80F220329A
:104510009046FFF7B2FF04460F4640EA0A0041EA20
:104520000B0153465A46084313D0114653EA010083
:1045300019D0C8F140025046FFF7AEFF05460E46BF
:10454000504659464246FFF798FF084305D00120E0
:1045500004E020463946BDE8F08D0020054346EAD8
:10456000E0762C4337430A986305E40AA0EB080081
:104570000022FD0A44EA47540A3002D500200146D1
:10458000E9E7010510196941DDE9084500196941AC
:10459000BDE8F04DA2E700002DE9F041054621F00D
:1045A00000400C46284309D0C4F30A5040F233417E
:1045B000884205DD28462146BDE8F0812846FBE714
:1045C00040F2FE31884210DC0CDB4FEA043040EA56
:1045D000155050EA053105D0104804F00041014360
:1045E0000020E9E700200146E6E7A0F2334046421A
:1045F000C6F1400228462146FFF73FFF074688469E
:10460000284621463246FFF747FF43463A46FFF722
:1046100065FF3246BDE8F041FFF72FBF0000F03FD5
:1046200030B5041E71F1000404DB4FF00044404239
:1046300064EB0101141E73F1000405DB1C464FF00E
:104640000043524263EB04038B4208BF824230BDF9
:1046500030B5041E71F1000404DB4FF00044404209
:1046600064EB0101141E73F1000405DB1C464FF0DE
:104670000043524263EB0403994208BF904230BDAD
:1046800083B002908DF807108DF806209DF8071072
:1046900001208840009002980068009988439DF8A6
:1046A00006109DF80720914008430299086003B066
:1046B0007047000080B582B08DF807008DF80610B5
:1046C0009DF80600032819D0FFE79DF807109DF814
:1046D0000620002A18BF01222020C4F20000FFF7A4
:1046E000CFFF9DF807109DF806000138B0FA80F062
:1046F00042094FF04020FFF7C3FF0FE09DF807107D
:104700002020C4F200000022FFF7BAFF9DF8071036
:104710004FF040200122FFF7B3FFFFE702B080BD5A
:1047200084B003908DF80B108DF80A2003980021B7
:10473000C4F20701084401909DF80B103F20884007
:10474000009001980068009988439DF80A109DF830
:104750000B20914008430199086004B070470000A5
:1047600080B582B08DF807008DF806109DF807100F
:10477000002918BF12219DF806205420FFF7D0FF12
:1047800002B080BD83B08DF80B008DF80A109DF843
:104790000B107C2000EA51004421C4F207010844B8
:1047A00001909DF80B0000F0070080008DF80300D9
:1047B000019800689DF803200F21914088439DF8DF
:1047C0000A10914008430199086003B07047000047
:1047D00081B00090009A0421C4F2070108681043D8
:1047E000086001B07047000081B0009000998868AF
:1047F00020F00100886001B07047000081B0009097
:104800000099886840F00100886001B0704700009E
:1048100081B000900099886840F04000886001B045
:104820007047000081B000900099886840F0100047
:10483000886001B07047000081B0009000998868DE
:1048400040F00200886001B07047000082B0019023
:10485000009100980199486002B0704782B00190C1
:104860008DF803100198806820F008009DF803106F
:1048700040EA81000199886002B0704782B00190DF
:104880008DF803109DF803000199086002B070478D
:1048900082B08DF8070000919DF9070000280AD426
:1048A000FFE7009840019DF907104EF20042CEF25A
:1048B000000288540BE0009840019DF8071001F0B9
:1048C0000F014EF61452CEF200028854FFE702B0F8
:1048D0007047000086B00590049103920498C000D0
:1048E0000399B0FBF1F002900298C0090190019980
:1048F0000298A0EBC110029002980130400800908D
:10490000019805994862BDF8060018B9FFE70198BB
:1049100010B9FFE7FFE7FEE701984FF6FF71884205
:1049200004D1FFE705990020886207E00199029809
:10493000401A0290009805998862FFE70598C06ABE
:104940000599C86206B0704781B0009000988069F0
:10495000C0F3001001B0704781B0009000988069EA
:10496000C0F3401001B0704781B000900098C06B58
:1049700001B0704780B584B0039002910192039911
:104980000020086303994864039988630399486089
:1049900003994862039988620399C8620398029A4E
:1049A000D1681269FFF796FF029890F800C041782D
:1049B0008378C278802000EA411040EA4C1040EA37
:1049C000031040EAC20001F0030140EA41000399EC
:1049D000C8620298B0F80900000400BA039948635D
:1049E0000198039988630299087991F805C08B7939
:1049F000CA79400240EA0C20184440EAC230097AE1
:104A000040EA81300399086304B080BD80B582B06C
:104A100045F66101C0F20201012000220192F9F77E
:104A200015F8019A44F61171C0F202010420F9F759
:104A30000DF8019A44F6F161C0F202010520F9F780
:104A400005F8019A44F66971C0F202010720F8F7EF
:104A5000FDFF019A45F26161C0F202010220F8F700
:104A6000F5FF019A45F2A161C0F202010320F8F7B7
:104A7000EDFF019A44F68571C0F202011046F8F785
:104A8000E5FF00F0AFFE00F003FE02B080BD0000C5
:104A900081B000900098808801B0704780B584B0E4
:104AA00084460698ADF80CC0ADF80A10ADF80820A1
:104AB0000193ADF80200BDF80A00082813D1FFE702
:104AC000019860B1FFE742F20010C2F200000068F6
:104AD00001990860BDF80200ADF80E0007E004205F
:104AE000ADF80E0003E00020ADF80E00FFE7BDF8C2
:104AF0000E0004B080BD000080B586B084460998E1
:104B0000DDF820E0ADF812C0ADF81010ADF80E20C1
:104B1000ADF80C30ADF80A00BDF810000146019167
:104B2000082804D0FFE701980B2811D026E0BDF833
:104B30000A2042F20011C2F2000108681044086025
:104B40000898BDF80A1000F01FF80020059018E042
:104B500008980088012807D1FFE741F6F971C2F2F1
:104B600000010120087006E041F6F971C2F200016F
:104B700000200870FFE70020059002E0002005906B
:104B8000FFE7059806B080BD80B588B00790ADF806
:104B90001A1007980590079801784278837846F2B2
:104BA0000340C0F20200F8F713FF05980078A03820
:104BB0000146009103283ED80099DFE801F0022A5F
:104BC0001033079804900498D0F8010041F2F07176
:104BD000C2F20001C1F8FD0700F0BEFC2CE007980E
:104BE000039041F6F970C2F20000007880B1FFE74F
:104BF0000399D1F80100D1F8052041F23271C2F2D7
:104C00000001C1F80520C1F8010000F0C7F8FFE776
:104C100012E0079802900299C81CB1F8011001F047
:104C20002BF909E0079801900199C81CB1F801100F
:104C300001F022F900E0FFE708B080BD80B588B040
:104C40000790069141F2D070C2F200000088E1F7AF
:104C50006FFA0338059041F6F970C2F2000000784F
:104C600008B9FFE748E00798049004980178427873
:104C70008378C078DDF818E0EC46CCF804E0CCF896
:104C8000000046F24840C0F20200F8F7A1FEFFE73C
:104C9000069888B3FFE706980599884203DDFFE789
:104CA0000598029002E006980290FFE702980390B0
:104CB00041F2D070C2F200000088049ABDF80C30B6
:104CC0000A21E1F7D1FA70B1FFE746F21940C0F2CC
:104CD0000200F8F77DFE41F2D070C2F200000088B9
:104CE000E1F754FB08E003990698401A06900399EF
:104CF000049808440490CBE708B080BD80B584B028
:104D00000390ADF80A1041F24860C2F20000019031
:104D1000A1210170BDF80A10A0F801100399BDF897
:104D20000A200330FFF798F90199B1F80100033028
:104D300082B20820E1F7E4FD04B080BD80B584B004
:104D40000390ADF80A1041F24860C2F200000190F1
:104D5000A3210170BDF80A10A0F801100399BDF855
:104D60000A200330FFF778F90198C178027946F2FA
:104D7000F930C0F20200F8F72BFE0199B1F80100FA
:104D8000033082B20820E1F7BBFD04B080BD000013
:104D900081B000900098807801B0704710B594B051
:104DA000002013901290119010900B900A9009908F
:104DB00041F2F071C2F20001086949690843002814
:104DC00000F09380FFE741F23270C2F20000D0F8A9
:104DD0000110D0F8050041F2F072C2F20002069212
:104DE000D2F810C05369B1EB0C01984112911390A5
:104DF000129913989368D268C91A90411091119032
:104E000012981399FFF700FB0F910E9010981199CB
:104E1000FFF7FAFA069B0D910C900C980D99D3F8B8
:104E20000128D3F80538FFF7F0F9002248F2804353
:104E3000C4F22E13FFF75BFA0D910C900C9A0D9BA8
:104E40000E980F99FFF73AF90F910E900E980F995F
:104E500001F09EF9FFF7ECFA0B910A9072B60A98EE
:104E600008900B980790F8F78BFD034607980A46C1
:104E70000899C91A904140F2E932891A70F100008C
:104E800011D3FFE70A980490F8F77AFD02460498D8
:104E900005920599401A0990099800EB4000C0005E
:104EA00000F0DEFDFFE762B641F23270C2F20000B0
:104EB000D0F80120D0F805300A98DDF82CC041F276
:104EC000F071C2F20001D1F801E8D1F80548694655
:104ED000CC60C1F808E0C1F804C0086046F2D340D5
:104EE000C0F20200F8F774FDFFE714B010BD000037
:104EF00080B582B00190009101980168426846F245
:104F0000D230C0F20200F8F763FDFFE7FEE70000D1
:104F100070B588B007900691DDF81CC0CDF814C0BC
:104F2000DCF81810DCF81420DCF81C30DCF8000089
:104F3000DCF804E0DCF80840DCF80C50DCF8106029
:104F4000EC46CCF81060CCF80C50CCF80840CCF80B
:104F500004E0CCF8000046F25A30C0F20200F8F744
:104F600037FDFFE7FEE7000080B582B001900091B9
:104F7000019946F2C630C0F20200F8F729FDFFE7BA
:104F8000FEE7000080B582B001900091FFE70020AD
:104F9000C4F20200FFF7E0FC012801D1FFE7F6E7C9
:104FA000019801780020C4F20200FFF767FC00209E
:104FB00002B080BD80B588B04FF48060FFF708FC78
:104FC0000420009000210291FFF7DCFB00990120F2
:104FD0000190FFF7C5FB05200A21FFF7D3FB0198DD
:104FE000029903228DF80C208DF80D108DF80E001B
:104FF0008DF80F108DF810008DF811008DF812004B
:105000008DF813108DF814108DF815008DF816001A
:1050100043F20060C0F26E1006904FF461200790DA
:1050200041F20000C4F2020003A91022FFF7A2FC23
:10503000029A45F6A941C0F202010820F8F710FDD6
:1050400008B080BD80B588B00790069103208DF828
:10505000040000228DF8052001208DF806008DF84F
:1050600007208DF808008DF809008DF80A008DF8EA
:105070000B208DF80C208DF80D008DF80E00079890
:105080000490069805900020C4F2020001A9FFF7E1
:1050900071FC08B080BD000080B588B00790069113
:1050A0000020039002900590FFE70598069988423A
:1050B00012D2FFE70799059A01EBC20051F832209E
:1050C000436802980399FEF7F9FF03910290FFE706
:1050D000059801300590E8E7029800900398019048
:1050E0000698FFF784F9024600980B460199FFF7EE
:1050F000FEF808B080BD000041F2CC71C2F20001A0
:10510000086801300860704781B0009001B07047B6
:1051100081B00090002001B07047000072B641F2EB
:10512000E471C2F2000108680130086070470000B5
:1051300081B000900098B0F8030001B07047000003
:1051400081B000900098807801B0704781B00090E5
:105150000098007801B0704781B00090009804304A
:1051600001B0704780B582B0ADF80600BDF806000A
:105170004000ADF80400BDF80400152809DBFFE786
:10518000BDF804000F3882B200201146E7F7E2FDB7
:10519000FFE702B080BD00007047000070B590B01E
:1051A0009E4694460D46044617991698159B149AE8
:1051B0000F950E94CDF834E0CDF830C00B930A92E1
:1051C00009910890002007900690059004900A9B92
:1051D0000B990E9A0F98D21A884154D2FFE7089B78
:1051E00009990C9A0D98D21A88414CD2FFE7089978
:1051F00009980C9B0D9AC91A9041DDF828E0DDF85A
:105200002CC00E9B0F9AB3EB0E0362EB0C02C91875
:105210005041069107900699079844F24022C0F247
:105220000F02A1FB021300FB0230069107900A99BE
:105230000B980E9B0F9AC91A9041049105900698FD
:105240000799FFF7E1F80391029004980599FFF799
:10525000DBF80191009002980399009A019BFFF7F7
:1052600046F800F0DBF80A4641F2F071C2F20001A4
:10527000C1F80528C1F801080498059AC1F844232B
:10528000C1F84003FFE710B070BD000070B588B0F2
:10529000FF2007900020069041F2F070C2F200005B
:1052A000D0F8F91700F2493007AA06AB00F028FB46
:1052B00006980A2864D3FFE741F2F071C2F20001B8
:1052C0008868C9680843002840D0FFE741F2F071C0
:1052D000C2F20001086849680843B8B3FFE741F229
:1052E000F07CC2F2000CCDF814C0DCF80000DCF851
:1052F0000410DCF80820DCF80C30DDF81CE00EEBC4
:105300004E040CF2493CCDF810C00CEBC40E5CF816
:1053100034C0DEF80440DEF80850DEF80C60EE46DB
:10532000CEF80C60CEF80850CEF80440CEF800C09D
:10533000FFF734FF04980599079A02EB420200EB4D
:10534000C202106952694A610861FFE7079800EBE1
:10535000400241F2F071C2F2000101F2493000EB6B
:10536000C2039A68DB68CB608A60079A02EB42034B
:1053700000EBC30250F8330052684A600860FFE750
:1053800008B070BD86B0059104900393029241F27B
:10539000F070C2F2000000F2F9700190019800680C
:1053A000312830D8FFE7049B059801990A6841F23B
:1053B000F071C2F2000101F2493102EB420C01EB43
:1053C000CC0241F83C3050600298039B019A12686D
:1053D00002EB420201EBC202D36090600498059A8E
:1053E000DDF808C0039BB0EB0C009A41019B1B68E1
:1053F00003EB430301EBC3014A61086101990868AB
:105400000130086007E041F2F071C2F200010020B3
:1054100081F84803FFE706B07047000080B584B00C
:10542000039102900299039B41F2E870C2F20000DE
:10543000D0F800C00CF10102026041F23272C2F2F7
:10544000000202EBCC02C2F84D30C2F849100068ED
:105450000A280DD1FFE741F2E871C2F200010020F5
:10546000086041F2EC71C2F2000101200860FFE720
:1054700041F2EC70C2F20000006818B1FFE70A20A8
:10548000019006E041F2E870C2F20000006801906D
:10549000FFE7019941F23270C2F200004930FFF794
:1054A000FBFD04B080BD000080B582B045F275619F
:1054B000C0F2020100221046E7F732FD014641F634
:1054C000FC70C2F20000016000686A4645F2555166
:1054D000C0F2550151604BF6D661C8F68961116082
:1054E00003210F220123E7F7CBFF02B080BD0000AC
:1054F00080B584B003900020029041F6FC70C2F2A7
:10550000000000680190F8F73BFA0246019812F596
:10551000FA7241F100030399EC46CCF80010E7F76A
:105520003BFE0290029830B1FFE7072000221146AF
:10553000E1F7E6F9FFE7029804B080BD80B500F01E
:105540004BFA00F085FA41F2F070C2F2000040F62A
:105550000901FEF7A8FD80BD80B582B041F2F07070
:10556000C2F2000000210191C0F83C13C0F8F91705
:10557000012180F84813D0F8FD0745F6C051484393
:1055800000F032FA019A72B607201146E1F7B8F935
:1055900002B080BD80B58EB00D900D986A4604A90A
:1055A000516005A9116042F20003C2F200030AA98A
:1055B0000DF12702E7F796FDB8B9FFE742F20000C8
:1055C000C2F200000390039800788DF8260003993A
:1055D000D1F80100D1F805100791069006980799B7
:1055E0000A9A0B9BFFF7CEFE00E0FFE707200022A0
:1055F0001146E1F785F90EB080BD000080B562B6B6
:1056000041F2F070C2F20000002280F848230C2022
:105610001146E1F775F980BD41F2E470C2F2000075
:105620000168013901600068002802DCFFE762B60A
:10563000FFE7704780B54EF21001CEF20001012065
:10564000086062B6F8F7A6F941F2DC70C2F2000019
:10565000016841F2E070C2F200000068884780BD36
:1056600080B582B00190009100F0BCF8002002B03B
:1056700080BD000080B582B00190009141F6FC70C1
:10568000C2F200000068FFF785FF02B080BD000095
:1056900046F24020C0F20200704700007047000050
:1056A00082B001900091002002B0704780B584B0B4
:1056B000039002910398029948430C3000F032FDA8
:1056C0000190019900208860039801990860029870
:1056D00001994860019804B080BD000080B584B095
:1056E00002900191F8F724F90298009000988068E0
:1056F000002806DCFFE7FFF74FFD4FF0FF30039077
:1057000016E00198009A02F10C015268FEF7A4FC21
:105710000099886801388860009901F10C004A6896
:105720008B6881185A43FEF797FC00200390FFE72F
:10573000039804B080BD000080B584B00290019150
:1057400002980090009801688068884204DBFFE7B7
:105750004FF0FF3003900FE000994A68886800FB23
:1057600002100C300199FEF777FC0099886801302F
:10577000886000200390FFE7039804B080BD00001C
:1057800080B58EB06A4600200C9090625062012174
:105790000D911162D061916150611061D060906093
:1057A0005160072111601321A1231A46E2F73EF947
:1057B0000C9846F22422C0F202021521E2F7ECF81E
:1057C0000D990C9846F24C32C0F20202E2F7FEF953
:1057D0000D9946F23A22C0F202020846E2F7E8F8D2
:1057E0000EB080BD80B584B000200190FEF7F0FFC0
:1057F00043F20060C0F26E104FF4E131FFF722FC7B
:1058000000F002F900F046F9019A45F63521C0F2A0
:1058100002010220F8F724F9019A45F6C121C0F2ED
:1058200002010320F8F71CF94FF48420FEF7D0FFA3
:10583000019906200290FEF7A5FF0298012103912D
:10584000FEF738FFFFF7B6FB02980399FFF720F841
:1058500046F24D30C0F20200F8F7BAF804B080BD4D
:1058600080B584B00390029146F26540C0F2020018
:10587000F8F7AEF8FFF718FE44F69D20C0F20200DC
:1058800044F6F921C0F20201E0F7D0FC41F2D470F5
:10589000C2F2000045F62171C0F20201019141609F
:1058A000E4F738FD0198E0F76BFD002004B080BDFF
:1058B0007047000085B084460598CDF810C003916C
:1058C000029201938DF803009DF8030068B9FFE789
:1058D000039841F2DC71C2F200010860029841F2C3
:1058E000E071C2F200010860FFE741F2CC71C2F240
:1058F000000108680130086005B07047704700007B
:1059000080B596B015901491139212930DF10E007C
:10591000019032210291FEF7C6FB01980299FEF731
:10592000C2FB00201190FFE71198149988422DD2F4
:10593000FFE700201090FFE710981199884220D2CD
:10594000FFE7159A119800EB400002EBC0010869CF
:105950004969109B03EB430302EBC3031A695B69BC
:1059600059405040084338B9FFE7109A0DF10E0135
:10597000885C0130885404E0FFE7109801301090F3
:10598000DAE7FFE7119801301190CDE70020119080
:105990001090FFE711981499884211D2FFE71198EF
:1059A0000DF10E01085C109A895C884203DDFFE767
:1059B00011981090FFE7FFE7119801301190E9E787
:1059C00010981399086010990DF10E00405C12991F
:1059D000086016B080BD000080B542F20000C4F23D
:1059E0000000FEF701FF80BD80B582B001900199F3
:1059F00042F20000C4F200000090FEF727FF00987A
:105A0000FEF7FCFE02B080BD80B582B08020FEF7BC
:105A1000DFFE42F20000C4F2000001900121FEF717
:105A20001DFF0198FEF708FF0198FEF7FBFE02B08C
:105A300080BD000080B582B00190FFF7DFFD42F22B
:105A40000000C4F20000FEF7E3FE002002B080BDBB
:105A500080B543F20000C4F20000FEF7C5FE80BD31
:105A600081B0009043F20801C4F20001086820F000
:105A700001000860086840F002000860009843F2E6
:105A80000402C4F200021060086840F001000860DF
:105A900001B0704780B582B04FF48070FEF798FE79
:105AA00043F20000C4F2000001900121FEF7D6FE8F
:105AB0000198FEF7C1FE0198FEF7B4FE02B080BD6A
:105AC00080B582B0019041F24060C2F20000012135
:105AD00000F0A2F943F20000C4F20000FEF798FEC5
:105AE000002002B080BD000080B582B00190019816
:105AF000002810D4FFE7019807280CDCFFE7019885
:105B000000EB800141F2A050C2F2000000EB8100E6
:105B1000007C08B9FFE70CE0019800EB800141F23E
:105B2000A050C2F2000000EB810041688068884705
:105B3000FFE702B080BD000080B50020FFF7D4FF72
:105B400080BD000080B50120FFF7CEFF80BD0000C2
:105B500080B50220FFF7C8FF80BD000080B503209C
:105B6000FFF7C2FF80BD000080B50420FFF7BCFF37
:105B700080BD000080B50520FFF7B6FF80BD0000A6
:105B800080B50620FFF7B0FF80BD000080B507207C
:105B9000FFF7AAFF80BD000080B586B00490039196
:105BA000029200200190FFE70198072812DCFFE72E
:105BB000019800EB800141F2A050C2F2000000EB1E
:105BC0008100007C08B9FFE704E0FFE7019801309D
:105BD0000190E9E7019808280ADBFFE746F2C74091
:105BE000C0F202005B21F7F7FDFE0020059030E0D7
:105BF0000299019800EB800241F2A050C2F200002D
:105C000000EB820251600399019A02EB820200EBE1
:105C100082029160049A02EB52014CF6CD43CCF61D
:105C2000CC43A2FB033201EBD201019A02EB8202C8
:105C300000EB8202D160019901EB810100EB81024E
:105C400001211174019901EB810100EB81000590A4
:105C5000FFE7059806B080BD80B584B00390039837
:105C600002900298006800210191F7F727FF019840
:105C70000299087404B080BD80B582B0019001988B
:105C8000009000990868C968F7F718FF02B080BD56
:105C900080B582B0019001980090009800680021C2
:105CA000F7F70CFF02B080BD80B582B00190FFE72E
:105CB00041F20000C4F20200FEF756FE0090009888
:105CC00008B9FFE716E0009841F24401C4F202016E
:105CD00008609DF80000C006002803D5FFE700F02B
:105CE0000DF8FFE79DF800008006002801D5FFE7CA
:105CF000FFE7DDE7002002B080BD000080B584B082
:105D000042F20610C2F200000390FFE741F20000E9
:105D1000C4F20200FEF718FE012815D0FFE741F299
:105D20000000C4F2020000688DF80B009DF80B0023
:105D3000039942F2041CC2F2000CBCF80020531C70
:105D4000ACF800308854E1E742F20410C2F20000DF
:105D5000008802285EDBFFE742F20410C2F2000076
:105D6000008842F20611C2F20001497802318842ED
:105D700050D1FFE7039801784278837846F2E73004
:105D8000C0F20200F7F724FE42F20610C2F2000051
:105D900000780146019102281CD0FFE701980528F0
:105DA00030D1FFE742F20410C2F20000008803285D
:105DB0000FDBFFE742F20410C2F200000088811EF0
:105DC00042F20610C2F20000023089B2FEF7B6FFBE
:105DD000FFE718E042F20410C2F200000088032836
:105DE0000FDBFFE742F20410C2F200000088811EC0
:105DF00042F20610C2F20000023089B2FEF77EFFC6
:105E0000FFE700E0FFE742F20411C2F200010020C8
:105E10000880FFE704B080BD80B582B00190ADF886
:105E200002100020ADF80000FFE7BDF80000BDF84B
:105E3000021088421CDAFFE7FFE741F20000C4F2DB
:105E40000200FEF789FD012801D1FFE7F5E701987F
:105E5000BDF80010415C41F20000C4F20200FEF700
:105E60000DFDFFE7BDF800000130ADF80000DCE7F4
:105E7000002002B080BD000080B582B00190ADF876
:105E8000021042F20820C2F20000022101709DF8C7
:105E9000021041700199BDF802200230FEF7DCF8D3
:105EA0000E2000221146E0F72BFD02B080BD00005D
:105EB00080B584B003900291ADF8062003980738AE
:105EC00001460091072827D80099DFE801F0041364
:105ED00025252519251C41F2F070C2F2000090F82A
:105EE0004803C00728B1FFE74FF4FA60FFF700FB53
:105EF000FFE712E00298BDF80610FEF79FFE0CE0E7
:105F0000FFF7C4F909E042F20820C2F2000041782C
:105F10000230FFF781FF00E0FFE704B080BD000022
:105F200080B58AB08DF82700ADF824100892ADF83E
:105F30001E300898FFF70AF98DF81D009DF827001C
:105F4000042801D0FFE7B4E09DF81D00014603914D
:105F5000052879D0FFE703980E2828D0FFE703989B
:105F60003E2829D0FFE7039860280FD0FFE7039869
:105F7000B52800F08080FFE70398B72800F08680FE
:105F8000FFE70398FF2800F0888091E00898FEF76B
:105F9000FFFE022801D0FFE78BE046F24631C0F257
:105FA00002010020E1F7ACFCFFF7EAFB81E0089872
:105FB000FFF7BEF8FFE77CE00898FFF7C1F801465D
:105FC000029103281ED0FFE702980A283AD1FFE782
:105FD0000898033005900598B0F8010041F2D0719F
:105FE000C2F20001019108800598B0F81700FFF790
:105FF000B9F80198008846F28C21C0F20201E0F75E
:10600000D3F920E00898033004900498B0F8011008
:106010000091B0F80300FEF7D9F900220023C3F67F
:10602000F473FEF7F2F802460B46009946F274400C
:10603000C0F20200F7F7CCFC0498B0F80300FFF7B9
:1060400091F800E0FFE734E041F6F971C2F2000197
:106050000020087046F23A22C0F2020201210846EE
:10606000E1F7A6FCFFF76AFA46F2B740C0F2020079
:10607000F7F7AEFC1DE00898FEF70AFD014646F270
:106080002D40C0F20200F7F7A3FC12E046F2984060
:10609000C0F20200F7F79CFC0BE00898FFF75CF8F1
:1060A0000690069A106851681289FFF701FF00E018
:1060B000FFE70AB080BD02E008C8121F08C1002A2D
:1060C000FAD170477047002001E001C1121F002A79
:1060D000FBD1704710B5002821D0114B0022001FC2
:1060E000196803E0814203D80A4649680029F9D1BA
:1060F00052B11368841A9C4204D10068184410609D
:10610000104602E0506000E0186039B102680B1AD6
:10611000934203D10B681A4402604968416010BD84
:1061200098150020F0B50B30154D20F00701002424
:10613000144A0FE003688B420BD38B4205D95E1AD9
:1061400043184768C3E9006700E04368136002C072
:1061500004E0021D10680028ECD12046002802D17E
:10616000286808B10020F0BD064A07481060074AB9
:10617000121A22F00702C0E9002401202860D7E7A4
:106180009C150020981500201423002010230020C7
:106190002DE9F04D07460E46FEF7FEF904460D4682
:1061A0003A463346FEF72EF8DFF86CA0DFF86CB005
:1061B0001B4B0746884616F0004F4FF000020AD0EE
:1061C000FEF72EFA0AD900225B4638464146FEF712
:1061D0003FFA1BD212E0FEF723FA08D20022534600
:1061E00020462946FEF70BF804460D460EE0002235
:1061F0005B4638464146FEF72BFA07D80022534645
:1062000020462946FDF75AFF04460D4631462046F2
:1062100065F31E01BDE8F08D0000F03F0000E03F97
:106220000000E0BF020106110968656E67646961DC
:106230006E5F70726F6A656374000000000000009A
:10624000995B0200795C0200915C0200595C0200DB
:10625000B5580200AD56020039570200DD56020063
:10626000F95002001151020009510200256102009B
:10627000D56002001D510200195602003556020079
:10628000FD580200B15802009D5602000A000200AB
:106290000100002800180D0002000200032802037C
:1062A00000002A080002000300002A0D000200047A
:1062B000000328020500012A080002000500012A47
:1062C00018000200060000288514506FFBFDD1B4B1
:1062D0007448D4A14A3145241B000200070003285A
:1062E00006080067FFB3CE64CE35904D419A39F170
:1062F000F383BF16000603080067FFB3CE64CE35F4
:10630000904D419A39F1F383BF1B0002000900034D
:1063100028100A0067FFB3CE64CE35904D419A39FC
:10632000F2F383BF160010020A0067FFB3CE64CEFB
:1063300035904D419A39F2F383BF0A000A010B00F0
:10634000022900000000C3D4179AED0000736574A1
:10635000757020646F6E652E0A00484152444641B4
:10636000554C543A0A5043203A203078253038585A
:106370000A4C52203A203078253038580A5053526F
:106380003A203078253038580A5230203A20307878
:10639000253038580A5231203A2030782530385884
:1063A0000A5232203A203078253038580A503320AB
:1063B0003A203078253038580A5231323A20307835
:1063C000253038580A005B4F4F4D5D204020256432
:1063D0000A005B415353455254494F4E5D204020C3
:1063E00025733A25640A007561727420727820253D
:1063F000782025782025780A0073202578202578B4
:10640000200A007265637620307825782030782560
:10641000782030782578200A00617474206E6F74BB
:10642000696679206572726F7220210A00415454A6
:106430005F4556454E545F4D5455207570646174E8
:1064400065643A2025640A0073656E6420307825FF
:106450007820307825782030782578203078257895
:106460002025640A0073657475702070726F666908
:106470006C650A00434F4E4E20757064617465640C
:106480003A2025642C20696E74657276616C202533
:106490002E3266206D730A006E6565642075736523
:1064A0007220696D706C656D656E746174696F6E74
:1064B0002E2E2E2E2E2E00446973636F6E6E656332
:1064C0007465642E2E2E006E6F6F735F696D706C35
:1064D0002E630053594E4320434D4420284D3A2506
:1064E0006C6C642C20533A256C6C642975732064A1
:1064F000726966743A25302E3266200A0000000068
:106500002065020098150020B0000000B66002006F
:10651000D065020048160020C8100000C6600200C6
:106520000000000000000000395B020000000000D5
:10653000000000000000000000000000455B0200B9
:10654000000000000000000000000000000000004B
:10655000515B02000000000000000000000000008D
:10656000000000005D5B0200000000000000000071
:106570000000000000000000695B02000000000055
:10658000000000000000000000000000755B020039
:1065900000000000000000000000000000000000FB
:1065A000815B02000000000000000000000000000D
:1065B000000000008D5B02000000000000000000F1
:1065C00000000000000000000100000000000000CA
:0400000500024009AC
:00000001FF
