:020000040202F6
:10800000000000001D800202DFF80CD000F01AF81A
:10801000004800472D800202CC58002002B5EFF343
:10802000088181F30988054800470000044880471B
:10803000EFF3098181F3088802BD00004580020248
:1080400011A00202064C074D06E0E06840F0010373
:1080500094E8070098471034AC42F6D3FFF7D8FFF6
:10806000FCB302021CB4020240EA01039B0703D0E6
:1080700009E008C9121F08C0042AFAD203E011F867
:10808000013B00F8013B521EF9D27047034611F83C
:10809000012B00F8012B002AF9D1184670472DE971
:1080A000FE4F804681EA0300C00F0C46009021F08D
:1080B000004123F00045B8EB0200A94105D240463B
:1080C000214690461C460B46024623F000401043D2
:1080D00047D0270DC7F30A00C3F30A510290401A94
:1080E000019040286BDAC3F3130040F4801B009822
:1080F000924620B10023D2EB030A63EB0B0B0198ED
:108100005946C0F14002504600F026F906460D4699
:1081100050465946019A00F02EF910EB08006141D3
:10812000002487EA115284EAE7731A4340D0009A88
:1081300062B3019A012A4FEA075215DC001B61EB7A
:1081400002014FF0004202EA0752CDE90042001C52
:1081500041F5801132462B4600F02EF903B0BDE800
:10816000F08F40462146F9E7001B61EB0201001C3D
:1081700041F5801300185B412018A2F5001747EB6A
:10818000030140EAD570B6196D4111E06D084FEA60
:10819000360645EAC0754FEA0752001B61EB020143
:1081A000001C41F5801149084FEA30000019514187
:1081B00032462B4603B0BDE8F04F00F0EEB8009811
:1081C000012240000023D0EB020263EBE073009831
:1081D00021464FEAE074B8EB000061EB0401E9E7E7
:1081E00083F000435BE781F0004158E72DE9F04D53
:1081F00081EA030404F0004B21F0004514464FF0DF
:10820000000A23F0004150EA050220D054EA01029E
:108210001DD0C5F30A570246C5F31303C1F313007B
:10822000C1F30A5640F4801543F48013A7EB060807
:10823000101BD64608F2FD3873EB050002D308F197
:10824000010801E092185B41B8F1000F03DA002049
:108250000146BDE8F08D00204FF4801106468446AB
:108260000EE0171B73EB050705D3121B63EB050329
:1082700006434CEA010C49084FEA300092185B4172
:1082800050EA0107EDD152EA030012D082EA04005D
:1082900083EA0501084305D0101BAB4106D2012239
:1082A000002306E000224FF0004302E06FF00102DD
:1082B00053101AEB06004CEB085110EB0A0041EB8F
:1082C0000B01BDE8F04D00F068B830B50B46014633
:1082D00000202022012409E021FA02F59D4205D365
:1082E00003FA02F5491B04FA02F52844151EA2F10F
:1082F0000102F1DC30BD2DE9F05F05460020924619
:108300009B4688460646814640241BE02846414657
:108310004746224600F040F953465A46C01A91415A
:1083200010D311461846224600F016F82D1A67EBB6
:1083300001084F4622460120002100F00DF817EBFE
:1083400000094E41201EA4F10104DFDC48463146FD
:108350002A464346BDE8F09F202A04DB203A00FA73
:1083600002F1002070479140C2F1200320FA03F38C
:10837000194390407047202A06DBCB17203A41FA78
:1083800002F043EAE07306E041FA02F3D040C2F1A2
:108390002002914008431946704710B5141E73F12E
:1083A000000408DA401C41F1000192185B411A43B5
:1083B00001D120F0010010BD2DE9F04D92469B4601
:1083C00011B1B1FA81F202E0B0FA80F220329046A7
:1083D000FFF7C2FF04460F4640EA0A0041EA0B01DC
:1083E00053465A46084313D0114653EA010019D0A8
:1083F000C8F14002504600F0CFF805460E46504600
:1084000059464246FFF7A8FF084305D0012004E083
:1084100020463946BDE8F08D0020054346EAE07667
:108420002C4337430A986305E40AA0EB08000022B6
:10843000FD0A44EA47540A3002D500200146E9E724
:10844000010510196941DDE9084500196941BDE8D8
:10845000F04DA2E72DE9FE4F81EA030404F0004449
:1084600021F0004100944FF0000B23F0004350EA4C
:1084700001045ED052EA03045BD0C3F30A54C1F393
:108480000A552C44A4F2F3340194A0FB0254C1F326
:10849000130141F48011C3F3130343F4801301FB70
:1084A000024400FB034E840A970A44EA815447EAD7
:1084B0008357A4FB076802958D0A05FB07854FEAE1
:1084C000932C04FB0C542705029D4FEA065847EAFB
:1084D0001637B5EB08056EEB070C870E920E47EAD0
:1084E000811742EA8312A7FB0201B6EB0B0164EB92
:1084F00000042B0D43EA0C335E1844EB1C50DA46A3
:108500005146E7FB0201C5F313044FEA0B3343EA7C
:1085100014534FEA0432019C43EA0603A4F10C040D
:108520000294009CCDE900B4FFF746FF03B0BDE81C
:10853000F08F00200146F9E7C1F30A52C1F313019D
:1085400040F2FF3341F480119A4202DA00200146E2
:10855000704740F233439A42A2F2334202DC524265
:1085600000F01AB8FFF7F8BE30B5041E71F1000430
:1085700004DB4FF00044404264EB0101141E73F130
:10858000000405DB1C464FF00043524263EB04033A
:10859000994208BF904230BD202A04DB203A21FADC
:1085A00002F00021704721FA02F3D040C2F120020C
:1085B000914008431946704786B0059004919DF894
:1085C0001000C00728B1FFE70599012088400290FC
:1085D00002E000200290FFE7029803909DF810004F
:1085E0008007002807D5FFE7059800F10801012062
:1085F0008840019002E000200190FFE70199039874
:10860000084303909DF810004007002807D5FFE7B6
:10861000059800F1100101208840009002E0002040
:108620000090FFE7009903980843039003984CF2E9
:108630003001C4F20001086006B07047F0B583B0A5
:10864000029001910198006800900199086820F05B
:108650000100086002984CF24001C4F2000101EBF5
:108660004012470101980469456906684368D0F8DB
:1086700008C0D0F80CE0CE5155611461C2F80CE08E
:10868000C2F808C05360806990610098019A106038
:1086900002984201885840F00100885003B0F0BDB4
:1086A00083B002904CF23000C4F2000000680190E8
:1086B00001980299C84000F00100009001980299C9
:1086C0000731C84000F0020100980843009001986B
:1086D00002990E31C84000F0040100980843009050
:1086E000009803B07047000080B58AB084460E98A9
:1086F0000D98DDF830E0CDF824C008918DF81F20EA
:1087000006938DF817009DF81F0000F04DFF0490B0
:108710000698019040B1FFE7019801280AD0FFE7D1
:10872000019802280CD011E045F26400C4F2000068
:1087300003900BE045F27400C4F20000039005E0E2
:1087400045F28400C4F200000390FFE708980C99FA
:10875000084300F0030002900E98049940EA0120BB
:108760009DF8171040EA013040F49500099908601F
:108770000C98C11700EB9170801009994860089817
:108780000999086103980999886000200AB080BDA2
:1087900081B08DF803009DF8030048B1FFE74CF26B
:1087A0002001C4F20001086840F00100086008E000
:1087B0004CF22001C4F20001086820F001000860BA
:1087C000FFE701B070470000B0B590B00F900020F7
:1087D0000A90FFF765FF01460A980D910C900D99DC
:1087E000FFF7EAFE0A980E90FFE70E984F2849D847
:1087F000FFE70E9945F28070C2F20000099000EB8D
:10880000810104310B910E9950F8210004900B99CD
:108810000968C1F34002059201F001020692C1F31A
:10882000C0020792C1F380040C99401A08900620F8
:1088300000F072FD0499059A069BDDF81CE0844661
:1088400008984DF68365C4F21B35ACFB055C4FEA16
:108850009C4CB0FBFCF0EC46CCF80440CCF800E0BB
:10886000CCF808004BF29E30C0F2022001F04EFF1F
:1088700009980E9950F821000C90FFE70E980230ED
:108880000E90B2E7002010B0B0BD000083B002909F
:108890008DF807108DF806209DF8071001208840FC
:1088A000009002980068009988439DF806109DF892
:1088B0000720914008430299086003B07047000008
:1088C00080B586B08DF817008DF816109DF817103A
:1088D00045F20000C4F201001429C4BF46F20000B2
:1088E000C4F2010004909DF81700152805DBFFE78E
:1088F0009DF817001538029003E09DF817000290CC
:10890000FFE7029803909DF81600032817D0FFE7B1
:10891000049828309DF80C109DF81620002A18BFE6
:108920000122FFF7B3FF049834309DF80C109DF836
:108930001620B2FA82F25209FFF7A8FF0FE004985E
:1089400028309DF80C1000220192FFF79FFF019A3A
:10895000049834309DF80C10FFF798FFFFE706B03D
:1089600080BD000084B08DF80F008DF80E109DF8CA
:108970000F1045F20000C4F201001429C4BF46F2F2
:108980000000C4F2010002909DF80F00152805DBDD
:10899000FFE79DF80F001538009003E09DF80F00E9
:1089A0000090FFE7009801909DF80E0048B1FFE7A6
:1089B0000199012000FA01F20299086B1043086343
:1089C00008E00199012000FA01F20299C86A1043F7
:1089D000C862FFE704B0704781B08DF803009DF8CE
:1089E000030045F29001C4F20001086001B0704735
:1089F00081B08DF803008DF802108DF801209DF8EC
:108A000002009DF8011040EA81009DF803100A0160
:108A100045F26001C4F20001885001B070470000C7
:108A200080B586B0DDF820C08DF813000391029266
:108A300001939DF813007F2812D1FFE7029946F2B7
:108A40004000C4F2000000EB81009DF804209DF876
:108A500020304FF0FF3101F053FD0020059024E05D
:108A600003989DF8131001F0DBFC00900098B0F122
:108A7000FF3F03DCFFE70098059016E0029946F2FD
:108A80004000C4F2000000EB810000999DF8042032
:108A90009DF8203001F034FD9DF813009DF80C1076
:108AA00000F01AF800200590FFE7059806B080BD99
:108AB00080B584B003908DF80B109DF80B00039ADD
:108AC00002F18D0102EB82026B461A600A22052335
:108AD000FFF7A6FF04B080BD80B584B08DF80B0011
:108AE0008DF80A109DF80B009DF80A1001F0AAFD00
:108AF00001900198B0F1FF3F03DCFFE7019803907C
:108B0000BAE09DF80B00112812DCFFE79DF80B205E
:108B100046F20000C4F20000104320F00300019967
:108B200002F00302C2EBC203072201F0E9FCA0E05D
:108B30009DF80B00142810DCFFE701999DF80B202D
:108B40006FF0150000EB4200C3B246F21000C4F211
:108B50000000022201F0D4FC8AE09DF80B001528E9
:108B60000AD1FFE7019946F21000C4F20000072283
:108B7000142301F0C5FC7AE09DF80B0016280AD1F9
:108B8000FFE7019946F21400C4F200000722002317
:108B900001F0B6FC6AE09DF80B001E2810DCFFE730
:108BA00001999DF80B206FF0260000EB4200C3B244
:108BB00046F21400C4F20000022201F0A1FC54E0CD
:108BC0009DF80B001F280AD1FFE7019946F2140017
:108BD000C4F200000722172301F092FC44E09DF844
:108BE0000B0020280AD1FFE7019946F21400C4F2D5
:108BF000000002221E2301F083FC34E09DF80B00EC
:108C000021280AD1FFE7019946F21800C4F20000BA
:108C10000222002301F074FC24E09DF80B002328BD
:108C20000FDCFFE701999DF80B00C0EBC000EC38AA
:108C3000C3B246F21800C4F20000072201F060FC43
:108C40000FE001999DF80B206FF0370000EB420018
:108C5000C3B246F21800C4F20000022201F050FC38
:108C6000FFE7FFE7FFE7FFE7FFE7FFE7FFE7FFE7D4
:108C7000FFE700200390FFE7039804B080BD0000E9
:108C800082B08DF807008DF806108DF805209DF84C
:108C90000700400145F20001C4F20001085820F02D
:108CA000F87000909DF80530009840F48012002B79
:108CB00018BF104600909DF8060000F007020098CB
:108CC00040EA4250009000989DF8072052018850D9
:108CD00002B0704780B582B08DF807008DF806109D
:108CE0009DF807009DF8061001F001036A46012176
:108CF00011600021062200F017F802B080BD0000CC
:108D000080B582B08DF807008DF806109DF8070039
:108D10009DF806306A46032111600021072200F009
:108D200003F802B080BD000080B585B08446079886
:108D30008DF813C003918DF80B208DF80A308DF853
:108D400009009DF81310039800EB411045F2000153
:108D5000C4F20001084401909DF8091001208840E8
:108D600001389DF80B108840009001980068009928
:108D700088439DF80A109DF80B2091400843019903
:108D8000086005B080BD000080B582B001900198F8
:108D900000EB400145F23050C2F2000000EBC10090
:108DA000183001F05DF802B080BD000080B501F020
:108DB00009F880BD80B586B0059004910392FFE765
:108DC00045F23050C2F20000007818B9FFE700F019
:108DD000F9FFFFE7FFE7EFF311804FF0200181F388
:108DE0001188019005980499039A00F007F8029001
:108DF000019880F31188029806B080BD80B58AB0D2
:108E000009900891079208980490099800EB400196
:108E100045F23050C2F2000000EBC1001830039060
:108E200003984069029040B1FFE70298012819D0E9
:108E3000FFE7029802282CD032E0039801F010F8E6
:108E4000059005980799884203D2FFE70020069015
:108E500007E00798069003980499079A01F090F8A4
:108E6000FFE720E0039800F0FBFF059005980799C5
:108E7000884203D2FFE70598019002E0079801902D
:108E8000FFE70198069003980499069A01F078F894
:108E900009E003980499079A01F002F8069002E0AD
:108EA00000200690FFE706980AB080BD80B582B02A
:108EB0008DF807009DF80700012100F025F802B0A9
:108EC00080BD000080B582B0019000208DF80300C5
:108ED000FFE79DF80300182813DCFFE701989DF8D1
:108EE0000310C840C00728B1FFE79DF80300FFF753
:108EF000DDFFFFE7FFE79DF8030001308DF8030079
:108F0000E7E702B080BD000080B586B08DF817009D
:108F10008DF816109DF8170001460491182800F2EC
:108F2000AB810499DFE811F019002A003B004C00E6
:108F30005D006E007F009000A100B200CA00E30057
:108F4000F400050116012701380149015A016301A6
:108F50006C0175017E018F019F019DF816100C2098
:108F6000C4F20000152201F0B1FA9DF81610142089
:108F7000C4F20000122201F0A9FA7EE19DF8161059
:108F80000C20C4F20000162201F0A0FA9DF8161081
:108F90001420C4F20000122201F098FA6DE19DF84D
:108FA00016100C20C4F20000022201F08FFA9DF886
:108FB00016101420C4F20000002201F087FA5CE1D0
:108FC0009DF816100C20C4F20000032201F07EFA76
:108FD0009DF816101420C4F20000012201F076FA68
:108FE0004BE19DF816100C20C4F20000042201F0A1
:108FF0006DFA9DF816101420C4F20000022201F050
:1090000065FA3AE19DF816100C20C4F20000012226
:1090100001F05CFA9DF816101420C4F20000112231
:1090200001F054FA29E19DF816100C20C4F200005A
:10903000052201F04BFA9DF816101420C4F200002E
:109040000A2201F043FA18E19DF816100C20C4F230
:109050000000082201F03AFA9DF816101420C4F21C
:109060000000092201F032FA07E19DF816100C20E9
:10907000C4F20000092201F029FA9DF816105420CC
:10908000C4F200000C2201F021FAF6E09DF816105F
:109090000C20C4F200000A2201F018FA9DF8161004
:1090A0001420C4F200000390132201F00FFA039879
:1090B0009DF81610142201F009FADEE09DF8161052
:1090C0000C20C4F200000B22019201F0FFF9019A7A
:1090D0009DF816101420C4F20000029001F0F6F979
:1090E00002989DF81610102201F0F0F9C5E09DF8E5
:1090F00016100C20C4F200000C2201F0E7F99DF8D4
:1091000016100820C4F20000002201F0DFF9B4E0DC
:109110009DF816100C20C4F200000D2201F0D6F9C3
:109120009DF816101420C4F20000062201F0CEF9BA
:10913000A3E09DF816100C20C4F200000E2201F0EE
:10914000C5F99DF816101420C4F20000072201F0A2
:10915000BDF992E09DF816100C20C4F200000F2219
:1091600001F0B4F99DF816101420C4F200000C228E
:1091700001F0ACF981E09DF816100C20C4F200005B
:10918000102201F0A3F99DF816101420C4F200007B
:10919000082201F09BF970E09DF816100C20C4F233
:1091A0000000112201F092F99DF816101420C4F26B
:1091B0000000042201F08AF95FE09DF816100C20EF
:1091C000C4F20000122201F081F99DF8161014205B
:1091D000C4F20000052201F079F94EE09DF8161066
:1091E0000C20C4F20000132201F070F945E09DF854
:1091F00016100C20C4F20000142201F067F93CE0C4
:109200009DF816100C20C4F20000002201F05EF957
:1092100033E09DF816100C20C4F20000062201F085
:1092200055F92AE09DF816100C20C4F20000172210
:1092300001F04CF99DF816101420C4F200000E2223
:1092400001F044F919E09DF816108020C4F20000E6
:109250000090052201F03AF900989DF816100722B7
:1092600001F034F909E09DF816100C20C4F200005A
:10927000192201F02BF900E0FFE706B080BD0000E5
:1092800080B582B08DF807008DF806109DF80600B5
:1092900000F001019DF807207420C4F2000001F0E5
:1092A00015F902B080BD000080B582B02C20C4F258
:1092B0000000016801F02F01ADF8061001682F20B1
:1092C00000EA9110ADF8040000F00AFABDF80410AD
:1092D0004843BDF80610B0FBF1F002B080BD0000BD
:1092E00080B582B00420C4F200000068C0040028E9
:1092F00004D5FFE74FF4004001900AE000F0F0F9D8
:109300001C21C4F200010968090DB0FBF1F00190C5
:10931000FFE7019802B080BD80B58EB08DF83300B4
:109320009DF83300023801460B91152800F2358173
:109330000B99DFE811F01600160016003201480004
:1093400032000C016100CF0032017A009300DF008F
:10935000A300BC00BC002E012E0132013201EF003F
:10936000FF000420C4F2000000689DF833100D31A6
:10937000C840C00720B1FFE7FFF7B2FF0D9010E132
:1093800000F0AEF90A900B20142100F0D9FF01463D
:109390000A98B0FBF1F00D9003E100F0A1F90790FD
:1093A00016200890062100F0FFFF07990246089852
:1093B00051430991002100F0F7FF01460998B0FBE5
:1093C000F1F00D90EDE02C20C4F2000000680004E4
:1093D000002804D5FFE7FFF783FF0D90E1E000F0E0
:1093E0007FF906900B201B2100F0AAFF014606988A
:1093F000B0FBF1F00D90D4E00420C4F2000000684E
:109400008004002804D5FFE7FFF76AFF0D90C8E04D
:1094100000F066F905900020182100F091FF014648
:109420000598B0FBF1F00D90BBE00420C4F2000001
:109430000068800200280DD5FFE700F027F90490AE
:109440000020142100F07CFF01460498B0FBF1F0ED
:109450000D90A6E000F044F90D90A2E00420C4F2C3
:10946000000000684002002804D5FFE700F0E0F8A3
:109470000D9096E000F034F90D9092E00420C4F2D3
:1094800000000068000200280DD5FFE700F0FEF89C
:10949000039000200C2100F053FF01460398B0FB1D
:1094A000F1F00D907DE000F01BF90D9079E00420C3
:1094B000C4F2000000689DF833100331C840C007B3
:1094C00020B1FFE700F0B4F80D906AE000F008F971
:1094D0000D9066E02C20C4F200000068C003002854
:1094E00004D5FFE7FFF7E0FE0D905AE000F0F8F832
:1094F0000D9056E02C20C4F2000000688003002884
:1095000004D5FFE7FFF7D0FE0D904AE000F0E8F841
:109510000D9046E02C20C4F20000006800030028F3
:1095200004D5FFE7FFF7C0FE0D903AE000F0D8F851
:109530000D9036E000F0AAF802902020002100F003
:10954000FFFE01460298B0FBF1F00D9029E0542097
:10955000C4F200000068000400280DD5FFE700F009
:1095600067F801901520012100F004FF01460198E1
:10957000B0FBF1F00D9014E000F0B2F8009015206F
:10958000012100F0F7FE01460098B0FBF1F00D90CC
:1095900007E000F06BF80D9003E000F0A1F80D90EB
:1095A000FFE70D980EB080BD85B08DF80F0000204C
:1095B00002903020C4F20000006801909DF80F0076
:1095C00010280DDBFFE7082002909DF80F001038EF
:1095D0008DF80F003420C4F2000000680190FFE70E
:1095E00000200090FFE700981C2819DCFFE7019895
:1095F00000F00F009DF80F10884209D1FFE7029894
:109600000099CA1701EB927100EBA10004900BE0E6
:10961000019800090190FFE7009804300090E2E70C
:109620004FF0FF300490FFE7049805B0704700004A
:1096300080B582B00420C4F2000000684004002815
:109640000DD5FFE700F022F800900021084600F059
:1096500077FE01460098B0FBF1F0019003E000F0C6
:109660003FF80190FFE7019802B080BD80B582B05D
:10967000FFF7DEFF01900020042100F061FE0146AB
:109680000198B0FBF1F002B080BD000080B584B05D
:1096900040F2A810C4F210000068C002002818D5DB
:1096A000FFE74021C4F2000101910868C0F34500C2
:1096B0000968C1F3C5314843029000F011F80199DF
:1096C000029AB0FBF2F00968C1F3C7114843039056
:1096D00002E000200390FFE7039804B080BD000083
:1096E00083B042F21000C4F210000068C0F3002002
:1096F0008DF807009DF8070030B1FFE743F20060E6
:10970000C0F26E10029039E040F27C10C4F21000FA
:109710000068C0F30430014600910F2828D8009952
:10972000DFE801F0080E26142626261A262626260D
:109730002626262041F20020C0F27A0002901DE089
:1097400042F20040C0F2F400029017E043F20060E1
:10975000C0F26E10029011E044F60000C0F2E81072
:1097600002900BE046F60040C0F2DC20029005E0DB
:1097700049F20000C0F2D0300290FFE7029803B037
:109780007047000080B582B08DF807009DF8070093
:10979000012100F00FF802B080BD000080B582B05A
:1097A0008DF807009DF80700002100F003F802B0D3
:1097B00080BD000080B584B08DF80F008DF80E10CC
:1097C0009DF80F0001460291162800F26781029968
:1097D000DFE811F01700200029003A004B005C0080
:1097E0006D007E008F00A000A900C100CA00DB0050
:1097F000EC00FD000E011F013001390142014B0157
:1098000054019DF80E102020C4F200001F2200F029
:109810005DFE44E19DF80E102420C4F200000022F9
:1098200000F054FE3BE19DF80E102020C4F2000031
:109830000C2200F04BFE9DF80E102420C4F2000014
:10984000022200F043FE2AE19DF80E102020C4F20F
:1098500000000D2200F03AFE9DF80E102420C4F204
:109860000000032200F032FE19E19DF80E102020C6
:10987000C4F200000E2200F029FE9DF80E102420F4
:10988000C4F20000042200F021FE08E19DF80E1051
:109890002020C4F200000B2200F018FE9DF80E10EC
:1098A0002420C4F20000122200F010FEF7E09DF820
:1098B0000E102020C4F200000F2200F007FE9DF8D9
:1098C0000E102420C4F200000C2200F0FFFDE6E0A0
:1098D0009DF80E102020C4F20000122200F0F6FDC8
:1098E0009DF80E102420C4F200000B2200F0EEFDC3
:1098F000D5E09DF80E102020C4F20000132200F0E5
:10990000E5FD9DF80E105420C4F200000E2200F078
:10991000DDFDC4E09DF80E102020C4F200001422EA
:1099200000F0D4FDBBE09DF80E102020C4F2000032
:10993000152200F0CBFD9DF80E102420C4F200008B
:1099400001900D2200F0C2FD01989DF80E10112229
:1099500000F0BCFDA3E09DF80E102020C4F2000032
:10996000162200F0B3FD9AE09DF80E102020C4F2FC
:109970000000172200F0AAFD9DF80E102420C4F26A
:109980000000082200F0A2FD89E09DF80E102020C2
:10999000C4F20000182200F099FD9DF80E1024205A
:1099A000C4F20000092200F091FD78E09DF80E104D
:1099B0002020C4F20000192200F088FD9DF80E104E
:1099C0002420C4F200000E2200F080FD67E09DF824
:1099D0000E102020C4F200001A2200F077FD9DF83E
:1099E0000E102420C4F200000A2200F06FFD56E0A1
:1099F0009DF80E102020C4F200001B2200F066FD2E
:109A00009DF80E102420C4F20000062200F05EFD36
:109A100045E09DF80E102020C4F200001C2200F04A
:109A200055FD9DF80E102420C4F20000072200F01E
:109A30004DFD34E09DF80E102020C4F200001D22E0
:109A400000F044FD2BE09DF80E102020C4F2000031
:109A50001E2200F03BFD22E09DF80E102020C4F2F3
:109A600000000A2200F032FD19E09DF80E102020BF
:109A7000C4F20000102200F029FD10E09DF80E1045
:109A80002420C4F200000090012200F01FFD009885
:109A90009DF80E100F2200F019FD00E0FFE704B062
:109AA00080BD000085B003900020029001900090DE
:109AB0000290FFE7029809281EDCFFE7039802994D
:109AC000C840C00798B1FFE70098082804DBFFE70B
:109AD0004FF0FF30049046E0019800010190029998
:109AE000019808430190009801300090FFE7FFE7DC
:109AF000029801300290DDE701983021C4F20001A4
:109B0000086000200190009010200290FFE702986A
:109B10001A2820DCFFE703980299C840C007A8B1C3
:109B2000FFE70098082804DBFFE76FF001000490CE
:109B300019E00198000101900298A0F1100101982C
:109B400008430190009801300090FFE7FFE702987A
:109B500001300290DBE701983421C4F20001086073
:109B600000200490FFE7049805B0704780B582B0EC
:109B70008DF807009DF807000021FFF7C5F902B036
:109B800080BD000080B582B0019000208DF80300F8
:109B9000FFE79DF80300182813DCFFE701989DF804
:109BA0000310C840C00728B1FFE79DF80300FFF786
:109BB000DDFFFFE7FFE79DF8030001308DF80300AC
:109BC000E7E702B080BD000085B0049003918DF8F6
:109BD0000B200F200190072000900498022803D842
:109BE000FFE70020019079E00498082803D8FFE7F8
:109BF0000120019071E00498202803D8FFE702209B
:109C0000019069E004983F2803D8FFE70320019002
:109C100061E004987D2803D8FFE70420019059E013
:109C20000498FA2803D8FFE70520019051E0049832
:109C3000B0F5FA7F03D8FFE70620019048E00498CA
:109C4000B0F57A7F03D8FFE7072001903FE0049842
:109C5000B0F57A6F03D8FFE70820019036E004984A
:109C6000B0F57A5F03D8FFE7092001902DE0049852
:109C7000B0F57A4F03D8FFE70A20019024E004985A
:109C8000B0F57A3F03D8FFE70B2001901BE0049862
:109C9000B0F57A2F03D8FFE70C20019012E004986A
:109CA000B0F57A1F03D8FFE70D20019009E0049872
:109CB000B0F57A0F03D8FFE70E20019000E0FFE730
:109CC000FFE7FFE7FFE7FFE7FFE7FFE7FFE7FFE764
:109CD000FFE7FFE7FFE7FFE7FFE7FFE70398042859
:109CE00003D8FFE70020009030E00398082803D84D
:109CF000FFE70120009028E00398102803D8FFE731
:109D00000220009020E00398202803D8FFE70320DA
:109D1000009018E003983F2803D8FFE70420009044
:109D200010E003987D2803D8FFE70520009008E0A5
:109D30000398FA2803D8FFE70620009000E0FFE729
:109D4000FFE7FFE7FFE7FFE7FFE7FFE741F2180163
:109D5000C4F2000145F6A5200860009800020199B0
:109D600040EA01109DF80B200921002A18BF0D219F
:109D7000084441F21001C4F20001086042F21401EB
:109D8000C4F21001086840F08050086005B07047C8
:109D900041F21801C4F2000145F6A520086041F225
:109DA0001401C4F200014CF6FE2008607047000068
:109DB00082B001908DF803109DF8030001990860AE
:109DC00002B0704780B582B045F23050C2F2000058
:109DD00001900199012008610199486101984BF2B5
:109DE000F231C0F202218161019A45F28850C2F23B
:109DF0000000D061019A4FF4FA701062019A0020BD
:109E00009062019A5062019AD062019A1163019A9C
:109E100045F27851C2F200015163019A1021916319
:109E2000019908640199C863019948640198073051
:109E30004BF2EE31C0F20221FEF728F9BFF35F8F3B
:109E400001984BF2E731C0F20221FEF71FF9BFF390
:109E50005F8F019920208871BFF35F8F02B080BDB2
:109E600084B003900398006902900398C068019041
:109E700002980199884209D8FFE703988068019900
:109E8000401A029908440138009005E002990198AF
:109E9000C04308440090FFE7009804B070470000FA
:109EA00080B58AB009900891079200200590099822
:109EB000C0680390FFE7099800690490049803992B
:109EC000884206D9FFE704990398C04308440690E6
:109ED00008E0099881680398049A801AC0430844EE
:109EE0000690FFE7069809998968039A891A8842BB
:109EF00003D2FFE70698029005E00998806803996D
:109F0000401A0290FFE70298069006980799884247
:109F100003D2FFE70698019002E007980190FFE75F
:109F20000198069009984068039908440899069A90
:109F3000FEF79AF80699059808440590069908983E
:109F40000844089006990798401A079006990398C4
:109F500008440390039809998968884203D1FFE770
:109F600000200390FFE7BFF35F8F03980999C86053
:109F7000FFE7079800289ED1FFE705980AB080BD4B
:109F800080B586B00590049103920598C068019051
:109F9000059880680199401A0090009803998842BA
:109FA00010D9FFE705984068019908440499039A7D
:109FB000FEF75AF8BFF35F8F01980399084405999B
:109FC000C8601BE000980290059840680199084419
:109FD0000499029AFEF748F803980099401A0290F3
:109FE000059840680499009A1144029AFEF73CF8DB
:109FF000BFF35F8F02980599C860FFE706B080BD88
:10A0000081B0009000988069C0F3401001B07047A3
:10A0100080B588B000F07CF94AF25511C0F20221F7
:10A02000042000220792F4F7CDFD079A4AF2351179
:10A03000C0F202210520F4F7C5FD079A4AF2AD11DE
:10A04000C0F202210720F4F7BDFD079A4AF2DD3184
:10A05000C0F2022102200690F4F7B4FD079A4AF2FA
:10A06000C141C0F202210320F4F7ACFD079A4AF285
:10A07000C911C0F202211046F4F7A4FD00F0A8FABD
:10A08000079B69464B600E20049008604AF2F56019
:10A09000C0F202204BF2E531C0F20221802203928D
:10A0A000FAF708FC039A079B049869464B6008601E
:10A0B0004AF2F100C0F202204BF2E331C0F2022179
:10A0C000FAF7F8FB45F6C000C2F20000059000F078
:10A0D00009FB059A4AF2FD11C0F202210820F4F7AB
:10A0E00071FD06980799F4F757FC079808B080BDF2
:10A0F00080B584B00390FFE76620F9F73BFB45F29B
:10A100007C70C2F20000009001780C20FEF72AFC5F
:10A1100000980168B1FA81F14909016001780D20C8
:10A12000FEF720FC4BF21C30C0F20220F4F70CFDCD
:10A13000E2E7000080B582B00190009101980168CB
:10A1400042684BF2CE30C0F20220F4F7FDFCFFE78C
:10A15000FEE7000070B588B007900691DDF81CC0DE
:10A16000CDF814C0DCF81810DCF81420DCF81C3032
:10A17000DCF80000DCF804E0DCF80840DCF80C5007
:10A18000DCF81060EC46CCF81060CCF80C50CCF841
:10A190000840CCF804E0CCF800004BF23230C0F2BA
:10A1A0000220F4F7D1FCFFE7FEE7000080B582B0A3
:10A1B0000190009101994BF2C230C0F20220F4F7F5
:10A1C000C3FCFFE7FEE7000080B582B0019000917C
:10A1D000FFE741F20000C4F20100FFF711FF012880
:10A1E00001D1FFE7F5E70198017841F20000C4F2E0
:10A1F0000100FFF7DDFD002002B080BD80B586B014
:10A20000059004914EF60450CEF2000000686FF302
:10A210005F20B0FA80F040098DF80B009DF80B002C
:10A2200028B1FFE7F4F73EFC406B8047FFE70020D2
:10A23000FEF7AAFD03900599088949890844039906
:10A2400088420EDAFFE70598016802890020019034
:10A25000FEF7B0FD0198059A51685289FEF7AAFDF4
:10A26000FFE79DF80B0028B1FFE7F4F71BFC806BBC
:10A270008047FFE7002006B080BD000080B52020A9
:10A28000C0F22100FEF71EFE41F23001C4F20101CE
:10A2900000220A6041F24400C4F20100026041F26F
:10A2A0003803C4F201031A6041F20400C4F2010051
:10A2B000026041F2240CC4F2010C0D20CCF8000025
:10A2C00041F2280CC4F2010C0120CCF8000041F24C
:10A2D0002C0CC4F2010C7020CCF8000041F2340CBC
:10A2E000C4F2010C40F20110CCF800001A600860C2
:10A2F0004EF6F050CEF200000068C00738B9FFE714
:10A3000042F21070C8210022FFF75EFCFFE780BD1B
:10A3100080B504200021F4F73FFB06204FF4FA71CA
:10A32000F4F73AFB80BD000080B582B00190009147
:10A3300001A80021FFF748FF019802B080BD00008E
:10A3400084B00390029103994FF0804050F82100AF
:10A350000299C84000F00F000190019818B9FFE77A
:10A360000120009002E001980090FFE7009804B0FF
:10A370007047000084B00390029103994FF0804031
:10A3800050F821000299C8406FF39F200190019876
:10A3900018B9FFE70120009002E001980090FFE764
:10A3A000009804B07047000084B0039002910399B4
:10A3B0004FF0804050F821000299C84000F03F0063
:10A3C0000190019818B9FFE70120009002E0019880
:10A3D0000090FFE7009804B07047000080B582B09D
:10A3E0000190009100F0F4F8002002B080BD000060
:10A3F00080B58EB00D900C910B9200230A930C99AE
:10A400000B986A4693605360106004A8039018226A
:10A41000FEF76AF903990D98FEF710F90EB080BDAA
:10A4200088B006908DF817100698C11700EB517090
:10A43000C0100490069800F007018020C8400390E7
:10A44000002002909DF81700013801909DF8170038
:10A450004AF6FE72C0F20222132110FB0120009086
:10A4600000980499405C0399084204D1FFE74FF03B
:10A47000FF30079020E0FFE70198002819D4FFE79C
:10A4800001984AF6FE72C0F20222132100FB01205D
:10A49000009000980499405C0399084204D0FFE7BB
:10A4A000029801300290FFE7FFE701980138019020
:10A4B000E2E702980790FFE7079808B070470000AE
:10A4C00082B001900091002002B0704783B00290EA
:10A4D0008DF807108DF806209DF8061001208840A1
:10A4E000009002980068009988439DF807109DF835
:10A4F0000620914008430299086003B070470000AD
:10A5000085B0049003918DF80B208DF80A309DF8EA
:10A510000B10012088400138019001989DF80A1025
:10A520008840C0430090049800680099084003994F
:10A53000019A11409DF80A2091400843049908604F
:10A5400005B0704780B584B040F60300C0F230001B
:10A55000FEF7B8FC00F05EF80020039006210191A0
:10A56000FEF7A6FA012002900721FEF7A1FA40208B
:10A570000090FFF707FB0198FFF710F90299039885
:10A58000FEF77EFE0098FEF79DFC0198FFF7FAF8B3
:10A5900001990398FEF7B4FB029A03980221FEF793
:10A5A0006FFB039803221146FEF722FA0298FEF78A
:10A5B00013FA02990398FEF78DFB039845F2807118
:10A5C000C2F200014FF4A072FFF712FF04B080BD89
:10A5D00080B584B0FFF752FEFFF7B4FF0C20019066
:10A5E00000210091FEF778FA00990D200290FEF705
:10A5F00073FA019801210391FEF762F90298039919
:10A60000FEF75EF94BF22530C0F20220F4F79CFA17
:10A6100004B080BD80B582B00120FEF7B9F80020FB
:10A620000190FEF7B5F84FF08070FFF73BFA019A02
:10A6300048F2C971C0F202211020F4F7CDFA02B03D
:10A6400080BD000085B08DF80F008DF80E109DF8CC
:10A650000F002A2804DBFFE74FF0FF3004903EE0B4
:10A660009DF80F004AF6FE72C0F20222132110FB81
:10A6700001200290002001909DF80E00013800900A
:10A6800002989DF80E10CA08805C01F00702802134
:10A69000D140084204D1FFE74FF0FF3004901EE0A4
:10A6A000FFE70098002817D4FFE702980099CA171F
:10A6B00001EB5272D210805C01F007028021D14080
:10A6C000084204D0FFE7019801300190FFE7FFE75F
:10A6D000009801380090E4E701980490FFE704989F
:10A6E00005B0704780B582B00190FEF75FFB02B005
:10A6F00080BD000080B582B00190FFE74FF410509C
:10A70000F9F738F8FFF744FBF8E700000FB4054B02
:10A7100010B503A9044A029800F0DAF810BC5DF8FD
:10A7200014FB000029A302022855002002E008C8FB
:10A73000121F08C1002AFAD170477047002001E0BB
:10A7400001C1121F002AFBD1704700002DE9FF5FF5
:10A7500082B00021DDE90430020DDDF840B0034392
:10A7600018D044F61050A2F2FF324243151411984B
:10A7700001281FD0A5EB0B00401C5FEA000A4FF038
:10A7800000064E4FDFF83891B046504615D5CAF155
:10A79000000413E0119801244AA3012801D16FEAB3
:10A7A0000B010298119AC0E90031C0E9024206B0DB
:10A7B000BDE8F09FCBF10000DFE704460021404AEE
:10A7C000491842EB0450CDE9001012E0E00707D031
:10A7D00032463B4640464946FDF73CFE80468946A8
:10A7E00032463B4610461946FDF734FE06460F46F4
:10A7F0006410002CEAD1DDE90401DDE90023BAF19F
:10A80000000F06DAFDF726FE42464B46FDF722FE14
:10A8100005E0FDF7EBFC42464B46FDF7E7FC04463E
:10A820000E460022284BFDF79FFE03D84FF0FF3065
:10A83000014607E00022254B20463146FDF72FFC5C
:10A84000FDF77AFE102409E0002C0ADB0A2200231F
:10A85000FDF751FD039B30321A55641E50EA010288
:10A86000F2D1641C039AC4F111031444119A012A11
:10A8700003D0012208430DD10AE0084304D0002090
:10A880004FF0110B119072E7A3EB0B056D1E0DE05D
:10A890005B4504DD4FF0000205F1010504E003DA39
:10A8A0004FF00002A5F10105002AECD002981199A1
:10A8B000C0E90231C0E9004579E70000000014401A
:10A8C0000000F03F300000000000F0430000E03FD7
:10A8D0002DE9FF4F95B09B468946064600250FE2BD
:10A8E000252877D100242746F84A0121059400E065
:10A8F000044316F8013F203B01FA03F01042F7D160
:10A9000030782A2811D06FF02F033078A0F1300270
:10A91000092A16D8059A44F0020402EB820203EBDE
:10A9200042021044761C0590EFE759F8042B05927B
:10A93000002A03DA504244F40054059044F0020423
:10A94000761C30782E2816D116F8010F44F0040436
:10A950002A280DD06FF02F023078A0F13003092B98
:10A9600009D807EB870302EB4303C718761CF3E70C
:10A9700059F8047B761C30786C280FD006DC4C2804
:10A9800017D068280DD06A2814D104E0742810D09C
:10A990007A280FD10DE044F400140AE044F4801446
:10A9A00001E044F440147278824202D104F580142C
:10A9B000761C761C307866280BD013DC582877D0AC
:10A9C00009DC002875D04528F6D04628F4D0472861
:10A9D0001AD19DE118E0632835D0642879D0652824
:10A9E00012D195E1702873D008DC6728F1D069286E
:10A9F0006FD06E280DD06F2806D1B5E073282CD00B
:10AA0000752875D0782874D05A46179990476D1CD0
:10AA100075E1C4F30250022809D003280DD0D9F8FB
:10AA2000001004280DD00D6009F1040967E1D9F880
:10AA30000010EA17C1E90052F6E7D9F800100D80BE
:10AA4000F2E70D70F0E719F8041B8DF800100020F4
:10AA50008DF80100EA46012003E059F804AB4FF0FD
:10AA6000FF3061074FF0000102D40DE008F1010151
:10AA70008846B9420FDA8045F8DB1AF80810002939
:10AA8000F4D108E008F1010188468142FADB1AF8A6
:10AA900008100029F6D105985B46A0EB080721466F
:10AAA0003846179A00F094FA284400EB080507E0AE
:10AAB0004DE029E10DE01AF8010B5A46179990472D
:10AAC000B8F10108F7D25B4621463846179A13E1E0
:10AAD00042E00A220092C4F302524FF0000A022A16
:10AAE00008D059F804CB032A4FEAEC710AD00DE0E4
:10AAF00029E02AE009F1070121F00702F2E802C18A
:10AB0000914609E00FFA8CFC4FEAEC71042A03D15C
:10AB10004FFA8CFC4FEAEC71002907DA0A46002153
:10AB2000DCF1000C61EB02012D2202E0220504D5CC
:10AB30002B228DF80420012203E0E20701D020221D
:10AB4000F7E7904659E00A2102E010220DE01021BB
:10AB50004FF0000A00910BE010224FF0000A44F081
:10AB600004040827009203E008224FF0000A009234
:10AB7000C4F30252022A05D059F804CB0021032A5B
:10AB800008D009E009F1070121F00702F2E802C14B
:10AB9000914605E01FFA8CFC042A01D10CF0FF0C51
:10ABA0004FF00008220728D5702806D0009B83F0BC
:10ABB000100353EA0A0305D00EE040228DF804206A
:10ABC000012208E05CEA010206D030228DF8042060
:10ABD0008DF8050002229046009B83F0080353EA9B
:10ABE0000A030AD15CEA010201D1620705D53022CD
:10ABF0008DF804204FF001087F1E582804D034A09F
:10AC000003900EA802900DE036A0F9E75346604687
:10AC1000009AFDF770FB84460398825C0298401E00
:10AC2000029002705CEA0100F0D1029806A9081AAD
:10AC300000F1200A600702D524F4803400E00127E7
:10AC4000574502DDA7EB0A0000E0002000EB0A01F7
:10AC5000009005984144401A0590E00306D45B46F5
:10AC60002146179A059800F0B3F90544002706E03D
:10AC700001A85A46C05D179990476D1C7F1C474537
:10AC8000F6DBE0030CD55B462146179A059800F0E9
:10AC90009FF9054404E030205A46179990476D1CEF
:10ACA0000099481E00900029F5DC08E002980299FE
:10ACB0005A460078491C0291179990476D1CBAF1C9
:10ACC0000001AAF1010AF1DC65E100000928010098
:10ACD0003031323334353637383961626364656612
:10ACE00000000000303132333435363738394142D4
:10ACF000434445460000000000F058F90544761C26
:10AD0000307800287FF4ECAD19B02846BDE8F08F0C
:10AD1000620700D4062709F1070222F0070CFCE8BD
:10AD20000223E14603F000485FEA080C02D00FF26C
:10AD3000702C0DE05FEA045C02D50FF2682C07E08E
:10AD40005FEAC47C02D00FF2602C01E0AFF2700C1D
:10AD50004FF0FF3823F00043CDF850C065280CD0E9
:10AD600006DC452809D046281DD047283DD13DE0C6
:10AD7000662818D067287ED138E00021112F01DB2A
:10AD8000112000E0781CCDE9000106A90EA8FFF70C
:10AD9000DDFCDDE90F010E9A03910021009207F11D
:10ADA000010A04914DE04FF000400097CDE90110F9
:10ADB00006A90EA8FFF7CAFCDDE90F0203920E9B5D
:10ADC00011990022DDF80CA00093049211B9791CAE
:10ADD00000EB010AB7EB0A0004D4C0F1FF3007F121
:10ADE000010A0490AAEB0700019044E0012F00DA69
:10ADF00001270021112F01DD112000E03846CDE9A7
:10AE0000000106A90EA8FFF7A1FCDDE90F010E9ACB
:10AE10000391002104910092BA4621070CD40399B2
:10AE2000514500DA8A46BAF1010F05DD009AAAF110
:10AE30000101515C302908D0B84202DA10F1040F48
:10AE400006DA0121CDE9011015E0AAF10101E9E7D7
:10AE5000002805DC049901440491AAEB000102E0FA
:10AE6000411C514500DD8A460499401A401C01905E
:10AE70004FF000400290200704D40198504501DBB8
:10AE8000CDF8048000208DF84F0002980DF14F0797
:10AE9000B0F1004F25D02B200E9002984FF0020801
:10AEA00000280CDA404202902D200E9007E00A2183
:10AEB0000298FDF70AFA3031029007F8011DB8F147
:10AEC0000001A8F10108F2DC02980028EFD1791EF8
:10AED0000E980870307800F0200040F0450007F828
:10AEE000020D12A8C01B00F107081498007800B1E9
:10AEF000012000EB0A01019801EBE0710598414443
:10AF0000401A401E0590E00306D45B462146179A7E
:10AF1000059800F05DF805441498007818B15A4679
:10AF2000179990476D1CE00324D55B462146179A7C
:10AF3000059800F04DF805441CE00498002807DB54
:10AF4000DDE90301884203DD0098405C179901E0C8
:10AF5000179930205A469047049805F10105401C86
:10AF600004900198401E019004D12E205A46179952
:10AF700090476D1CBAF10001AAF1010ADDDC05E081
:10AF800017F8010B5A46179990476D1CB8F100014C
:10AF9000A8F10108F4DC5B462146179A0598ABE658
:10AFA0002D0000002B000000200000002DE9F041E2
:10AFB000044600251E461746880404D405E0394699
:10AFC0002020B0476D1C641EF9D52846BDE8F081ED
:10AFD0002DE9F041044600251E469046C80301D5E0
:10AFE000302700E02027880404D505E04146384694
:10AFF000B0476D1C641EF9D52846BDE8F081FFFFFF
:10B00000FFFAAAAA48C000020FFFFFFF0000038753
:10B01000E0FFFFFFF5555524A000010FFFFFFE8064
:10B020000003A7E0FFFFFFFAAAA8909000008FFF9F
:10B03000FFFE40000397E0FFFFFFF55556488800EC
:10B04000004FFFFFFE200003C7E0FFFFFFFAAAA9A1
:10B05000268400002FFFFFFE10000387E0FFFFFFA4
:10B06000F55554928200001FFFFFFE0800038FE099
:10B07000FFFFFFFAAAAA4A8100020FFFFFFE0400A9
:10B080000387E0FFFFFFF55555268080010FFFFF86
:10B09000FE020003A7E0FFFFFFFAAAA8928040008B
:10B0A0008FFFFFFE01000397E0FFFFFFF555564AB3
:10B0B0008020004FFFFFFE008003C7E0FFFFFFFA84
:10B0C000AAA9268010002FFFFFFE00400387E0FFA3
:10B0D000FFFFF55554918008001FFFFFFE0020037D
:10B0E0008FE0FFFFFFFAAAAA498004000FFFFFFECE
:10B0F00000100387E0FFFFFFF55555258002000F84
:10B10000FFFFFE00080387E0FFFFFFFAAAA8918077
:10B1100001000FFFFFFE00040387E0FFFFFFF5556E
:10B1200056498000800FFFFFFE00021387E0FFFFFB
:10B13000FFFAAAA9258000400FFFFFFE00010B8740
:10B14000E0FFFFFFF55554918000240FFFFFFE0044
:10B15000008787E0C8000000000000000000010038
:10B1600000000000000000D000000000000000000F
:10B1700000020000000000000000C4000000000009
:10B1800000000000008000000000000000FFFFFF42
:10B19000FAAAAA488000100FFFFFFE00004387E0D4
:10B1A000FFFFFFF55555248000080FFFFFFE00004C
:10B1B0002387E0C000000000000040000000000005
:10B1C000010000000000C00000000000002000009E
:10B1D000000000008000000000C00000000000002F
:10B1E000100000000000004000000000C20000004D
:10B1F000000000000000004000000000000000C14E
:10B20000000000000000000000002000000000001E
:10B210000000C080000000000000000000100000DE
:10B220000000000000C00000000000000800000056
:10B230000000002000000000C0000000000000042A
:10B240000000000000001000000000FFFFFFFAAA4D
:10B25000A8908200000FFFFFFE08000387E0C000F7
:10B2600000000000000100000000000004000000D9
:10B2700000C000000000000000800000000000028C
:10B2800000000000FFFFFFF555564B8040000FFF08
:10B29000FFFE01000387E0FFFFFFFAAAA927802035
:10B2A000000FFFFFFE00800387E0C00000000000E9
:10B2B00000001000000000000040000000C000007E
:10B2C0000000000000080000000000002000000056
:10B2D000C00000000000000004000000000000109A
:10B2E000000000C00000000000000002000000009C
:10B2F000000008000000C000000000000000010085
:10B30000000000000004000000C000000000000079
:10B31000000080000000000002000000746F6767FA
:10B320006C652E0A00736574757020646F6E652EEF
:10B330000A00484152444641554C543A0A50432071
:10B340003A203078253038580A4C52203A2030784C
:10B35000253038580A5053523A2030782530385822
:10B360000A5230203A203078253038580A5231209D
:10B370003A203078253038580A5232203A20307836
:10B38000253038580A5033203A2030782530385844
:10B390000A5231323A203078253038580A00636E2C
:10B3A000743A2030782578202825642025642025CB
:10B3B0006420256429206F66667365743A202564CD
:10B3C0000A005B4F4F4D5D20402025640A005B4121
:10B3D0005353455254494F4E5D20402025733A2522
:10B3E000640A0061007700534547474552005254B4
:10B3F00054005465726D696E616C000020B40202E5
:10B4000028550020080000002CA7020228B40202E0
:10B41000305500209C0300003CA702020000000001
:08B42000000000000000000024
:04000005020280096A
:00000001FF
