:020000040002F8
:10400000C01D00201D400200DFF80CD000F012F8A7
:104010000048004725400200C01D002002B50348AB
:10402000004700000248804702BD00003540020002
:1040300069480200064C074D06E0E06840F00103C5
:1040400094E8070098471034AC42F6D3FFF7E0FF3E
:10405000786A0200986A020010B5431A934209D2A6
:104060008318881803E010F8011D03F8011D521E83
:10407000F9D210BD40EA01039B0703D009E008C94B
:10408000121F08C0042AFAD203E011F8013B00F81D
:10409000013B521EF9D210BD2DE9FE4F804681EA48
:1040A0000300C00F0C46009021F0004123F00045B2
:1040B000B8EB0200A94105D24046214690461C4675
:1040C0000B46024623F00040104347D0270DC7F3AC
:1040D0000A00C3F30A510290401A019040286BDA9B
:1040E000C3F3130040F4801B0098924620B10023D4
:1040F000D2EB030A63EB0B0B01985946C0F1400267
:10410000504600F0A9F906460D4650465946019A18
:1041100000F0B1F910EB08006141002487EA115268
:1041200084EAE7731A4340D0009A62B3019A012AE5
:104130004FEA075215DC001B61EB02014FF0004211
:1041400002EA0752CDE90042001C41F580113246D7
:104150002B4600F0B1F903B0BDE8F08F4046214690
:10416000F9E7001B61EB0201001C41F58013001808
:104170005B412018A2F5001747EB030140EAD57018
:10418000B6196D4111E06D084FEA360645EAC07573
:104190004FEA0752001B61EB0201001C41F5801140
:1041A00049084FEA30000019514132462B4603B00E
:1041B000BDE8F04F00F071B90098012240000023E3
:1041C000D0EB020263EBE073009821464FEAE07403
:1041D000B8EB000061EB0401E9E783F000435BE723
:1041E00081F0004158E72DE9FE4F81EA030404F015
:1041F000004421F0004100944FF0000B23F00043F5
:1042000050EA01045ED052EA03045BD0C3F30A54BF
:10421000C1F30A552C44A4F2F3340194A0FB0254D8
:10422000C1F3130141F48011C3F3130343F480136A
:1042300001FB024400FB034E840A970A44EA8154BE
:1042400047EA8357A4FB076802958D0A05FB07859B
:104250004FEA932C04FB0C542705029D4FEA0658A5
:1042600047EA1637B5EB08056EEB070C870E920E82
:1042700047EA811742EA8312A7FB0201B6EB0B0162
:1042800064EB00042B0D43EA0C335E1844EB1C5026
:10429000DA465146E7FB0201C5F313044FEA0B333C
:1042A00043EA14534FEA0432019C43EA0603A4F1A3
:1042B0000C040294009CCDE900B400F0FDF803B0BA
:1042C000BDE8F08F00200146F9E72DE9F04D81EAC5
:1042D000030404F0004B21F0004514464FF0000A9F
:1042E00023F0004150EA050220D054EA01021DD01B
:1042F000C5F30A570246C5F31303C1F31300C1F314
:104300000A5640F4801543F48013A7EB0608101BEF
:10431000D64608F2FD3873EB050002D308F1010818
:1043200001E092185B41B8F1000F03DA002001466A
:10433000BDE8F08D00204FF48011064684460EE063
:10434000171B73EB050705D3121B63EB050306432D
:104350004CEA010C49084FEA300092185B4150EAE0
:104360000107EDD152EA030012D082EA040083EA89
:104370000501084305D0101BAB4106D201220023E2
:1043800006E000224FF0004302E06FF001025310FC
:104390001AEB06004CEB085110EB0A0041EB0B0145
:1043A000BDE8F04D00F079B80EB5C10F80EAE070BD
:1043B0000844CA07002140F233438DE80E000A4644
:1043C0000B4600F079F803B000BD30B50B4601464E
:1043D00000202022012409E021FA02F59D4205D3A4
:1043E00003FA02F5491B04FA02F52844151EA2F14E
:1043F0000102F1DC30BD2DE9F05F05460020924658
:104400009B4688460646814640241BE02846414696
:104410004746224600F0CEF853465A46C01A91410C
:1044200010D311461846224600F016F82D1A67EBF5
:1044300001084F4622460120002100F00DF817EB3D
:1044400000094E41201EA4F10104DFDC484631463C
:104450002A464346BDE8F09F202A04DB203A00FAB2
:1044600002F1002070479140C2F1200320FA03F3CB
:10447000194390407047202A06DBCB17203A41FAB7
:1044800002F043EAE07306E041FA02F3D040C2F1E1
:104490002002914008431946704710B5141E73F16D
:1044A000000408DA401C41F1000192185B411A43F4
:1044B00001D120F0010010BD2DE9F04D92469B4640
:1044C00011B1B1FA81F202E0B0FA80F220329046E6
:1044D000FFF7C2FF04460F4640EA0A0041EA0B011B
:1044E00053465A46084313D0114653EA010019D0E7
:1044F000C8F14002504600F05DF805460E465046B1
:1045000059464246FFF7A8FF084305D0012004E0C2
:1045100020463946BDE8F08D0020054346EAE076A6
:104520002C4337430A986305E40AA0EB08000022F5
:10453000FD0A44EA47540A3002D500200146E9E763
:10454000010510196941DDE9084500196941BDE817
:10455000F04DA2E7C1F30A52C1F3130140F2FF3359
:1045600041F480119A4202DA00200146704740F27D
:1045700033439A42A2F2334202DC524200F01AB8AC
:10458000FFF76ABF30B5041E71F1000404DB4FF081
:104590000044404264EB0101141E73F1000405DB8A
:1045A0001C464FF00043524263EB0403994208BF9C
:1045B000904230BD202A04DB203A21FA02F000218B
:1045C000704721FA02F3D040C2F120029140084323
:1045D0001946704784B003908DF80B108DF80A20AF
:1045E00003980021C4F20701084401909DF80B10C4
:1045F0003F208840009001980068009988439DF80A
:104600000A109DF80B20914008430199086004B0FE
:104610007047000080B582B08DF807008DF8061055
:104620009DF80710002918BF12219DF8062054207C
:10463000FFF7D0FF02B080BD83B08DF80B008DF87E
:104640000A109DF80B107C2000EA51004421C4F2AE
:104650000701084401909DF80B0000F0070080005E
:104660008DF80300019800689DF803200F21914008
:1046700088439DF80A10914008430199086003B0EF
:104680007047000081B00090009A0421C4F2070135
:1046900008681043086001B07047000081B00090C6
:1046A0000099886840F00100886001B07047000000
:1046B00081B000900099886840F04000886001B0A7
:1046C0007047000081B000900099886840F01000A9
:1046D000886001B07047000081B000900099886840
:1046E00040F00200886001B07047000082B0019085
:1046F000009100980199486002B0704782B0019023
:104700008DF803100198806820F008009DF80310D0
:1047100040EA81000199886002B0704782B0019040
:104720008DF803109DF803000199086002B07047EE
:1047300086B00590049103920498C0000399B0FBE1
:10474000F1F002900298C009019001990298A0EB43
:10475000C11002900298013040080090019805991C
:104760004862BDF8060018B9FFE7019810B9FFE7E5
:10477000FFE7FEE701984FF6FF71884204D1FFE79B
:1047800005990020886207E001990298401A02907A
:10479000009805998862FFE70598C06A0599C86284
:1047A00006B0704781B0009000988069C0F3001097
:1047B00001B0704781B0009000988069C0F340104C
:1047C00001B0704781B000900098C06B01B0704795
:1047D00080B584B003900291019203990020086390
:1047E0000399486403998863039948600399486270
:1047F000039988620399C8620398029AD168126982
:10480000FFF796FF029890F800C041788378C2784D
:10481000802000EA411040EA4C1040EA031040EAD0
:10482000C20001F0030140EA41000399C862029806
:10483000B0F80900000400BA03994863019803998D
:1048400088630299087991F805C08B79CA7940028A
:1048500040EA0C20184440EAC230097A40EA81302C
:104860000399086304B080BD80B582B045F2E521AC
:10487000C0F20201012000220192F9F7E7F8019A43
:1048800044F69D31C0F202010420F9F7DFF8019AE5
:1048900044F67D31C0F202010520F9F7D7F8019AFC
:1048A00044F6F531C0F202010720F9F7CFF8019A7A
:1048B00044F69D71C0F202010220F9F7C7F8019A8F
:1048C00045F2B111C0F202010320F9F7BFF8019AD5
:1048D00044F61141C0F202011046F9F7B7F800F0B2
:1048E000D7FC00F077FB02B080BD000080B505204A
:1048F00000221146E2F704F880BD000080B584B0C4
:1049000084460698ADF80CC0ADF80A10ADF8082042
:104910000193ADF80200BDF80A0008280CD1FFE7AA
:10492000019828B1FFE7BDF80200ADF80E0007E0DE
:104930000120ADF80E0003E00020ADF80E00FFE707
:10494000BDF80E0004B080BD80B584B084460798E1
:10495000DDF818E0ADF80AC0ADF80810ADF8062093
:10496000ADF80430ADF80200BDF80800082803D106
:10497000FFE70020039002E000200390FFE7039888
:1049800004B080BD80B582B00190019841F27161A0
:10499000C2F20001B1F80120033200F013F802B0B6
:1049A00080BD000080B582B0019041F26061C2F22A
:1049B0000001A22008700198112200F003F802B053
:1049C00080BD000080B586B0059004910392002060
:1049D000ADF80800059941F27C70C2F2000030F891
:1049E00011004FF6FF71884233D0FFE7059941F27D
:1049F0007C70C2F2000030F8110002A9E3F77BFDE1
:104A0000BDF808000338ADF808000398BDF8081099
:104A1000884204D9FFE7BDF80800019002E003983E
:104A20000190FFE701980390059941F27C70C2F272
:104A3000000030F81100BDF80C20049B0821E4F7B9
:104A4000D6F98DF80B009DF80B0008B1FFE7FFE7E2
:104A5000FFE706B080BD000080B582B0019041F252
:104A60005B71C2F20001A02008704FF49670C1F88B
:104A7000010001980522FFF7A5FF02B080BD0000EC
:104A800080B582B00190ADF8021041F27160C2F2BF
:104A90000000A1210170BDF80210A0F801100199D9
:104AA000BDF802200330FFF7D7FA0B200022114691
:104AB000E1F726FF02B080BD80B584B00390ADF869
:104AC0000A10ADF8082041F27160C2F20000A32183
:104AD0000170BDF80A10A0F80110BDF8081041F2ED
:104AE0006072C2F20002019211800399BDF80A209F
:104AF0000330FFF7B1FA01990B200122E1F700FF23
:104B000004B080BD80B582B00190BDF804200A20B9
:104B10000021E1F7F5FE02B080BD000081B00090F9
:104B20000098807801B0704780B582B000F00AFA32
:104B300008B9FFE71FE0F8F723FF42F2C072C0F2A6
:104B40000902121841F1000041F26061C2F2000155
:104B50000191C1F80120C1F8050000F0C3F90198E6
:104B6000D0F80120D0F8053046F66320C0F20200EC
:104B7000F8F72EFFFFE702B080BD000080B582B0DD
:104B80000190009101980168426846F6EE00C0F27B
:104B90000200F8F71DFFFFE7FEE7000070B588B0E0
:104BA00007900691DDF81CC0CDF814C0DCF8181091
:104BB000DCF81420DCF81C30DCF80000DCF804E041
:104BC000DCF80840DCF80C50DCF81060EC46CCF85F
:104BD0001060CCF80C50CCF80840CCF804E0CCF8CD
:104BE000000046F67600C0F20200F8F7F1FEFFE79B
:104BF000FEE7000080B582B001900091019946F671
:104C0000E200C0F20200F8F7E3FEFFE7FEE7000073
:104C100080B582B001900091FFE70020C4F202004D
:104C2000FFF7C8FD012801D1FFE7F6E701980178F9
:104C30000020C4F20200FFF771FD002002B080BD29
:104C400080B588B04FF48060FFF71CFD0420009011
:104C500000210291FFF7F0FC009901200190FFF77D
:104C6000D9FC05200A21FFF7E7FC019802990322ED
:104C70008DF80C208DF80D108DF80E008DF80F10AA
:104C80008DF810008DF811008DF812008DF81310BA
:104C90008DF814108DF815008DF8160043F20060A1
:104CA000C0F26E1006904FF46120079041F20000B0
:104CB000C4F2020003A91022FFF78AFD029A45F20E
:104CC000F561C0F202010820F8F7CAFE08B080BD05
:104CD00080B588B00790069103208DF8040000226B
:104CE0008DF8052001208DF806008DF807208DF83D
:104CF00008008DF809008DF80A008DF80B208DF85A
:104D00000C208DF80D008DF80E0007980490069881
:104D100005900020C4F2020001A9FFF759FD08B078
:104D200080BD000041F28071C2F2000108680130CC
:104D30000860704781B0009001B0704781B000906A
:104D4000002001B07047000072B641F29471C2F2C7
:104D500000010868013008607047000080B5072036
:104D600000221146E1F7CCFD80BD000080B582B085
:104D70000190009101A80021FFF74AFF019802B0BD
:104D800080BD000083B00290ADF806100092BDF81F
:104D900006000338009908800298013003B070477C
:104DA00081B000900098807801B0704781B0009089
:104DB0000098007801B0704781B0009000980430EE
:104DC00001B070477047000080B586B000200490A5
:104DD00000F0AEF941F2AB70C2F20000007808B109
:104DE000FFE759E0E2F75AFB00200590FFE705983E
:104DF00001281EDCFFE7059941F27C70C2F2000039
:104E000030F811004FF6FF7188420DD1FFE704988A
:104E100001300490059941F2A450C2F200004171A2
:104E20000121E2F70FFBFFE7FFE70598013005904E
:104E3000DDE7049868B9FFE746F68D10C0F202007E
:104E4000F8F7C6FD0023184619461A46E2F75EFE3B
:104E500022E046F63410C0F20200F8F7B9FD41F244
:104E6000AA51C2F200016846416001220392026029
:104E7000002310461146E2F767FB039841F2AB713D
:104E8000C2F20001087044F6ED00C0F2020041F2E7
:104E90008831F8F713FEFFE706B080BD80B584B017
:104EA00044F6B171C0F20201012003900022E8F73C
:104EB00037F8039B014641F2B070C2F20000016076
:104EC00000686A4645F25551C0F2550151604BF6F3
:104ED000D661C8F68961116003210F22E8F7D0FA84
:104EE00004B080BD80B582B041F2A171C2F2000170
:104EF0000120487000200190C1F80200C1F80600AE
:104F00004DF60050C0F26D0000F086FA0198E0F70F
:104F100004FD00F0BBF802B080BD000080B541F296
:104F2000A171C2F20001082048700020C1F80200FF
:104F3000C1F8060049F60070C0F2240000F06CFAD7
:104F400080BD000080B500F0B3FB0238B0FA80F0FD
:104F5000400980BD41F29470C2F20000016801393D
:104F600001600068002802DCFFE762B6FFE77047D7
:104F700080B54EF21001CEF200010120086062B649
:104F8000F8F708FD41F28C70C2F20000016841F2AE
:104F90009070C2F200000068884780BD80B582B082
:104FA0000190009100F074F9002002B080BD000073
:104FB00080B582B00190009141F2A170C2F2000070
:104FC0004078C00718B1FFE700F060F8FFE702B0D3
:104FD00080BD000046F62400C0F2020070470000C9
:104FE00080B588B08DF81F00ADF81C100692ADF8A2
:104FF000163006980078A72845D1FFE70698BDF837
:1050000016100DF10E02FFF7BDFE0490BDF80E0064
:10501000C0B3FFE70498023002900298007801467E
:105020000191A12804D0FFE70198A32813D027E01D
:105030000299C81CB1F8011000F03AFCBDF81C1030
:10504000BDF80E200298C31C46F61920C0F20200DB
:10505000F8F7BEFC15E00299C81CB1F80110BDF8C4
:105060001C20FFF729FDBDF81C10BDF80E2002988A
:10507000C31C46F6FD10C0F20200F8F7A9FC00E0E0
:10508000FFE7FFE7FFE708B080BD000080B584B010
:10509000F8F776FC00900846009940F6B832891877
:1050A00040F100000291039041F2AC71C2F20001A4
:1050B00008780130087041F29872C2F20002107054
:1050C0000298039BC2F80530C2F8010041F2B070AB
:1050D000C2F2000001900068097801F07F01092305
:1050E000E8F7FDF901980068029A039BE8F7B2F827
:1050F00078B1FFE741F2A171C2F20001D1F80600D8
:105100000130C1F80600062000221146E1F7F8FB45
:1051100009E041F2A171C2F20001D1F802000130B0
:10512000C1F80200FFE704B080BD00007047000036
:1051300080B582B046F64D20C0F20200F8F748FC78
:1051400000200190FFE70198012828DCFFE79DF887
:105150000400400740B9FFE7019946F64220C0F23B
:105160000200F8F735FCFFE7019941F27C70C2F2CA
:10517000000030F8112046F64B21C0F2020146F63D
:105180004920C0F202004FF6FF739A4208BF08465A
:10519000F8F71EFCFFE7019801300190D3E746F6CF
:1051A0003520C0F20200F8F713FC02B080BD000009
:1051B00082B001900091002002B0704780B584B0A9
:1051C000039002910398029948430C3001F0F4FADD
:1051D0000190019900208860039801990860029865
:1051E00001994860019804B080BD000080B584B08A
:1051F00002900191F8F79CFB02980090009880685B
:10520000002806DCFFE7FFF7DDFD4FF0FF300390DD
:1052100016E00198009A02F10C015268FEF71CFF9B
:105220000099886801388860009901F10C004A688B
:105230008B6881185A43FEF70FFF00200390FFE7A9
:10524000039804B080BD000080B584B00290019145
:1052500002980090009801688068884204DBFFE7AC
:105260004FF0FF3003900FE000994A68886800FB18
:1052700002100C300199FEF7EFFE009988680130AA
:10528000886000200390FFE7039804B080BD000011
:1052900080B582B000200190FFF7F4F943F200607E
:1052A000C0F26E104FF4E131FFF712FD4020FFF71E
:1052B000E9F900F0C5F800F0F7F8019A45F2654108
:1052C000C0F202010220F8F7CBFB019A45F2D5416A
:1052D000C0F202010320F8F7C3FBFFF7B1FC02B0F4
:1052E00080BD000080B584B003900291FFF7D6FD29
:1052F00041F27C71C2F200014FF0FF30086044F6C9
:10530000FD00C0F2020044F64911C0F20201E0F7CC
:105310008DFF41F28470C2F2000045F68931C0F27F
:10532000020101914160E4F7F5FF0198E1F728F8E7
:105330000198E3F72FFA002004B080BD80B584B057
:105340000390039941F27C70C2F2000030F8110022
:105350004FF6FF71884234D0FFE7039941F27C7029
:10536000C2F20000029030F8111046F67510C0F23B
:105370000200F8F72DFB0299039A02EB420341F277
:105380006470C2F2000000EB830031F8122044F692
:10539000E171C0F202010A23E3F709F902980399C7
:1053A00030F8111041F2BC50C2F200006A461060A1
:1053B00045F65560C0F202000B220223E3F76AFCB7
:1053C000FFE704B080BD00007047000085B0844650
:1053D0000598CDF810C00391029201938DF8030057
:1053E0009DF8030068B9FFE7039841F28C71C2F29F
:1053F00000010860029841F29071C2F20001086059
:10540000FFE741F28071C2F20001086801300860D4
:1054100005B070477047000080B582B001900199D7
:1054200042F20000C4F200000090FFF75FF900981C
:10543000FFF752F90098FFF731F902B080BD000084
:1054400080B582B08020FFF71DF942F20000C4F25F
:10545000000001900121FFF751F90198FFF732F99F
:1054600002B080BD80B582B0019041F2A170C2F25D
:105470000000407801460091012807D0FFE700981E
:10548000082806D1FFE7FFF769FC03E0FFF746FDB8
:1054900000E0FFE742F20000C4F20000FFF708F965
:1054A000002002B080BD000080B582B04FF4807053
:1054B000FFF7E8F843F20000C4F200000190002179
:1054C000FFF71CF90198FFF7FDF80198FFF704F9C1
:1054D00002B080BD80B582B00190FFF725FB43F29A
:1054E0000000C4F20000FFF7E3F8002002B080BD26
:1054F00080B582B001900198002810D4FFE7019890
:1055000007280CDCFFE7019800EB800141F2C05056
:10551000C2F2000000EB8100007C08B9FFE70CE05C
:10552000019800EB800141F2C050C2F2000000EB94
:105530008100416880688847FFE702B080BD0000B5
:1055400080B50020FFF7D4FF80BD000080B50120AA
:10555000FFF7CEFF80BD000080B50220FFF7C8FF37
:1055600080BD000080B50320FFF7C2FF80BD0000B2
:1055700080B50420FFF7BCFF80BD000080B505208A
:10558000FFF7B6FF80BD000080B50620FFF7B0FF33
:1055900080BD000080B50720FFF7AAFF80BD000096
:1055A00080B586B004900391029200200190FFE73D
:1055B0000198072812DCFFE7019800EB800141F217
:1055C000C050C2F2000000EB8100007C08B9FFE788
:1055D00004E0FFE7019801300190E9E7019808280D
:1055E0000ADBFFE746F65720C0F202005B21F8F71E
:1055F000F9F90020059030E00299019800EB800253
:1056000041F2C050C2F2000000EB820251600399E7
:10561000019A02EB820200EB82029160049A02EB93
:1056200052014CF6CD43CCF6CC43A2FB033201EB46
:10563000D201019A02EB820200EB8202D160019951
:1056400001EB810100EB810201211174019901EB51
:10565000810100EB81000590FFE7059806B080BD51
:1056600080B584B0039003980290029800680021EE
:105670000191F8F723FA01980299087404B080BDEB
:1056800080B582B001900198009000990868C968BF
:10569000F8F714FA02B080BD80B582B0019001988D
:1056A0000090009800680021F8F708FA02B080BD69
:1056B00082B0002000900190FFE70198012815DCDE
:1056C000FFE7019941F27C70C2F2000030F811004E
:1056D0004FF6FF71884204D0FFE700980130009038
:1056E000FFE7FFE7019801300190E6E7009802B07C
:1056F0007047000080B582B00190FFE741F20000E2
:10570000C4F20200FFF75EF80090009808B9FFE7C6
:1057100016E0009841F24401C4F2020108609DF8CD
:105720000000C006002803D5FFE700F00DF8FFE7F2
:105730009DF800008006002801D5FFE7FFE7DDE7C0
:10574000002002B080BD000080B584B041F2B67088
:10575000C2F200000390FFE741F20000C4F2020031
:10576000FFF720F8012815D0FFE741F20000C4F24E
:10577000020000688DF80B009DF80B00039941F2C0
:10578000B47CC2F2000CBCF80020531CACF8003012
:105790008854E1E741F2B470C2F2000000880228A8
:1057A00053DBFFE741F2B470C2F20000008841F21F
:1057B000B671C2F2000149780231884245D1FFE753
:1057C000039801784278837846F60310C0F202000D
:1057D000F8F7FEF841F2B670C2F200000078013826
:1057E00001460191032828D80199DFE801F0020E53
:1057F000050AFFF799F921E04FF44870FFF782F9A5
:105800001CE00820FFF77EF918E041F2B470C2F204
:105810000000008803280FDBFFE741F2B470C2F2FA
:1058200000000088811E41F2B670C2F20000023012
:1058300089B2FFF725F9FFE700E0FFE741F2B47115
:10584000C2F2000100200880FFE704B080BD000024
:1058500080B582B00190ADF802100020ADF80000D4
:10586000FFE7BDF80000BDF8021088421CDAFFE730
:10587000FFE741F20000C4F20200FEF79BFF01289F
:1058800001D1FFE7F5E70198BDF80010415C41F256
:105890000000C4F20200FEF741FFFFE7BDF8000080
:1058A0000130ADF80000DCE7002002B080BD000050
:1058B00080B582B00190ADF8021041F6B800C2F296
:1058C0000000022101709DF8021041700199BDF89D
:1058D00002200230FEF7C0FB0C2000221146E1F747
:1058E0000FF802B080BD000080B58CB00B900A911B
:1058F000ADF826200B98053801460491072800F2E0
:1059000040810499DFE811F00800210030002D00EB
:105910008B00DE005300340141F2AB70C2F2000094
:10592000007888B1FFE746F6EC10C0F20200F8F705
:105930004FF841F2AB71C2F2000100200870E1F7AC
:10594000C5FDFFF741FAFFE71CE141F2A170C2F289
:1059500000004078C00718B1FFE7FFF797FBFFE7AB
:1059600010E1FFF7BFFA0DE100208DF82500FFE7F9
:105970009DF82500012819DCFFE79DF8251041F26C
:105980007C70C2F2000030F811004FF6FF718842BF
:1059900005D0FFE79DF82500FFF704F8FFE7FFE7D4
:1059A0009DF8250001308DF82500E1E7FFE7002094
:1059B0008DF82400FFE79DF8240001282EDCFFE786
:1059C0009DF8241041F27C70C2F2000030F8110002
:1059D0004FF6FF7188421AD0FFE7BDF8260088B164
:1059E000FFE7BDF8260090B1FFE79DF8241041F2D3
:1059F0007C70C2F2000030F811000A9909888842D0
:105A000005D0FFE79DF82400FEF7BCFFFFE7FFE7A6
:105A10009DF8240001308DF82400CCE7FFE7BDF8A5
:105A20002600ADF8200002208DF81E00BDF82000F1
:105A300001460391032814D80399DFE801F0020618
:105A40000A0E01208DF81F000BE002208DF81F00C8
:105A500007E001208DF81E00FFE704208DF81F00ED
:105A6000FFE700208DF82300FFE79DF823000128C1
:105A700027DCFFE79DF8231041F27C70C2F20000A2
:105A800030F811004FF6FF71884213D0FFE79DF800
:105A9000231041F27C70C2F2000030F811009DF832
:105AA0001F309DF81E106A46116000211A46E2F769
:105AB000F3F8FFE7FFE79DF8230001308DF823009E
:105AC000D3E75FE0BDF82600ADF81600BDF816106C
:105AD0006FF0010000EB4100ADF8140000208DF8DC
:105AE0001D00FFE79DF81D00012840DCFFE79DF841
:105AF0001D1041F27C70C2F2000030F811004FF628
:105B0000FF7188422CD0FFE79DF81D1041F27C7098
:105B1000C2F2000030F81100BDF81620BDF81410D4
:105B20006B46996059604FF4C861196000231146B3
:105B3000E2F71AF906909DF81D10BDF816007D22B7
:105B4000504348F21F52C5F2EB12A0FB022042095B
:105B5000069B46F61510C0F20200F7F739FFFFE783
:105B6000FFE79DF81D0001308DF81D00BAE709E040
:105B700041F6B800C2F2000041780230FFF768FE3B
:105B800000E0FFE70CB080BDB0B596B08DF85700CF
:105B9000ADF854101492ADF84E301498FFF706F992
:105BA0008DF847009DF85700042801D0FFE74FE12A
:105BB0009DF8470001460891052800F0E780FFE7BF
:105BC00008983E2828D0FFE7089860280AD0FFE709
:105BD0000898782800F01381FFE70898FF2800F064
:105BE0002B8134E11498FEF799FF022801D0FFE7DA
:105BF0002EE10220E7F7E6FD014646F64310C0F22B
:105C00000200F7F7E5FE46F67000C0F20200E2F788
:105C100051F8FFF7D9F81BE11498FFF7C1F80146D6
:105C20000791032871D0FFE707980A2828D0FFE7DB
:105C300007980D2840F0A880FFE7149804300F90D3
:105C4000DDF83CC09CF808109CF807209CF8034045
:105C50009CF804E09CF805009CF806309CF90D5077
:105C6000EC46CCF80C50CCF80840CCF804E0CCF86A
:105C7000000046F69C10C0F2020000F0FBF884E041
:105C800041F2AB71C2F20001002008701498033099
:105C90001290129840790E901298007858BBFFE746
:105CA0001298B0F801000E9A41F27C71C2F2000124
:105CB00021F812000E980690FFF7FAFC06990246AA
:105CC00046F65710C0F20200F7F782FE1298B0F8BD
:105CD0000100E2F761FC1298B0F801006A46062163
:105CE000916051604FF44871116008220023114601
:105CF000E2F73AF806E046F6C110C0F20200F7F704
:105D000067FEFFE7FFF760F83FE0149803300D905F
:105D10000D98B0F801100491B0F80300FEF744FBB1
:105D2000002205920023C3F6F473FEF75CFA0246E4
:105D30000B46049946F6C810C0F20200F7F748FE79
:105D400005988DF83300FFE79DF8330001281ADC31
:105D5000FFE79DF8331041F27C70C2F2000030F88A
:105D600011000D99B1F80110884205D1FFE79DF8A7
:105D70003300FFF7E3FA06E0FFE79DF83300013058
:105D80008DF83300E0E700E0FFE761E014980230AF
:105D90000B9000200A90FFE70A98012823DCFFE718
:105DA0000A9941F27C70C2F2000030F811000B99A0
:105DB000B1F80110884211D1FFE70A9A41F27C71D3
:105DC000C2F200014FF6FF7021F812000A9946F660
:105DD0003720C0F20200F7F7FBFDFFE7FFE70A9864
:105DE00001300A90D8E7FFF763FC014646F66910D8
:105DF000C0F20200F7F7ECFDFEF7E6FF28E0002016
:105E00000990FFE70998012815DCFFE7099941F29D
:105E10007C70C2F2000030F811004FF6FF7188422A
:105E200004D0FFE70998FEF717FEFFE7FFE70998A0
:105E300001300990E6E70BE01498FEF7BDFF1090E3
:105E4000109A106851681289FFF74EFD00E0FFE7D5
:105E500016B0B0BD83B08DF80B00ADF808100192FC
:105E6000ADF8023001980078A02801D1FFE7FFE7E4
:105E700003B070470FB4054B10B503A9044A02984C
:105E800000F0DAF810BC5DF814FB00006D4D020064
:105E90009815002002E008C8121F08C1002AFAD194
:105EA00070477047002001E001C1121F002AFBD19A
:105EB000704700002DE9FF5F82B00021DDE904306A
:105EC000020DDDF840B0034318D044F61050A2F2A2
:105ED000FF3242431514119801281FD0A5EB0B0087
:105EE000401C5FEA000A4FF000064E4FDFF8389181
:105EF000B046504615D5CAF1000413E011980124AC
:105F00004AA3012801D16FEA0B010298119AC0E956
:105F10000031C0E9024206B0BDE8F09FCBF10000BD
:105F2000DFE704460021404A491842EB0450CDE91E
:105F3000001012E0E00707D032463B464046494693
:105F4000FEF751F98046894632463B4610461946CF
:105F5000FEF749F906460F466410002CEAD1DDE948
:105F60000401DDE90023BAF1000F06DAFEF73BF980
:105F700042464B46FEF737F905E0FEF7A6F94246E2
:105F80004B46FEF7A2F904460E460022284BFEF7C8
:105F9000F9FA03D84FF0FF30014607E00022254B05
:105FA00020463146FEF778F8FEF7D4FA102409E0CF
:105FB000002C0ADB0A220023FEF71DFA039B303275
:105FC0001A55641E50EA0102F2D1641C039AC4F10E
:105FD00011031444119A012A03D0012208430DD160
:105FE0000AE0084304D000204FF0110B119072E733
:105FF000A3EB0B056D1E0DE05B4504DD4FF00002C9
:1060000005F1010504E003DA4FF00002A5F10105F6
:10601000002AECD002981199C0E90231C0E900458C
:1060200079E70000000014400000F03F300000005D
:106030000000F0430000E03F2DE9FF4F95B09B4684
:106040008946064600250FE2252877D100242746F9
:10605000F84A0121059400E0044316F8013F203B73
:1060600001FA03F01042F7D130782A2811D06FF0EE
:106070002F033078A0F13002092A16D8059A44F08F
:10608000020402EB820203EB42021044761C0590EC
:10609000EFE759F8042B0592002A03DA504244F442
:1060A0000054059044F00204761C30782E2816D156
:1060B00016F8010F44F004042A280DD06FF02F02C7
:1060C0003078A0F13003092B09D807EB870302EBE6
:1060D0004303C718761CF3E759F8047B761C307825
:1060E0006C280FD006DC4C2817D068280DD06A2801
:1060F00014D104E0742810D07A280FD10DE044F4B4
:1061000000140AE044F4801401E044F4401472786E
:10611000824202D104F58014761C761C3078662801
:106120000BD013DC582877D009DC002875D045281F
:10613000F6D04628F4D047281AD19DE118E063280C
:1061400035D0642879D0652812D195E1702873D0B4
:1061500008DC6728F1D069286FD06E280DD06F2831
:1061600006D1B5E073282CD0752875D0782874D066
:106170005A46179990476D1C75E1C4F302500228E6
:1061800009D003280DD0D9F8001004280DD00D60D7
:1061900009F1040967E1D9F80010EA17C1E90052D2
:1061A000F6E7D9F800100D80F2E70D70F0E719F866
:1061B000041B8DF8001000208DF80100EA46012034
:1061C00003E059F804AB4FF0FF3061074FF00001D6
:1061D00002D40DE008F101018846B9420FDA80458A
:1061E000F8DB1AF808100029F4D108E008F10101E1
:1061F00088468142FADB1AF808100029F6D1059882
:106200005B46A0EB080721463846179A00F094FA3F
:10621000284400EB080507E04DE029E10DE01AF8FD
:10622000010B5A4617999047B8F10108F7D25B461F
:1062300021463846179A13E142E00A220092C4F33D
:1062400002524FF0000A022A08D059F804CB032A60
:106250004FEAEC710AD00DE029E02AE009F10701CC
:1062600021F00702F2E802C1914609E00FFA8CFC26
:106270004FEAEC71042A03D14FFA8CFC4FEAEC711F
:10628000002907DA0A460021DCF1000C61EB02016B
:106290002D2202E0220504D52B228DF804200122B4
:1062A00003E0E20701D02022F7E7904659E00A21F7
:1062B00002E010220DE010214FF0000A00910BE0E7
:1062C00010224FF0000A44F004040827009203E073
:1062D00008224FF0000A0092C4F30252022A05D0AD
:1062E00059F804CB0021032A08D009E009F107017D
:1062F00021F00702F2E802C1914605E01FFA8CFC8A
:10630000042A01D10CF0FF0C4FF00008220728D519
:10631000702806D0009B83F0100353EA0A0305D0CF
:106320000EE040228DF80420012208E05CEA010220
:1063300006D030228DF804208DF805000222904608
:10634000009B83F0080353EA0A030AD15CEA0102C6
:1063500001D1620705D530228DF804204FF00108E5
:106360007F1E582804D034A003900EA802900DE0A0
:1063700036A0F9E753466046009AFEF73CF884469B
:106380000398825C0298401E029002705CEA010051
:10639000F0D1029806A9081A00F1200A600702D578
:1063A00024F4803400E00127574502DDA7EB0A0002
:1063B00000E0002000EB0A01009005984144401ADB
:1063C0000590E00306D45B462146179A059800F035
:1063D000B3F90544002706E001A85A46C05D1799A5
:1063E00090476D1C7F1C4745F6DBE0030CD55B46F0
:1063F0002146179A059800F09FF9054404E03020E3
:106400005A46179990476D1C0099481E0090002924
:10641000F5DC08E0029802995A460078491C02917E
:10642000179990476D1CBAF10001AAF1010AF1DC3D
:1064300065E1000009280100303132333435363748
:1064400038396162636465660000000030313233C0
:106450003435363738394142434445460000000060
:1064600000F058F90544761C307800287FF4ECAD34
:1064700019B02846BDE8F08F620700D4062709F15D
:10648000070222F0070CFCE80223E14603F0004873
:106490005FEA080C02D00FF2702C0DE05FEA045C9A
:1064A00002D50FF2682C07E05FEAC47C02D00FF23D
:1064B000602C01E0AFF2700C4FF0FF3823F0004386
:1064C000CDF850C065280CD006DC452809D04628F8
:1064D0001DD047283DD13DE0662818D067287ED1E1
:1064E00038E00021112F01DB112000E0781CCDE9FC
:1064F000000106A90EA8FFF7DDFCDDE90F010E9AE9
:1065000003910021009207F1010A04914DE04FF040
:1065100000400097CDE9011006A90EA8FFF7CAFCBC
:10652000DDE90F0203920E9B11990022DDF80CA009
:106530000093049211B9791C00EB010AB7EB0A0031
:1065400004D4C0F1FF3007F1010A0490AAEB070060
:10655000019044E0012F00DA01270021112F01DD15
:10656000112000E03846CDE9000106A90EA8FFF78A
:10657000A1FCDDE90F010E9A039100210491009224
:10658000BA4621070CD40399514500DA8A46BAF17C
:10659000010F05DD009AAAF10101515C302908D0F4
:1065A000B84202DA10F1040F06DA0121CDE9011038
:1065B00015E0AAF10101E9E7002805DC049901448E
:1065C0000491AAEB000102E0411C514500DD8A461E
:1065D0000499401A401C01904FF00040029020079F
:1065E00004D40198504501DBCDF8048000208DF8DB
:1065F0004F0002980DF14F07B0F1004F25D02B202E
:106600000E9002984FF0020800280CDA40420290E7
:106610002D200E9007E00A210298FDF7D6FE3031BA
:10662000029007F8011DB8F10001A8F10108F2DCA1
:1066300002980028EFD1791E0E980870307800F08B
:10664000200040F0450007F8020D12A8C01B00F121
:1066500007081498007800B1012000EB0A010198A6
:1066600001EBE07105984144401A401E0590E0039B
:1066700006D45B462146179A059800F05DF805445C
:106680001498007818B15A46179990476D1CE0038A
:1066900024D55B462146179A059800F04DF805442D
:1066A0001CE00498002807DBDDE90301884203DDD4
:1066B0000098405C179901E0179930205A4690479E
:1066C000049805F10105401C04900198401E0190BA
:1066D00004D12E205A46179990476D1CBAF100013B
:1066E000AAF1010ADDDC05E017F8010B5A461799FB
:1066F00090476D1CB8F10001A8F10108F4DC5B467D
:106700002146179A0598ABE62D0000002B000000EB
:10671000200000002DE9F041044600251E461746E2
:10672000880404D405E039462020B0476D1C641E5F
:10673000F9D52846BDE8F0812DE9F0410446002551
:106740001E469046C80301D5302700E02027880464
:1067500004D505E041463846B0476D1C641EF9D5A6
:106760002846BDE8F081000010B5002821D0114B6B
:106770000022001F196803E0814203D80A464968D5
:106780000029F9D152B11368841A9C4204D10068DF
:1067900018441060104602E0506000E0186039B103
:1067A00002680B1A934203D10B681A4402604968CD
:1067B000416010BD9C150020F0B50B30154D20F048
:1067C00007010024144A0FE003688B420BD38B426D
:1067D00005D95E1A43184768C3E9006700E04368BB
:1067E000136002C004E0021D10680028ECD12046AE
:1067F000002802D1286808B10020F0BD064A0748E9
:106800001060074A121A22F00702C0E90024012092
:106810002860D7E7A01500209C150020C41900208F
:10682000C0190020A15502008156020099560200AD
:1068300061560200CD530200BD51020049520200D0
:10684000ED510200254D02003D4D0200354D020084
:10685000B967020069670200494D0200554F020006
:10686000714F020015540200C95302002D5102005D
:10687000D1F83365F423484152444641554C543ACB
:106880000A5043203A203078253038580A4C52209C
:106890003A203078253038580A5053523A20307810
:1068A000253038580A5230203A2030782530385870
:1068B0000A5231203A203078253038580A52322096
:1068C0003A203078253038580A5033203A20307832
:1068D000253038580A5231323A203078253038582D
:1068E0000A005B4F4F4D5D20402025640A005B414C
:1068F0005353455254494F4E5D20402025733A254D
:10690000640A0075617274207278202578202578D9
:106910002025780A00636F6E6E207570646174655F
:106920002825642920746F2025646D732028256430
:1069300029200A00636F6E6E656374696E672E2E80
:106940002E0A007065726970686572616C206E75E0
:106950006D3A2025640A00436F6E6E65637465644A
:1069600020746F202325642E20546F74616C203DA9
:106970002025640A0073746172745F6E6F746966B7
:10698000792068616E646C652025640A00414C4C76
:1069900020436F6E6E65637465640A00253032585B
:1069A0003A253032583A253032583A253032583A62
:1069B000253032583A253032583A202564426D0A43
:1069C000006661696C730A00434F4E4E2075706417
:1069D000617465643A2025642C20696E7465727652
:1069E000616C20252E3266206D730A00696E697411
:1069F000696174652074696D6F75740A00646576E9
:106A00002073796E63282564292073697A653A2595
:106A1000642C20307825780A00706572697068658A
:106A200072616C282564292073697A653A25642C83
:106A300020307825780A0044697363202325642E6A
:106A400020000A2532643A20002A002E00436F6E8F
:106A50006E204D61703A006E6F6F735F696D706C80
:106A60002E630053594E4320434D4420284D3A2570
:106A70006C6C642975730A00986A020098150020EE
:106A8000C8000000945E0200606B020060160020E7
:106A900060070000A45E020000000000000000008B
:106AA00000000000C3D4179AED00010096006400B6
:106AB0005E015E01000020030700070001000000E6
:106AC000415502000000000000000000000000002E
:106AD000000000004D550200000000000000000012
:106AE00000000000000000005955020000000000F6
:106AF00000000000000000000000000065550200DA
:106B00000000000000000000000000000000000085
:106B100071550200000000000000000000000000AD
:106B2000000000007D550200000000000000000091
:106B30000000000000000000895502000000000075
:106B40000000000000000000000000009555020059
:106B50000000000000000000000000000000000035
:0400000500024009AC
:00000001FF
