:020000040202F6
:10800000000000001D800202DFF80CD000F012F822
:1080100000480047258002020C5A002002B50348A0
:10802000004700000248804702BD00003580020280
:10803000119B0202064C074D06E0E06840F0010388
:1080400094E8070098471034AC42F6D3FFF7E0FFFE
:1080500010B0020230B0020240EA01039B0703D0D5
:1080600009E008C9121F08C0042AFAD203E011F877
:10807000013B00F8013B521EF9D27047D2B201E039
:1080800000F8012B491EFBD270470022F6E710B51D
:1080900013460A4604461946FFF7F0FF204610BD76
:1080A000034611F8012B00F8012B002AF9D11846DC
:1080B00070472DE9FE4F804681EA0300C00F0C4651
:1080C000009021F0004123F00045B8EB0200A941E7
:1080D00005D24046214690461C460B46024623F0F8
:1080E0000040104347D0270DC7F30A00C3F30A51DD
:1080F0000290401A019040286BDAC3F3130040F459
:10810000801B0098924620B10023D2EB030A63EB58
:108110000B0B01985946C0F14002504600F026F979
:1081200006460D4650465946019A00F02EF910EBCE
:1081300008006141002487EA115284EAE7731A4378
:1081400040D0009A62B3019A012A4FEA075215DC27
:10815000001B61EB02014FF0004202EA0752CDE939
:108160000042001C41F5801132462B4600F02EF9EA
:1081700003B0BDE8F08F40462146F9E7001B61EBF4
:108180000201001C41F5801300185B412018A2F584
:10819000001747EB030140EAD570B6196D4111E0B5
:1081A0006D084FEA360645EAC0754FEA0752001BD4
:1081B00061EB0201001C41F5801149084FEA3000D3
:1081C0000019514132462B4603B0BDE8F04F00F094
:1081D000EEB80098012240000023D0EB020263EBCE
:1081E000E073009821464FEAE074B8EB000061EBC1
:1081F0000401E9E783F000435BE781F0004158E7C1
:108200002DE9F04D81EA030404F0004B21F0004514
:1082100014464FF0000A23F0004150EA050220D036
:1082200054EA01021DD0C5F30A570246C5F31303F1
:10823000C1F31300C1F30A5640F4801543F48013D0
:10824000A7EB0608101BD64608F2FD3873EB0500B5
:1082500002D308F1010801E092185B41B8F1000F68
:1082600003DA00200146BDE8F08D00204FF48011B4
:10827000064684460EE0171B73EB050705D3121B59
:1082800063EB050306434CEA010C49084FEA300052
:1082900092185B4150EA0107EDD152EA030012D077
:1082A00082EA040083EA0501084305D0101BAB41B4
:1082B00006D20122002306E000224FF0004302E034
:1082C0006FF0010253101AEB06004CEB085110EB53
:1082D0000A0041EB0B01BDE8F04D00F068B830B585
:1082E0000B46014600202022012409E021FA02F574
:1082F0009D4205D303FA02F5491B04FA02F528440E
:10830000151EA2F10102F1DC30BD2DE9F05F05463A
:10831000002092469B4688460646814640241BE044
:10832000284641464746224600F040F953465A4601
:10833000C01A914110D311461846224600F016F893
:108340002D1A67EB01084F4622460120002100F05C
:108350000DF817EB00094E41201EA4F10104DFDCEB
:10836000484631462A464346BDE8F09F202A04DBB2
:10837000203A00FA02F1002070479140C2F1200338
:1083800020FA03F3194390407047202A06DBCB17ED
:10839000203A41FA02F043EAE07306E041FA02F3C0
:1083A000D040C2F12002914008431946704710B5F1
:1083B000141E73F1000408DA401C41F10001921808
:1083C0005B411A4301D120F0010010BD2DE9F04DB1
:1083D00092469B4611B1B1FA81F202E0B0FA80F206
:1083E00020329046FFF7C2FF04460F4640EA0A00DB
:1083F00041EA0B0153465A46084313D0114653EA4B
:10840000010019D0C8F14002504600F0CFF80546EF
:108410000E46504659464246FFF7A8FF084305D08E
:10842000012004E020463946BDE8F08D00200543D8
:1084300046EAE0762C4337430A986305E40AA0EB4A
:1084400008000022FD0A44EA47540A3002D5002001
:108450000146E9E7010510196941DDE90845001900
:108460006941BDE8F04DA2E72DE9FE4F81EA030422
:1084700004F0004421F0004100944FF0000B23F081
:10848000004350EA01045ED052EA03045BD0C3F318
:108490000A54C1F30A552C44A4F2F3340194A0FB0E
:1084A0000254C1F3130141F48011C3F3130343F4E5
:1084B000801301FB024400FB034E840A970A44EA3E
:1084C000815447EA8357A4FB076802958D0A05FB90
:1084D00007854FEA932C04FB0C542705029D4FEAB5
:1084E000065847EA1637B5EB08056EEB070C870E02
:1084F000920E47EA811742EA8312A7FB0201B6EB0C
:108500000B0164EB00042B0D43EA0C335E1844EBC3
:108510001C50DA465146E7FB0201C5F313044FEA4B
:108520000B3343EA14534FEA0432019C43EA060337
:10853000A4F10C040294009CCDE900B4FFF746FFBF
:1085400003B0BDE8F08F00200146F9E7C1F30A52FD
:10855000C1F3130140F2FF3341F480119A4202DA71
:1085600000200146704740F233439A42A2F2334260
:1085700002DC524200F01AB8FFF7F8BE30B5041E14
:1085800071F1000404DB4FF00044404264EB010150
:10859000141E73F1000405DB1C464FF000435242E9
:1085A00063EB0403994208BF904230BD202A04DBEC
:1085B000203A21FA02F00021704721FA02F3D0405C
:1085C000C2F120029140084319467047F0B583B0CC
:1085D000029001910198006800900199086820F0CC
:1085E0000100086002984CF24001C4F2000101EB66
:1085F0004012470101980469456906684368D0F84C
:1086000008C0D0F80CE0CE5155611461C2F80CE0FE
:10861000C2F808C05360806990610098019A1060A8
:1086200002984201885840F00100885003B0F0BD24
:1086300083B08DF807009DF80700014600911A28C5
:1086400000F282800099DFE801F00E141A1F252B3A
:108650007334393F7F7F7F7F7F7F454B51565C313D
:1086600065686D79620041F20000C4F20100029079
:108670006DE042F20000C4F20100029067E02C209D
:10868000C4F21600029062E04EF22C00C4F2000028
:1086900002905CE043F22000C4F20100029056E038
:1086A00049F21400C4F20000029050E00020029051
:1086B0004DE01020C4F20100029048E048F224008E
:1086C000C4F20000029042E04FF20C00C4F200003D
:1086D00002903CE041F20000C4F20100029036E05A
:1086E00042F20000C4F20100029030E02C20C4F2FB
:1086F000160002902BE04EF22C00C4F20000029013
:1087000025E044F22000C4F2010002901FE00020A6
:1087100002901CE00020029019E00C20C4F201003D
:10872000029014E045F21C00C4F2000002900EE03A
:1087300045F23C00C4F20000029008E045F25C0003
:10874000C4F20000029002E000200290FFE70298CD
:1087500003B0704780B582B08DF806009DF8060022
:10876000014600911A2829D80099DFE801F00E0E81
:10877000121A0E23232323232727272727270E0E0A
:10878000121A0E2323232323230000208DF8070031
:1087900018E00020C4F2160000F0FAF88DF8070087
:1087A00010E04EF20000C4F2000000F0F1F88DF885
:1087B000070007E002208DF8070003E002208DF893
:1087C0000700FFE79DF8070002B080BD80B58CB0C0
:1087D00084460F980E98CDF828C08DF8271008927F
:1087E00007938DF81B009DF8270000F0D1FD059040
:1087F0009DF82700FFF7AEFF04909DF82700FFF7D4
:1088000017FF039008980799084300F003000290AF
:10881000059804990843C00F0399002908BF012057
:1088200020B1FFE74FF0FF300B9037E004980228AB
:1088300009D1FFE79DF81C00800720B1FFE76FF02A
:1088400001000B902AE00F989DF81B1040EA81313F
:10885000029A41F48000002A18BF0846059940EAB0
:108860000110049940EA814040F490300A99086070
:10887000029818B1FFE70798019003E00798800875
:108880000190FFE701980A99486003980A990861E6
:1088900008980A99886000200B90FFE70B980CB0AD
:1088A00080BD000080B58AB084460D980C98CDF844
:1088B00020C007918DF81B2005938DF813009DF8BB
:1088C0001B0000F065FD03909DF81B00FFF742FFC1
:1088D00002909DF81B00FFF7ABFE019007980599E9
:1088E000084300F003000090039802990843C00F6A
:1088F0000199002908BF012020B1FFE74FF0FF30A8
:10890000099025E00D98039940EA0120029940EA78
:1089100041509DF8131040EA013040F42031009A94
:1089200040F42820002A18BF0846089908600598D6
:10893000029A0121914090FBF1F008994860079854
:108940000899086101980899886000200990FFE75C
:1089500009980AB080BD000081B08DF803009DF831
:10896000030048B1FFE74CF22001C4F2000108689F
:1089700040F00100086008E04CF22001C4F2000160
:10898000086820F001000860FFE701B070470000B0
:1089900083B0019001980069C0F304200146009162
:1089A000072804D0FFE700980F2803D005E0002037
:1089B000029005E00120029002E002200290FFE711
:1089C000029803B07047000086B08DF817008DF84C
:1089D00016109DF817000490049900201F29C8BFA5
:1089E00001200390049800F01F01012088400290AC
:1089F000039946F28000C4F2000000EB8100019070
:108A0000039946F28800C4F2000000EB8100009058
:108A10009DF8160030B9FFE7029A01990868904363
:108A2000086016E09DF81600012806D1FFE7029ABB
:108A3000009908681043086005E0029A00990868E8
:108A400090430860FFE7029A0199086810430860A4
:108A5000FFE7002006B0704780B586B0DDF820C083
:108A60008DF813000391029201939DF813007F2863
:108A700012D1FFE7029946F24000C4F2000000EB79
:108A800081009DF804209DF820304FF0FF3101F067
:108A90000BFB0020059024E003989DF8131001F0D3
:108AA00093FA00900098B0F1FF3F03DCFFE70098D5
:108AB000059016E0029946F24000C4F2000000EB77
:108AC000810000999DF804209DF8203001F0ECFA17
:108AD0009DF813009DF80C1000F00AF90020059095
:108AE000FFE7059806B080BDB0B584B094468E46C9
:108AF00004460A980999089A8DF80B408DF80AE007
:108B00008DF809C08DF808308DF807208DF8061013
:108B10008DF805009DF80A009DF80B1001EB410C43
:108B20004AF6FA31C0F2022111F81C104AF6EE3270
:108B3000C0F2022212F81C204AF6E233C0F20223ED
:108B400013F81C30EC46CCF800300523FFF784FF07
:108B500020B1FFE74FF0FF300390C5E09DF809001A
:108B60009DF80B1001EB410C4AF6FA31C0F20221DC
:108B700001EB4C0149784AF6EE32C0F2022202EBD8
:108B80004C0252784AF6E233C0F2022303EB4C0364
:108B90005B78EC46CCF800300523FFF75DFF20B191
:108BA000FFE76FF0010003909EE09DF808009DF83C
:108BB0000B1001EB410C4AF6FA31C0F2022101EB35
:108BC0004C0189784AF6EE32C0F2022202EB4C02E6
:108BD00092784AF6E233C0F2022303EB4C039B780F
:108BE000EC46CCF800300523FFF736FF20B1FFE755
:108BF0006FF00200039077E09DF807009DF80B10DE
:108C000001EB410C4AF6FA31C0F2022101EB4C01B2
:108C1000C9784AF6EE32C0F2022202EB4C02D27858
:108C20004AF6E233C0F2022303EB4C03DB78EC4656
:108C3000CCF800300523FFF70FFF20B1FFE76FF0FE
:108C40000300039050E09DF806009DF80B1001EB27
:108C5000410C4AF6FA31C0F2022101EB4C010979CC
:108C60004AF6EE32C0F2022202EB4C0212794AF6C8
:108C7000E233C0F2022303EB4C031B79EC46CCF841
:108C800000300523FFF7E8FE20B1FFE76FF0040096
:108C9000039029E09DF805009DF80B1001EB410CB5
:108CA0004AF6FA31C0F2022101EB4C0149794AF649
:108CB000EE32C0F2022202EB4C0252794AF6E23363
:108CC000C0F2022303EB4C035B79EC46CCF8003096
:108CD0000523FFF7C1FE20B1FFE76FF00500039009
:108CE00002E000200390FFE7039804B0B0BD00004D
:108CF00080B584B08DF80B008DF80A109DF80B003C
:108D00009DF80A1001F092FA01900198B0F1FF3F2E
:108D100003DCFFE701980390BAE09DF80B001128EF
:108D200012DCFFE79DF80B2046F20000C4F20000C1
:108D3000104320F00300019902F00302C2EBC203CA
:108D4000072201F0B1F9A0E09DF80B00142810DC17
:108D5000FFE701999DF80B206FF0150000EB420032
:108D6000C3B246F21000C4F20000022201F09CF9E6
:108D70008AE09DF80B0015280AD1FFE7019946F219
:108D80001000C4F200000722142301F08DF97AE0EC
:108D90009DF80B0016280AD1FFE7019946F214004E
:108DA000C4F200000722002301F07EF96AE09DF87A
:108DB0000B001E2810DCFFE701999DF80B206FF0D7
:108DC000260000EB4200C3B246F21400C4F20000D9
:108DD000022201F069F954E09DF80B001F280AD126
:108DE000FFE7019946F21400C4F20000072217239E
:108DF00001F05AF944E09DF80B0020280AD1FFE762
:108E0000019946F21400C4F2000002221E2301F070
:108E10004BF934E09DF80B0021280AD1FFE70199B6
:108E200046F21800C4F200000222002301F03CF9CF
:108E300024E09DF80B0023280FDCFFE701999DF843
:108E40000B00C0EBC000EC38C3B246F21800C4F20D
:108E50000000072201F028F90FE001999DF80B208E
:108E60006FF0370000EB4200C3B246F21800C4F2C4
:108E70000000022201F018F9FFE7FFE7FFE7FFE734
:108E8000FFE7FFE7FFE7FFE7FFE700200390FFE7CB
:108E9000039804B080BD000080B582B001900198B5
:108EA00000EB400145F23050C2F2000000EBC1007F
:108EB000183000F085FB02B080BD000080B500F0E6
:108EC00031FB80BD80B586B0059004910392FFE729
:108ED00045F23050C2F20000007818B9FFE700F008
:108EE00021FBFFE7FFE7EFF311804FF0200181F353
:108EF0001188019005980499039A00F007F80290F0
:108F0000019880F31188029806B080BD80B58AB0C0
:108F100009900891079208980490099800EB400185
:108F200045F23050C2F2000000EBC100183003904F
:108F300003984069029040B1FFE70298012819D0D8
:108F4000FFE7029802282CD032E0039800F038FBAB
:108F5000059005980799884203D2FFE70020069004
:108F600007E00798069003980499079A00F0B8FB69
:108F7000FFE720E0039800F023FB05900598079990
:108F8000884203D2FFE70598019002E0079801901C
:108F9000FFE70198069003980499069A00F0A0FB59
:108FA00009E003980499079A00F02AFB069002E072
:108FB00000200690FFE706980AB080BD80B582B019
:108FC0008DF807009DF80700012100F025F802B098
:108FD00080BD000080B582B0019000208DF80300B4
:108FE000FFE79DF80300182813DCFFE701989DF8C0
:108FF0000310C840C00728B1FFE79DF80300FFF742
:10900000DDFFFFE7FFE79DF8030001308DF8030067
:10901000E7E702B080BD000080B586B08DF817008C
:109020008DF816109DF8170001460491182800F2DB
:10903000AB810499DFE811F019002A003B004C00D5
:109040005D006E007F009000A100B200CA00E30046
:10905000F400050116012701380149015A01630195
:109060006C0175017E018F019F019DF816100C2087
:10907000C4F20000152200F0FDFF9DF81610142028
:10908000C4F20000122200F0F5FF7EE19DF81610F8
:109090000C20C4F20000162200F0ECFF9DF8161020
:1090A0001420C4F20000122200F0E4FF6DE19DF8EC
:1090B00016100C20C4F20000022200F0DBFF9DF825
:1090C00016101420C4F20000002200F0D3FF5CE16F
:1090D0009DF816100C20C4F20000032200F0CAFF15
:1090E0009DF816101420C4F20000012200F0C2FF07
:1090F0004BE19DF816100C20C4F20000042200F091
:10910000B9FF9DF816101420C4F20000022200F0EE
:10911000B1FF3AE19DF816100C20C4F200000122C4
:1091200000F0A8FF9DF816101420C4F200001122D0
:1091300000F0A0FF29E19DF816100C20C4F20000F9
:10914000052200F097FF9DF816101420C4F20000CD
:109150000A2200F08FFF18E19DF816100C20C4F2CF
:109160000000082200F086FF9DF816101420C4F2BB
:109170000000092200F07EFF07E19DF816100C2088
:10918000C4F20000092200F075FF9DF8161054206B
:10919000C4F200000C2200F06DFFF6E09DF81610FE
:1091A0000C20C4F200000A2200F064FF9DF81610A3
:1091B0001420C4F200000390132200F05BFF039818
:1091C0009DF81610142200F055FFDEE09DF81610F1
:1091D0000C20C4F200000B22019200F04BFF019A18
:1091E0009DF816101420C4F20000029000F042FF17
:1091F00002989DF81610102200F03CFFC5E09DF883
:1092000016100C20C4F200000C2200F033FF9DF871
:1092100016100820C4F20000002200F02BFFB4E07A
:109220009DF816100C20C4F200000D2200F022FF61
:109230009DF816101420C4F20000062200F01AFF58
:10924000A3E09DF816100C20C4F200000E2200F0DE
:1092500011FF9DF816101420C4F20000072200F040
:1092600009FF92E09DF816100C20C4F200000F22B6
:1092700000F000FF9DF816101420C4F200000C222C
:1092800000F0F8FE81E09DF816100C20C4F20000FA
:10929000102200F0EFFE9DF816101420C4F200001A
:1092A000082200F0E7FE70E09DF816100C20C4F2D2
:1092B0000000112200F0DEFE9DF816101420C4F20A
:1092C0000000042200F0D6FE5FE09DF816100C208E
:1092D000C4F20000122200F0CDFE9DF816101420FA
:1092E000C4F20000052200F0C5FE4EE09DF8161005
:1092F0000C20C4F20000132200F0BCFE45E09DF8F3
:1093000016100C20C4F20000142200F0B3FE3CE062
:109310009DF816100C20C4F20000002200F0AAFEF6
:1093200033E09DF816100C20C4F20000062200F075
:10933000A1FE2AE09DF816100C20C4F200001722AE
:1093400000F098FE9DF816101420C4F200000E22C2
:1093500000F090FE19E09DF816108020C4F2000085
:109360000090052200F086FE00989DF81610072256
:1093700000F080FE09E09DF816100C20C4F20000F9
:10938000192200F077FE00E0FFE706B080BD000084
:1093900085B08DF80F00002002903020C4F200004C
:1093A000006801909DF80F0010280DDBFFE70820F2
:1093B00002909DF80F0010388DF80F003420C4F291
:1093C000000000680190FFE700200090FFE7009890
:1093D0001C2819DCFFE7019800F00F009DF80F1022
:1093E000884209D1FFE702980099CA1701EB9271F0
:1093F00000EBA10004900BE0019800090190FFE749
:10940000009804300090E2E74FF0FF300490FFE74F
:10941000049805B07047000080B584B040F2A810F1
:10942000C4F210000068C002002818D5FFE74021F0
:10943000C4F2000101910868C0F345000968C1F356
:10944000C5314843029000F011F80199029AB0FB2F
:10945000F2F00968C1F3C7114843039002E000200D
:109460000390FFE7039804B080BD000083B042F290
:109470001000C4F210000068C0F300208DF807004F
:109480009DF8070030B1FFE743F20060C0F26E10B4
:10949000029039E040F27C10C4F210000068C0F382
:1094A0000430014600910F2828D80099DFE801F028
:1094B000080E26142626261A2626262626262620A6
:1094C00041F20020C0F27A0002901DE042F200401A
:1094D000C0F2F400029017E043F20060C0F26E1098
:1094E000029011E044F60000C0F2E81002900BE098
:1094F00046F60040C0F2DC20029005E049F2000090
:10950000C0F2D0300290FFE7029803B0704700002D
:1095100082B001908DF803109DF803000199086056
:1095200002B0704780B582B045F23050C2F2000000
:1095300001900199012008610199486101984BF25D
:109540000501C0F202218161019A45F28850C2F200
:109550000000D061019A4FF4FA701062019A002065
:109560009062019A5062019AD062019A1163019A45
:1095700045F27851C2F200015163019A10219163C2
:10958000019908640199C8630199486401980730FA
:109590004BF20101C0F20221FEF782FDBFF35F8FA3
:1095A00001984AF6FA71C0F20221FEF779FDBFF385
:1095B0005F8F019920208871BFF35F8F02B080BD5B
:1095C00084B003900398006902900398C0680190EA
:1095D00002980199884209D8FFE7039880680199A9
:1095E000401A029908440138009005E00299019858
:1095F000C04308440090FFE7009804B070470000A3
:1096000080B58AB0099008910792002005900998CA
:10961000C0680390FFE709980069049004980399D3
:10962000884206D9FFE704990398C043084406908E
:1096300008E0099881680398049A801AC043084496
:109640000690FFE7069809998968039A891A884263
:1096500003D2FFE70698029005E009988068039915
:10966000401A0290FFE702980690069807998842F0
:1096700003D2FFE70698019002E007980190FFE708
:109680000198069009984068039908440899069A39
:10969000FEF7E2FC0699059808440590069908989B
:1096A0000844089006990798401A0790069903986D
:1096B00008440390039809998968884203D1FFE719
:1096C00000200390FFE7BFF35F8F03980999C860FC
:1096D000FFE7079800289ED1FFE705980AB080BDF4
:1096E00080B586B00590049103920598C0680190FA
:1096F000059880680199401A009000980399884263
:1097000010D9FFE705984068019908440499039A25
:10971000FEF7A2FCBFF35F8F0198039908440599F7
:10972000C8601BE0009802900598406801990844C1
:109730000499029AFEF790FC03980099401A02904F
:10974000059840680499009A1144029AFEF784FC37
:10975000BFF35F8F02980599C860FFE706B080BD30
:1097600082B001900091009A0199C86B1043C863C0
:1097700002B0704780B582B001900091019800F06E
:1097800071F80099487891F802C0CB780A7940EADC
:109790004C0040EAC30040EA02204A7940EA8200D5
:1097A000897C40EA0140019908610099887991F823
:1097B00007C00B7B4A7B000640EA8C50B1F808E0FA
:1097C0004FF2000CCFF6FF7C0CEB0E3C40EA0C0095
:1097D000B1F80AC0ACF1010C40EA0C0040EA437059
:1097E00040EA8270497C40EAC170019908620198A0
:1097F0000099C97B00F0ECF801980099097C00F011
:1098000089F801980099097800F096F80198009974
:10981000897B00F03FF802B080BD000081B000906D
:109820000098406BC0F3052000994A6BC02101EA03
:109830009241084401B0704781B000900098C06B1D
:1098400001B0704781B000900098406E6FF39F2088
:1098500001B0704781B000900098406EC0F309409D
:1098600001B0704780B582B001900199086B40F05B
:1098700001000863FFE70198006BC00708B1FFE72C
:10988000F9E7019800F022F8019800F00DF802B015
:1098900080BD000082B001900091009A0199886B10
:1098A0001043886302B0704781B000900099086B44
:1098B00040F002000863FFE70098006B4008C00713
:1098C00008B1FFE7F8E701B07047000081B00090F1
:1098D0000099086B40F004000863FFE70098006BF4
:1098E0008008C00708B1FFE7F8E701B07047000043
:1098F00082B001908DF803100199086B20F00800E8
:1099000008639DF803200199086B40EAC2000863D0
:1099100002B0704782B001908DF803100199086B76
:1099200020F47F4008639DF803200199086B40EA0A
:109930000220086302B0704782B001908DF80310D6
:109940000199086C20F0FF0008649DF8032001993C
:10995000086C1043086402B07047000082B00190A8
:1099600000910199086A40F2FF1290430862009842
:10997000421E0199086A1043086202B07047000055
:1099800082B0019000910199086A6FF31430086267
:1099900000994FF20000CFF6FF7000EB0132019901
:1099A000086A1043086202B07047000082B001905C
:1099B0008DF803100199086B20F0100008639DF8E2
:1099C00003200199086B40EA0210086302B0704757
:1099D00082B001908DF803100199086B20F47F008C
:1099E00008639DF803200199086B40EA0240086370
:1099F00002B0704786B00590049103920498C000AD
:109A00000399B0FBF1F002900298C009019001990E
:109A10000298A0EBC110029002980130400800901B
:109A2000019805994862BDF8060018B9FFE701984A
:109A300010B9FFE7FFE7FEE701984FF6FF71884294
:109A400004D1FFE705990020886207E00199029898
:109A5000401A0290009805998862FFE70598C06A4D
:109A60000599C86206B0704781B00090009880697F
:109A7000C0F3401001B0704780B584B003900291EC
:109A8000019203990020086303994864039988634D
:109A90000399486003994862039988620399C862F0
:109AA0000398029AD1681269FFF7A4FF029890F810
:109AB00000C041788378C278802000EA411040EAF3
:109AC0004C1040EA031040EAC20001F0030140EAF2
:109AD00041000399C8620298B0F80900000400BA76
:109AE000039948630198039988630299087991F86A
:109AF00005C08B79CA79400240EA0C20184440EA3C
:109B0000C230097A40EA81300399086304B080BD0D
:109B100080B588B049F60D41C0F202210420002230
:109B20000792F5F74FF8079A49F6ED31C0F2022196
:109B30000520F5F747F8079A49F66541C0F202217A
:109B40000720F5F73FF8079A49F6A151C0F2022124
:109B500002200490F5F736F8079A4AF26901C0F23C
:109B6000022103200590F5F72DF8079A49F6814167
:109B7000C0F202211046F5F725F800F0B7FA45F6D5
:109B8000C400C2F20000039000F0A0FB039A49F663
:109B9000B541C0F202210820F5F714F8049807999E
:109BA000F4F7FAFE059A079901200690FAF756F99C
:109BB000079B0146069845F6C002C2F200021160FA
:109BC00069464B60086049F6B550C0F202204AF67B
:109BD000B371C0F202214FF4A062FAF76BFE07984E
:109BE00008B080BD81B0009001B0704780B582B0F0
:109BF000019000910198016842684AF69C70C0F299
:109C00000220F4F7A1FFFFE7FEE7000070B588B07F
:109C100007900691DDF81CC0CDF814C0DCF81810D0
:109C2000DCF81420DCF81C30DCF80000DCF804E080
:109C3000DCF80840DCF80C50DCF81060EC46CCF89E
:109C40001060CCF80C50CCF80840CCF804E0CCF80C
:109C500000004AF62470C0F20220F4F775FFFFE717
:109C6000FEE7000080B582B00190009101994AF6AC
:109C70009070C0F20220F4F767FFFFE7FEE70000F4
:109C800080B582B001900091FFE741F20000C4F27C
:109C90000100FFF7E9FE012801D1FFE7F5E7019890
:109CA000017841F20000C4F20100FFF731FC00200E
:109CB00002B080BD80B586B0059004914EF6045088
:109CC000CEF2000000686FF35F20B0FA80F0400928
:109CD0008DF80B009DF80B0028B1FFE7F4F7E2FECA
:109CE000406B8047FFE70020FFF7D6F80390059907
:109CF000088949890844039988420EDAFFE70598E4
:109D00000168028900200190FFF7DCF80198059AAC
:109D100051685289FFF7D6F8FFE79DF80B0028B18C
:109D2000FFE7F4F7BFFE806B8047FFE7002006B037
:109D300080BD000080B588B00790069103208DF8A3
:109D4000040000228DF8052001208DF806008DF812
:109D500007208DF808008DF809008DF80A008DF8AD
:109D60000B208DF80C208DF80D008DF80E00079853
:109D700004900698059041F20000C4F2010001A988
:109D8000FFF77AFE08B080BD80B582B001900091E7
:109D900001A80021FFF774FF019802B080BD000008
:109DA00080B582B00190009100F0A0F9002002B0CF
:109DB00080BD000080B582B00190FFE745F6C0008D
:109DC000C2F2000000684FF0FF31FAF763FC009028
:109DD0000098012801D0FFE7F0E7EFE780B58EB0EB
:109DE0000D900C910B9200200A900C9A0B9B6946E7
:109DF0004860086004A803900321FEF7E7FC03997C
:109E00000D98FEF7E3FB0EB080BD000080B58AB070
:109E100009904EF20000C4F20000FFF70DFD08901B
:109E20009DF82000C006002840D5FFE74EF2000054
:109E3000C4F200000290FFF7F1FC069000F092F8E7
:109E400000F068F8029806990391FFF703FD0146B8
:109E500002980491FFF7F6FC0399049A03464AF628
:109E6000ED70C0F2022000F039FA00200790FFE701
:109E700007984F2812D8FFE7079945F28070C2F281
:109E8000000050F821104AF6E570C0F2022000F000
:109E900025FAFFE7079801300790E9E74EF2000046
:109EA000C4F200001021FFF75BFC2FE09DF82000BA
:109EB0004007002814D5FFE74EF20000C4F200006E
:109EC0000190FFF7ABFC059005994AF6D470C0F2FB
:109ED0000220F4F739FE01980421FFF741FC14E059
:109EE0009DF82000000700280ED5FFE74AF6C57050
:109EF000C0F20220F4F728FE4EF20000C4F2000087
:109F00000821FFF72DFCFFE7FFE7FFE700200AB07D
:109F100080BD000080B584B045F22C51C2F2000132
:109F2000086801300860C2B245F6C800C2F20000FD
:109F300001904FF4A0710291FEF7A0F84EF20000DC
:109F4000C4F2000000900121FFF730FD009850217D
:109F5000FFF716FD0199029A0020FFF73FFF04B0BA
:109F600080BD000080B582B04EF20000C4F2000057
:109F7000009001210191FFF7BBFC00985021FFF7F1
:109F8000EDFC019845F28071C2F200014FF4A0721D
:109F900000F002F802B080BD80B58EB00D900C913B
:109FA0000B9200200A900C990B9B6A46506010603F
:109FB00004A803901322FEF775FC03990D98FEF791
:109FC00005FB0EB080BD000088B006908DF817101C
:109FD0000698C11700EB5170C0100490069800F06D
:109FE00007018020C8400390002002909DF81700D0
:109FF000013801909DF817004AF60642C0F202228D
:10A00000132110FB0120009000980499405C0399F3
:10A01000084204D1FFE74FF0FF30079020E0FFE750
:10A020000198002819D4FFE701984AF60642C0F2C9
:10A030000222132100FB0120009000980499405C4B
:10A040000399084204D0FFE7029801300290FFE72D
:10A05000FFE7019801380190E2E702980790FFE7D7
:10A06000079808B07047000082B00190009100206E
:10A0700002B0704783B002908DF807108DF806206B
:10A080009DF8061001208840009002980068009911
:10A0900088439DF807109DF80620914008430299D7
:10A0A000086003B07047000085B0049003918DF8FC
:10A0B0000B208DF80A309DF80B10012088400138E4
:10A0C000019001989DF80A108840C04300900498C0
:10A0D0000068009908400399019A11409DF80A20F0
:10A0E000914008430499086005B0704780B584B07A
:10A0F0000420FEF76FFF43F20060C0F26E104FF4D1
:10A10000E131FFF717FE00F029F849F6E530C0F21B
:10A110000220694608604AF6B170C0F202204FF48E
:10A120008061002302931A46FAF730FE014645F299
:10A130007C70C2F20000016000680390FAF734FC02
:10A14000029B02460398EC464FF0FF31CCF800101A
:10A150000121FAF787FE04B080BD000080B582B00F
:10A1600000F030F800F01AF8FFF756F901464AF609
:10A17000B570C0F20220F4F7E7FC4FF40060FEF780
:10A1800029FF0120FEF7E8FB0020FEF7E5FBFFF7C3
:10A19000E9FEFFF7BFFE02B080BD000080B586B0CB
:10A1A0004AF6CE31C0F2022101A800901422FDF738
:10A1B00053FF00994EF20000C4F20000FFF7DAFAF4
:10A1C00006B080BD80B588B042F20000C0F2200029
:10A1D000FEF700FF5C200221FEF7F6FB5D20012167
:10A1E0000491FEF7F1FB04986A4608219160092169
:10A1F000079151600B2106911160072105910A22F8
:10A200000C23FEF771FC07990598FEF771FD06997E
:10A210000798FEF76DFD079849F60D61C0F202211F
:10A220000022F4F7D9FC08B080BD000085B08DF89D
:10A230000F008DF80E109DF80F002A2804DBFFE7B1
:10A240004FF0FF3004903EE09DF80F004AF60642C2
:10A25000C0F20222132110FB012002900020019085
:10A260009DF80E000138009002989DF80E10CA0863
:10A27000805C01F007028021D140084204D1FFE751
:10A280004FF0FF3004901EE0FFE70098002817D43D
:10A29000FFE702980099CA1701EB5272D210805C56
:10A2A00001F007028021D140084204D0FFE7019865
:10A2B00001300190FFE7FFE7009801380090E4E7E4
:10A2C00001980490FFE7049805B0704780B582B00C
:10A2D0000190FEF7F3FD02B080BD00000FB4054B06
:10A2E00010B503A9044A029800F0DAF810BC5DF832
:10A2F00014FB0000899D02022855002002E008C8D6
:10A30000121F08C1002AFAD170477047002001E0EF
:10A3100001C1121F002AFBD1704700002DE9FF5F29
:10A3200082B00021DDE90430020DDDF840B00343C6
:10A3300018D044F61050A2F2FF324243151411987F
:10A3400001281FD0A5EB0B00401C5FEA000A4FF06C
:10A3500000064E4FDFF83891B046504615D5CAF189
:10A36000000413E0119801244AA3012801D16FEAE7
:10A370000B010298119AC0E90031C0E9024206B00F
:10A38000BDE8F09FCBF10000DFE704460021404A22
:10A39000491842EB0450CDE9001012E0E00707D065
:10A3A00032463B4640464946FEF75EF880468946BF
:10A3B00032463B4610461946FEF756F806460F460B
:10A3C0006410002CEAD1DDE90401DDE90023BAF1D3
:10A3D000000F06DAFEF748F842464B46FEF744F80F
:10A3E00005E0FDF70DFF42464B46FDF709FF044629
:10A3F0000E460022284BFEF7C1F803D84FF0FF307D
:10A40000014607E00022254B20463146FDF751FE6C
:10A41000FEF79CF8102409E0002C0ADB0A22002336
:10A42000FDF773FF039B30321A55641E50EA010298
:10A43000F2D1641C039AC4F111031444119A012A45
:10A4400003D0012208430DD10AE0084304D00020C4
:10A450004FF0110B119072E7A3EB0B056D1E0DE091
:10A460005B4504DD4FF0000205F1010504E003DA6D
:10A470004FF00002A5F10105002AECD002981199D5
:10A48000C0E90231C0E9004579E70000000014404E
:10A490000000F03F300000000000F0430000E03F0B
:10A4A0002DE9FF4F95B09B468946064600250FE2F1
:10A4B000252877D100242746F84A0121059400E099
:10A4C000044316F8013F203B01FA03F01042F7D194
:10A4D00030782A2811D06FF02F033078A0F13002A5
:10A4E000092A16D8059A44F0020402EB820203EB13
:10A4F00042021044761C0590EFE759F8042B0592B0
:10A50000002A03DA504244F40054059044F0020457
:10A51000761C30782E2816D116F8010F44F004046A
:10A520002A280DD06FF02F023078A0F13003092BCC
:10A5300009D807EB870302EB4303C718761CF3E740
:10A5400059F8047B761C30786C280FD006DC4C2838
:10A5500017D068280DD06A2814D104E0742810D0D0
:10A560007A280FD10DE044F400140AE044F480147A
:10A5700001E044F440147278824202D104F5801460
:10A58000761C761C307866280BD013DC582877D0E0
:10A5900009DC002875D04528F6D04628F4D0472895
:10A5A0001AD19DE118E0632835D0642879D0652858
:10A5B00012D195E1702873D008DC6728F1D06928A2
:10A5C0006FD06E280DD06F2806D1B5E073282CD03F
:10A5D000752875D0782874D05A46179990476D1C05
:10A5E00075E1C4F30250022809D003280DD0D9F830
:10A5F000001004280DD00D6009F1040967E1D9F8B5
:10A600000010EA17C1E90052F6E7D9F800100D80F2
:10A61000F2E70D70F0E719F8041B8DF80010002028
:10A620008DF80100EA46012003E059F804AB4FF031
:10A63000FF3061074FF0000102D40DE008F1010185
:10A640008846B9420FDA8045F8DB1AF8081000296D
:10A65000F4D108E008F1010188468142FADB1AF8DA
:10A6600008100029F6D105985B46A0EB08072146A3
:10A670003846179A00F094FA284400EB080507E0E2
:10A680004DE029E10DE01AF8010B5A461799904761
:10A69000B8F10108F7D25B4621463846179A13E114
:10A6A00042E00A220092C4F302524FF0000A022A4A
:10A6B00008D059F804CB032A4FEAEC710AD00DE018
:10A6C00029E02AE009F1070121F00702F2E802C1BE
:10A6D000914609E00FFA8CFC4FEAEC71042A03D191
:10A6E0004FFA8CFC4FEAEC71002907DA0A46002188
:10A6F000DCF1000C61EB02012D2202E0220504D501
:10A700002B228DF80420012203E0E20701D0202251
:10A71000F7E7904659E00A2102E010220DE01021EF
:10A720004FF0000A00910BE010224FF0000A44F0B5
:10A7300004040827009203E008224FF0000A009268
:10A74000C4F30252022A05D059F804CB0021032A8F
:10A7500008D009E009F1070121F00702F2E802C17F
:10A76000914605E01FFA8CFC042A01D10CF0FF0C85
:10A770004FF00008220728D5702806D0009B83F0F0
:10A78000100353EA0A0305D00EE040228DF804209E
:10A79000012208E05CEA010206D030228DF8042094
:10A7A0008DF8050002229046009B83F0080353EACF
:10A7B0000A030AD15CEA010201D1620705D5302201
:10A7C0008DF804204FF001087F1E582804D034A0D3
:10A7D00003900EA802900DE036A0F9E753466046BC
:10A7E000009AFDF792FD84460398825C0298401E11
:10A7F000029002705CEA0100F0D1029806A9081AE2
:10A8000000F1200A600702D524F4803400E001271B
:10A81000574502DDA7EB0A0000E0002000EB0A012B
:10A82000009005984144401A0590E00306D45B4629
:10A830002146179A059800F0B3F90544002706E071
:10A8400001A85A46C05D179990476D1C7F1C47456B
:10A85000F6DBE0030CD55B462146179A059800F01D
:10A860009FF9054404E030205A46179990476D1C23
:10A870000099481E00900029F5DC08E00298029932
:10A880005A460078491C0291179990476D1CBAF1FD
:10A890000001AAF1010AF1DC65E1000009280100CC
:10A8A0003031323334353637383961626364656646
:10A8B0000000000030313233343536373839414208
:10A8C000434445460000000000F058F90544761C5A
:10A8D000307800287FF4ECAD19B02846BDE8F08F41
:10A8E000620700D4062709F1070222F0070CFCE8F2
:10A8F0000223E14603F000485FEA080C02D00FF2A1
:10A90000702C0DE05FEA045C02D50FF2682C07E0C2
:10A910005FEAC47C02D00FF2602C01E0AFF2700C51
:10A920004FF0FF3823F00043CDF850C065280CD01D
:10A9300006DC452809D046281DD047283DD13DE0FA
:10A94000662818D067287ED138E00021112F01DB5E
:10A95000112000E0781CCDE9000106A90EA8FFF740
:10A96000DDFCDDE90F010E9A03910021009207F151
:10A97000010A04914DE04FF000400097CDE901102D
:10A9800006A90EA8FFF7CAFCDDE90F0203920E9B91
:10A9900011990022DDF80CA00093049211B9791CE2
:10A9A00000EB010AB7EB0A0004D4C0F1FF3007F155
:10A9B000010A0490AAEB0700019044E0012F00DA9D
:10A9C00001270021112F01DD112000E03846CDE9DB
:10A9D000000106A90EA8FFF7A1FCDDE90F010E9A00
:10A9E0000391002104910092BA4621070CD40399E7
:10A9F000514500DA8A46BAF1010F05DD009AAAF145
:10AA00000101515C302908D0B84202DA10F1040F7C
:10AA100006DA0121CDE9011015E0AAF10101E9E70B
:10AA2000002805DC049901440491AAEB000102E02E
:10AA3000411C514500DD8A460499401A401C019092
:10AA40004FF000400290200704D40198504501DBEC
:10AA5000CDF8048000208DF84F0002980DF14F07CB
:10AA6000B0F1004F25D02B200E9002984FF0020835
:10AA700000280CDA404202902D200E9007E00A21B7
:10AA80000298FDF72CFC3031029007F8011DB8F157
:10AA90000001A8F10108F2DC02980028EFD1791E2C
:10AAA0000E980870307800F0200040F0450007F85C
:10AAB000020D12A8C01B00F107081498007800B11D
:10AAC000012000EB0A01019801EBE0710598414477
:10AAD000401A401E0590E00306D45B462146179AB3
:10AAE000059800F05DF805441498007818B15A46AE
:10AAF000179990476D1CE00324D55B462146179AB1
:10AB0000059800F04DF805441CE00498002807DB88
:10AB1000DDE90301884203DD0098405C179901E0FC
:10AB2000179930205A469047049805F10105401CBA
:10AB300004900198401E019004D12E205A46179986
:10AB400090476D1CBAF10001AAF1010ADDDC05E0B5
:10AB500017F8010B5A46179990476D1CB8F1000180
:10AB6000A8F10108F4DC5B462146179A0598ABE68C
:10AB70002D0000002B000000200000002DE9F04116
:10AB8000044600251E461746880404D405E03946CD
:10AB90002020B0476D1C641EF9D52846BDE8F08121
:10ABA0002DE9F041044600251E469046C80301D514
:10ABB000302700E02027880404D505E041463846C8
:10ABC000B0476D1C641EF9D52846BDE8F08105002C
:10ABD00000001F01000050005000000010000001A4
:10ABE00000000A0F1400050A0F140A0F00050000E8
:10ABF00000010101010102020202565758595A5B35
:10AC00005C5D60615E5FFFFFFFFAAAAA48C00002B8
:10AC10000FFFFFFF00000387E0FFFFFFF5555524FE
:10AC2000A000010FFFFFFE800003A7E0FFFFFFFA77
:10AC3000AAA8909000008FFFFFFE40000397E0FF5E
:10AC4000FFFFF55556488800004FFFFFFE20000328
:10AC5000C7E0FFFFFFFAAAA9268400002FFFFFFE2E
:10AC600010000387E0FFFFFFF55554928200001F9C
:10AC7000FFFFFE0800038FE0FFFFFFFAAAAA4A8148
:10AC800000020FFFFFFE04000387E0FFFFFFF55502
:10AC900055268080010FFFFFFE020003A7E0FFFFA3
:10ACA000FFFAAAA8928040008FFFFFFE01000397E1
:10ACB000E0FFFFFFF555564A8020004FFFFFFE00E2
:10ACC0008003C7E0FFFFFFFAAAA9268010002FFF2C
:10ACD000FFFE00400387E0FFFFFFF5555491800819
:10ACE000001FFFFFFE0020038FE0FFFFFFFAAAAA6C
:10ACF000498004000FFFFFFE00100387E0FFFFFF05
:10AD0000F55555258002000FFFFFFE00080387E080
:10AD1000FFFFFFFAAAA8918001000FFFFFFE0004C9
:10AD20000387E0FFFFFFF55556498000800FFFFFC6
:10AD3000FE00021387E0FFFFFFFAAAA9258000406A
:10AD40000FFFFFFE00010B87E0FFFFFFF555549159
:10AD50008000240FFFFFFE00008787E0C80000008E
:10AD6000000000000000010000000000000000D012
:10AD700000000000000000000002000000000000D1
:10AD80000000C4000000000000000000008000007F
:10AD90000000000000FFFFFFFAAAAA488000100F81
:10ADA000FFFFFE00004387E0FFFFFFF555552480BD
:10ADB00000080FFFFFFE00002387E0C00000000036
:10ADC0000000400000000000010000000000C00082
:10ADD00000000000002000000000000080000000D3
:10ADE00000C0000000000000100000000000004053
:10ADF00000000000C2000000000000000000004051
:10AE000000000000000000C1000000000000000081
:10AE100000002000000000000000C08000000000D2
:10AE200000000000001000000000000000C0000052
:10AE300000000000080000000000002000000000EA
:10AE4000C00000000000000400000000000010002E
:10AE5000000000FFFFFFFAAAA8908200000FFFFF8A
:10AE6000FE08000387E0C0000000000000010000B1
:10AE7000000000000400000000C00000000000000E
:10AE8000008000000000000200000000FFFFFFF54E
:10AE900055564B8040000FFFFFFE01000387E0FF87
:10AEA000FFFFFAAAA9278020000FFFFFFE00800302
:10AEB00087E0C0000000000000001000000000005B
:10AEC0000040000000C0000000000000000800007A
:10AED0000000000020000000C00000000000000092
:10AEE0000400000000000010000000C0000000008E
:10AEF0000000000200000000000008000000C00088
:10AF0000000000000000010000000000000400003C
:10AF100000C00000000000000000800000000000F1
:10AF200002000000484152444641554C543A0A50F0
:10AF300043203A203078253038580A4C52203A20A5
:10AF40003078253038580A5053523A20307825301E
:10AF500038580A5230203A203078253038580A5272
:10AF600031203A203078253038580A5232203A20A1
:10AF70003078253038580A5033203A203078253040
:10AF800038580A5231323A203078253038580A0081
:10AF90005B4F4F4D5D20402025640A005B415353B9
:10AFA000455254494F4E5D20402025733A25640A8E
:10AFB000006100700020736574757020636C6B20F5
:10AFC0002564200A0074782068616C6620666966D2
:10AFD0006F200A0072782068616C66206669666F6F
:10AFE0002025640A002030782578202D006E756DAC
:10AFF0002025642025642025640053454747455299
:10B0000000525454005465726D696E616C0000000A
:10B0100030B002022855002008000000FCA2020205
:10B0200038B0020230550020DC0400000CA30202FC
:08B030000000000033000000E5
:04000005020280096A
:00000001FF
