:020000040202F6
:10800000000000001D800202DFF80CD000F01AF81A
:10801000004800472D8002028457002002B5EFF38C
:10802000088181F30988054800470000044880471B
:10803000EFF3098181F3088802BD00004580020248
:1080400041930202064C074D06E0E06840F0010350
:1080500094E8070098471034AC42F6D3FFF7D8FFF6
:10806000149E0202249E02022DE9F05F05460020C4
:1080700092469B4688460646814640241BE0284699
:1080800041464746224600F04AF853465A46C01A2F
:10809000914110D311461846224600F031F82D1AAE
:1080A00067EB01084F4622460120002100F028F826
:1080B00017EB00094E41201EA4F10104DFDC484605
:1080C00031462A464346BDE8F09F40EA01039B073C
:1080D00003D009E008C9121F08C0042AFAD203E03D
:1080E00011F8013B00F8013B521EF9D270470346DC
:1080F00011F8012B00F8012B002AF9D1184670471E
:10810000202A04DB203A00FA02F100207047914057
:10811000C2F1200320FA03F3194390407047202A4C
:1081200004DB203A21FA02F00021704721FA02F321
:10813000D040C2F120029140084319467047000028
:1081400081B0009000980068C0F3802001B07047B3
:1081500083B002908DF80710002000909DF8070072
:10816000032808DCFFE702989DF8071000EB810068
:10817000006C0090FFE7009803B0704781B000905A
:108180000098006B00F0010001B0704781B00090D2
:108190000099086820F47C30086001B07047000046
:1081A00081B000900099086840F40070086001B048
:1081B0007047000082B00190ADF802100199086884
:1081C00020F47C300860BDF802200199086840EA7C
:1081D0000230086002B0704780B584B003908DF81B
:1081E0000B1001920399086820F0010008600399C0
:1081F000086840F0010008609DF80B0001460091FE
:10820000032814D80099DFE801F002060A0E01984D
:10821000039948600BE001980399886007E0019892
:108220000399C86003E001980399C861FFE70398C8
:108230004EF65E71FFF7BEFF0399086840F4807048
:108240000860FFE70398FFF799FF012801D1FFE7D6
:10825000F8E70398FFF79AFF04B080BD45F2640188
:10826000C4F201014FF0FF30086046F26401C4F22D
:10827000010108607047000080B588B08DF81F00CC
:108280008DF81E108DF81D209DF81F1045F200007E
:10829000C4F201001429C4BF46F20000C4F2010078
:1082A00006909DF81F00152805DBFFE79DF81F00CD
:1082B0001538019003E09DF81F000190FFE7019839
:1082C00005909DF81E009DF81D1001F099F98DF89C
:1082D00013009DF8130040B9FFE7069850309DF851
:1082E0001410002200F02EF829E00598C11700EBC9
:1082F0005170C0100390059800F0070080000290B4
:108300000299072000FA01F20698039900EB810117
:10831000486D904348659DF81300029900FA01F2F8
:108320000698039900EB8101486D10434865069853
:1083300050309DF81410012200F004F8FFE708B057
:1083400080BD000083B002908DF807108DF80620E4
:108350009DF807100120884000900298006800995D
:1083600088439DF806109DF8072091400843029924
:10837000086003B07047000080B586B08DF8170024
:108380008DF816109DF8171045F20000C4F2010098
:108390001429C4BF46F20000C4F2010004909DF805
:1083A0001700152805DBFFE79DF817001538029028
:1083B00003E09DF817000290FFE7029803909DF8F4
:1083C0001600032817D0FFE7049828309DF80C10FA
:1083D0009DF81620002A18BF0122FFF7B3FF04986A
:1083E00034309DF80C109DF81620B2FA82F2520932
:1083F000FFF7A8FF0FE0049828309DF80C1000222A
:108400000192FFF79FFF019A049834309DF80C10F9
:10841000FFF798FFFFE706B080BD000080B584B08D
:108420008DF80B008DF80A109DF80B009DF80A10CE
:1084300001F06CFA01900198B0F1FF3F03DCFFE717
:1084400001980390BAE09DF80B00112812DCFFE7B9
:108450009DF80B2046F20000C4F20000104320F00B
:108460000300019902F00302C2EBC203072201F0EC
:10847000D1F9A0E09DF80B00142810DCFFE701996A
:108480009DF80B206FF0150000EB4200C3B246F2DE
:108490001000C4F20000022201F0BCF98AE09DF84D
:1084A0000B0015280AD1FFE7019946F21000C4F22B
:1084B00000000722142301F0ADF97AE09DF80B00CB
:1084C00016280AD1FFE7019946F21400C4F2000011
:1084D0000722002301F09EF96AE09DF80B001E2898
:1084E00010DCFFE701999DF80B206FF0260000EBF0
:1084F0004200C3B246F21400C4F20000022201F0AE
:1085000089F954E09DF80B001F280AD1FFE7019973
:1085100046F21400C4F200000722172301F07AF992
:1085200044E09DF80B0020280AD1FFE7019946F2AC
:108530001400C4F2000002221E2301F06BF934E0A3
:108540009DF80B0021280AD1FFE7019946F2180097
:10855000C4F200000222002301F05CF924E09DF83F
:108560000B0023280FDCFFE701999DF80B00C0EBFF
:10857000C000EC38C3B246F21800C4F20000072273
:1085800001F048F90FE001999DF80B206FF03700DA
:1085900000EB4200C3B246F21800C4F2000002220F
:1085A00001F038F9FFE7FFE7FFE7FFE7FFE7FFE745
:1085B000FFE7FFE7FFE700200390FFE7039804B021
:1085C00080BD000080B582B00190019800EB4001B1
:1085D00045F22850C2F2000000EBC100183000F054
:1085E00051FD02B080BD000080B500F0FDFC80BDF3
:1085F00080B586B0059004910392FFE745F22850BC
:10860000C2F20000007818B9FFE700F0EDFCFFE7C8
:10861000FFE7EFF311804FF0200181F31188019003
:1086200005980499039A00F007F80290019880F3E6
:108630001188029806B080BD80B58AB00990089173
:10864000079208980490099800EB400145F22850E1
:10865000C2F2000000EBC10018300390039840699B
:10866000029040B1FFE70298012819D0FFE7029875
:1086700002282CD032E0039800F004FD0590059804
:108680000799884203D2FFE70020069007E0079889
:10869000069003980499079A00F084FDFFE720E014
:1086A000039800F0EFFC059005980799884203D2E3
:1086B000FFE70598019002E007980190FFE7019815
:1086C000069003980499069A00F06CFD09E003985F
:1086D0000499079A00F0F6FC069002E0002006904C
:1086E000FFE706980AB080BD80B582B08DF807001C
:1086F0009DF80700012100F025F802B080BD0000C0
:1087000080B582B0019000208DF80300FFE79DF84E
:108710000300182813DCFFE701989DF80310C840F8
:10872000C00728B1FFE79DF80300FFF7DDFFFFE773
:10873000FFE79DF8030001308DF80300E7E702B082
:1087400080BD000080B586B08DF817008DF816103A
:108750009DF8170001460491182800F2B38104998E
:10876000DFE811F019002A003B004C005D006E00AC
:108770007F009000A100B200CA00E300F4000D01E8
:108780001E012F014001510162016B0174017D0145
:1087900086019701A7019DF816100C20C4F2000075
:1087A000152201F01DF89DF816101420C4F20000E7
:1087B000122201F015F886E19DF816100C20C4F283
:1087C0000000162201F00CF89DF816101420C4F2D7
:1087D0000000122201F004F875E19DF816100C203B
:1087E000C4F20000022200F0FBFF9DF816101420D6
:1087F000C4F20000002200F0F3FF64E19DF81610BF
:108800000C20C4F20000032200F0EAFF9DF81610CD
:108810001420C4F20000012200F0E2FF53E19DF8B1
:1088200016100C20C4F20000042200F0D9FF9DF8BD
:1088300016101420C4F20000022200F0D1FF42E121
:108840009DF816100C20C4F20000012200F0C8FFB1
:108850009DF816101420C4F20000112200F0C0FF91
:1088600031E19DF816100C20C4F20000052200F042
:10887000B7FF9DF816101420C4F200000A2200F081
:10888000AFFF20E19DF816100C20C4F20000082272
:1088900000F0A6FF9DF816101420C4F20000092273
:1088A00000F09EFF0FE19DF816100C20C4F20000AE
:1088B000092200F095FF9DF816105420C4F2000024
:1088C0000C2200F08DFFFEE09DF816100C20C4F283
:1088D00000000A2200F084FF9DF816101420C4F254
:1088E00000000390132200F07BFF03989DF8161000
:1088F000142200F075FFE6E09DF816100C20C4F27B
:1089000000000B22019200F06BFF019A9DF81610F7
:108910001420C4F20000029000F062FF02989DF85B
:108920001610102200F05CFFCDE09DF816100C2010
:10893000C4F200000C2200F053FF9DF8161008202E
:10894000C4F20000002200F04BFFBCE09DF81610BE
:108950000820C4F200000C2200F042FF9DF816101F
:108960000C20C4F200000D2200F03AFF9DF8161012
:108970001420C4F20000062200F032FFA3E09DF8AC
:1089800016100C20C4F200000E2200F029FF9DF802
:1089900016101420C4F20000072200F021FF92E01C
:1089A0009DF816100C20C4F200000F2200F018FFF2
:1089B0009DF816101420C4F200000C2200F010FFE5
:1089C00081E09DF816100C20C4F20000102200F087
:1089D00007FF9DF816101420C4F20000082200F0D2
:1089E000FFFE70E09DF816100C20C4F2000011226A
:1089F00000F0F6FE9DF816101420C4F200000422C8
:108A000000F0EEFE5FE09DF816100C20C4F20000AE
:108A1000122200F0E5FE9DF816101420C4F20000AA
:108A2000052200F0DDFE4EE09DF816100C20C4F289
:108A30000000132200F0D4FE45E09DF816100C2033
:108A4000C4F20000142200F0CBFE3CE09DF81610AA
:108A50000C20C4F20000002200F0C2FE33E09DF8BA
:108A600016100C20C4F20000062200F0B9FE2AE025
:108A70009DF816100C20C4F20000172200F0B0FE82
:108A80009DF816101420C4F200000E2200F0A8FE7B
:108A900019E09DF816108020C4F200000090052215
:108AA00000F09EFE00989DF81610072200F098FE38
:108AB00009E09DF816100C20C4F20000192200F005
:108AC0008FFE00E0FFE706B080BD000080B582B0F9
:108AD0008DF807009DF80700012100F00FF802B0A3
:108AE00080BD000080B582B08DF807009DF80700BA
:108AF000002100F003F802B080BD000080B584B012
:108B00008DF80F008DF80E109DF80F0001460291B0
:108B1000162800F267810299DFE811F017002000A3
:108B200029003A004B005C006D007E008F00A00021
:108B3000A900C100CA00DB00EC00FD000E011F010E
:108B40003001390142014B0154019DF80E102020E3
:108B5000C4F200001F2200F043FE44E19DF80E1015
:108B60002420C4F20000002200F03AFE3BE19DF810
:108B70000E102020C4F200000C2200F031FE9DF8FF
:108B80000E102420C4F20000022200F029FE2AE187
:108B90009DF80E102020C4F200000D2200F020FEEF
:108BA0009DF80E102420C4F20000032200F018FEED
:108BB00019E19DF80E102020C4F200000E2200F0F2
:108BC0000FFE9DF80E102420C4F20000042200F0D5
:108BD00007FE08E19DF80E102020C4F200000B22D1
:108BE00000F0FEFD9DF80E102420C4F200001222B9
:108BF00000F0F6FDF7E09DF80E102020C4F2000012
:108C00000F2200F0EDFD9DF80E102420C4F20000AC
:108C10000C2200F0E5FDE6E09DF80E102020C4F2E5
:108C20000000122200F0DCFD9DF80E102420C4F29A
:108C300000000B2200F0D4FDD5E09DF80E1020209E
:108C4000C4F20000132200F0CBFD9DF80E1054205A
:108C5000C4F200000E2200F0C3FDC4E09DF80E1027
:108C60002020C4F20000142200F0BAFDBBE09DF801
:108C70000E102020C4F20000152200F0B1FD9DF876
:108C80000E102420C4F2000001900D2200F0A8FD77
:108C900001989DF80E10112200F0A2FDA3E09DF8AE
:108CA0000E102020C4F20000162200F099FD9AE078
:108CB0009DF80E102020C4F20000172200F090FD55
:108CC0009DF80E102420C4F20000082200F088FD58
:108CD00089E09DF80E102020C4F20000182200F058
:108CE0007FFD9DF80E102420C4F20000092200F040
:108CF00077FD78E09DF80E102020C4F200001922C4
:108D000000F06EFD9DF80E102420C4F200000E222B
:108D100000F066FD67E09DF80E102020C4F2000010
:108D20001A2200F05DFD9DF80E102420C4F2000010
:108D30000A2200F055FD56E09DF80E102020C4F2E6
:108D400000001B2200F04CFD9DF80E102420C4F200
:108D50000000062200F044FD45E09DF80E102020A2
:108D6000C4F200001C2200F03BFD9DF80E102420F0
:108D7000C4F20000072200F033FD34E09DF80E102D
:108D80002020C4F200001D2200F02AFD2BE09DF8F7
:108D90000E102020C4F200001E2200F021FD22E06F
:108DA0009DF80E102020C4F200000A2200F018FDE9
:108DB00019E09DF80E102020C4F20000102200F0EF
:108DC0000FFD10E09DF80E102420C4F2000000906A
:108DD000012200F005FD00989DF80E100F2200F012
:108DE000FFFC00E0FFE704B080BD000085B0049008
:108DF00003918DF80B200F2001900720009004981C
:108E0000022803D8FFE70020019079E004980828A1
:108E100003D8FFE70120019071E00498202803D8CF
:108E2000FFE70220019069E004983F2803D8FFE79C
:108E30000320019061E004987D2803D8FFE7042017
:108E4000019059E00498FA2803D8FFE70520019023
:108E500051E00498B0F5FA7F03D8FFE706200190AF
:108E600048E00498B0F57A7F03D8FFE70720019027
:108E70003FE00498B0F57A6F03D8FFE7082001902F
:108E800036E00498B0F57A5F03D8FFE70920019037
:108E90002DE00498B0F57A4F03D8FFE70A2001903F
:108EA00024E00498B0F57A3F03D8FFE70B20019047
:108EB0001BE00498B0F57A2F03D8FFE70C2001904F
:108EC00012E00498B0F57A1F03D8FFE70D20019057
:108ED00009E00498B0F57A0F03D8FFE70E2001905F
:108EE00000E0FFE7FFE7FFE7FFE7FFE7FFE7FFE758
:108EF000FFE7FFE7FFE7FFE7FFE7FFE7FFE7FFE742
:108F00000398042803D8FFE70020009030E003987E
:108F1000082803D8FFE70120009028E003981028D4
:108F200003D8FFE70220009020E00398202803D810
:108F3000FFE70320009018E003983F2803D8FFE7DD
:108F40000420009010E003987D2803D8FFE7052057
:108F5000009008E00398FA2803D8FFE70620009065
:108F600000E0FFE7FFE7FFE7FFE7FFE7FFE7FFE7D7
:108F700041F21801C4F2000145F6A52008600098EE
:108F80000002019940EA01109DF80B200921002AF6
:108F900018BF0D21084441F21001C4F2000108601D
:108FA00042F21401C4F21001086840F080500860D9
:108FB00005B0704741F21801C4F2000145F6A52042
:108FC000086041F21401C4F200014CF6FE20086072
:108FD0007047000082B001908DF803109DF80300E7
:108FE0000199086002B0704780B582B045F2285000
:108FF000C2F20000019001990120086101994861C5
:10900000019849F60B61C0F202218161019A45F293
:109010008050C2F20000D061019A4FF4FA701062E1
:10902000019A00209062019A5062019AD062019ADE
:109030001163019A45F27051C2F200015163019A25
:1090400010219163019908640199C86301994864EA
:109050000198073049F60761C0F20221FFF747F88F
:10906000BFF35F8F019849F60061C0F20221FFF75C
:109070003EF8BFF35F8F019920208871BFF35F8FA7
:1090800002B080BD84B003900398006902900398F9
:10909000C068019002980199884209D8FFE70398B7
:1090A00080680199401A029908440138009005E04F
:1090B00002990198C04308440090FFE7009804B06B
:1090C0007047000080B58AB009900891079200208F
:1090D00005900998C0680390FFE70998006904901B
:1090E00004980399884206D9FFE704990398C0437E
:1090F0000844069008E0099881680398049A801A49
:10910000C04308440690FFE7069809998968039AC6
:10911000891A884203D2FFE70698029005E0099871
:1091200080680399401A0290FFE70298069006981B
:109130000799884203D2FFE70698019002E007985A
:109140000190FFE701980690099840680399084448
:109150000899069AFEF7B9FF069905980844059004
:10916000069908980844089006990798401A0790AD
:1091700006990398084403900398099989688842DE
:1091800003D1FFE700200390FFE7BFF35F8F039851
:109190000999C860FFE7079800289ED1FFE7059866
:1091A0000AB080BD80B586B0059004910392059801
:1091B000C0680190059880680199401A0090009855
:1091C0000399884210D9FFE705984068019908443F
:1091D0000499039AFEF779FFBFF35F8F0198039913
:1091E00008440599C8601BE0009802900598406803
:1091F000019908440499029AFEF767FF03980099C1
:10920000401A0290059840680499009A1144029A05
:10921000FEF75BFFBFF35F8F02980599C860FFE719
:1092200006B080BD86B00590049103920498C000FA
:109230000399B0FBF1F002900298C00901900199E6
:109240000298A0EBC11002900298013040080090F3
:10925000019805994862BDF8060018B9FFE7019822
:1092600010B9FFE7FFE7FEE701984FF6FF7188426C
:1092700004D1FFE705990020886207E00199029870
:10928000401A0290009805998862FFE70598C06A25
:109290000599C86206B0704781B000900098806957
:1092A000C0F3401001B0704780B584B003900291C4
:1092B0000192039900200863039948640399886325
:1092C0000399486003994862039988620399C862C8
:1092D0000398029AD1681269FFF7A4FF029890F8E8
:1092E00000C041788378C278802000EA411040EACB
:1092F0004C1040EA031040EAC20001F0030140EACA
:1093000041000399C8620298B0F80900000400BA4D
:10931000039948630198039988630299087991F841
:1093200005C08B79CA79400240EA0C20184440EA13
:10933000C230097A40EA81300399086304B080BDE5
:1093400080B588B049F25541C0F2022104200022C4
:109350000792F5F72BFC079A49F23541C0F202213A
:109360000520F5F723FC079A49F2AD41C0F202212E
:109370000720F5F71BFC079A49F29161C0F2022120
:1093800002200490F5F712FC079A49F2D571C0F259
:10939000022103200590F5F709FC079A49F2C9411B
:1093A000C0F202211046F5F701FC00F055FA079BC8
:1093B00069464B600E20086049F6BD10C0F20220DD
:1093C00049F6FE51C0F202218022FBF73DFA45F238
:1093D0007870C2F20000039000F0E8FA039A49F2B4
:1093E000FD41C0F202210820F5F7E0FB049807993F
:1093F000F5F7D2FA059A079901200690FAF7F8FCDA
:10940000079B0146069845F27472C2F20002116091
:1094100069464B60086049F2A560C0F2022049F637
:10942000FC51C0F202214FF4A062FBF70DFA07983D
:1094300008B080BD80B582B00190009101980168AC
:10944000426849F6E750C0F20220F5F771FBFFE7EA
:10945000FEE7000070B588B007900691DDF81CC0EB
:10946000CDF814C0DCF81810DCF81420DCF81C303F
:10947000DCF80000DCF804E0DCF80840DCF80C5014
:10948000DCF81060EC46CCF81060CCF80C50CCF84E
:109490000840CCF804E0CCF8000049F66F50C0F268
:1094A0000220F5F745FBFFE7FEE7000080B582B03C
:1094B00001900091019949F6DB50C0F20220F5F7C6
:1094C00037FBFFE7FEE7000080B582B00190009116
:1094D000FFE741F20000C4F20100FFF7DDFE0128C2
:1094E00001D1FFE7F5E70198017841F20000C4F2ED
:1094F0000100FFF76FFD002002B080BD80B586B08F
:10950000059004914EF60450CEF2000000686FF30F
:109510005F20B0FA80F040098DF80B009DF80B0039
:1095200028B1FFE7F5F7B2FA406B8047FFE700206C
:10953000FFF748F803900599088949890844039979
:1095400088420EDAFFE70598016802890020019041
:10955000FFF74EF80198059A51685289FFF748F8CD
:10956000FFE79DF80B0028B1FFE7F5F78FFA806B56
:109570008047FFE7002006B080BD000080B588B0BE
:109580000790069103208DF8040000228DF8052035
:1095900001208DF806008DF807208DF808008DF861
:1095A00009008DF80A008DF80B208DF80C208DF83D
:1095B0000D008DF80E00079804900698059041F272
:1095C0000000C4F2010001A9FFF76EFE08B080BDE3
:1095D00080B582B0019000F005F8FEF73FFE002054
:1095E00002B080BD80B582B00020019045F2747059
:1095F000C2F20000006801A9FAF7B0FD02B080BD18
:1096000084B08DF80E008DF80D109DF80D00014608
:10961000029120B1FFE7029801281CD02FE09DF8AD
:109620000E0001460191012808D0FFE701980228A9
:1096300008D0FFE70198032808D00BE005208DF83B
:109640000F0020E006208DF80F001CE007208DF8A9
:109650000F0018E013E09DF80E000146009101286C
:1096600004D0FFE70098022804D007E003208DF81B
:109670000F0008E002208DF80F0004E0FFE7002053
:109680008DF80F00FFE79DF80F0004B07047000051
:1096900080B582B00190009100F0DEF8002002B0A9
:1096A00080BD000080B588B00790FFE745F2747078
:1096B000C2F2000000684FF0FF31FAF7B5FF0690E4
:1096C0000698012801D0FFE7F0E745F27860C1F283
:1096D00034200590059949F64A50C0F20220F5F76A
:1096E00027FA47F20000C4F201000290016847F235
:1096F0003000C4F201000390026849F65650C0F2EF
:1097000002200490F5F714FA0298059A0221FEF758
:1097100063FD0299039A049809681268F5F708FA3C
:1097200016200190FFF7DEF90198FFF7CFF90298B4
:10973000FEF736FD0299039A049809681268F5F756
:10974000F7F9FFE747F20000C4F20100FEF7F8FC6A
:1097500008B9FFE7F6E747F20000C4F20100009005
:10976000016847F23000C4F20100026849F6565021
:10977000C0F20220F5F7DCF900980021FEF7E8FCC2
:10978000014649F60E50C0F20220F5F7D1F90098D3
:109790000121FEF7DDFC014649F61D50C0F2022012
:1097A000F5F7C6F900980221FEF7D2FC014649F60A
:1097B0002C50C0F20220F5F7BBF900980321FEF708
:1097C000C7FC014649F63B50C0F20220F5F7B0F95C
:1097D0006CE7000082B001900091002002B0704759
:1097E00083B002908DF807108DF806209DF80610C2
:1097F00001208840009002980068009988439DF8F5
:1098000007109DF80620914008430299086003B0B4
:109810007047000085B0049003918DF80B208DF8FF
:109820000A309DF80B100120884001380190019802
:109830009DF80A108840C043009004980068009981
:1098400008400399019A11409DF80A20914008436D
:109850000499086005B0704780B588B02020FEF7F5
:109860004FFF43F20060C0F26E104FF4E131FFF79A
:1098700085FE4EF6F050CEF200000068C007D0B969
:10988000FFE7FFE743F20062C0F26E12079207980B
:1098900000EB800040004FF47A71A0FB010100232F
:1098A0000593FEF7E1FB059A069006990846FFF737
:1098B0009DFAFFE7FFE70320C0F23000FEF720FF2C
:1098C0001020019000210391FEF7A8FD0399019853
:1098D000FEF752FD0198039A01210291FEF7CCFC9C
:1098E0000298039A49F2D151C0F20221F5F768F9C2
:1098F0004FF48000FEF704FF16200490FFF7F2F803
:109900000498FFF7E3F808B080BD000085B08DF83B
:109910000F008DF80E109DF80F002A2804DBFFE7DA
:109920004FF0FF3004903EE09DF80F0049F6F01232
:10993000C0F20222132110FB0120029000200190AE
:109940009DF80E000138009002989DF80E10CA088C
:10995000805C01F007028021D140084204D1FFE77A
:109960004FF0FF3004901EE0FFE70098002817D466
:10997000FFE702980099CA1701EB5272D210805C7F
:1099800001F007028021D140084204D0FFE701988E
:1099900001300190FFE7FFE7009801380090E4E70D
:1099A00001980490FFE7049805B0704780B582B035
:1099B0000190FEF719FE02B080BD000080B582B0B4
:1099C0000190FFE74FF41050F9F79EFEFFF7F2FA0F
:1099D000F8E702E008C8121F08C1002AFAD1704750
:1099E0007047002001E001C1121F002AFBD170471F
:1099F000FFFFFFFAAAAA48C000020FFFFFFF000006
:109A00000387E0FFFFFFF5555524A000010FFFFF7E
:109A1000FE800003A7E0FFFFFFFAAAA890900000D5
:109A20008FFFFFFE40000397E0FFFFFFF55556480C
:109A30008800004FFFFFFE200003C7E0FFFFFFFA92
:109A4000AAA9268400002FFFFFFE10000387E0FF75
:109A5000FFFFF55554928200001FFFFFFE08000330
:109A60008FE0FFFFFFFAAAAA4A8100020FFFFFFE64
:109A700004000387E0FFFFFFF55555268080010FA6
:109A8000FFFFFE020003A7E0FFFFFFFAAAA89280F3
:109A900040008FFFFFFE01000397E0FFFFFFF55539
:109AA000564A8020004FFFFFFE008003C7E0FFFF03
:109AB000FFFAAAA9268010002FFFFFFE00400387AF
:109AC000E0FFFFFFF55554918008001FFFFFFE00E7
:109AD00020038FE0FFFFFFFAAAAA498004000FFFCE
:109AE000FFFE00100387E0FFFFFFF55555258002BC
:109AF000000FFFFFFE00080387E0FFFFFFFAAAA8A0
:109B0000918001000FFFFFFE00040387E0FFFFFFCD
:109B1000F55556498000800FFFFFFE00021387E0D5
:109B2000FFFFFFFAAAA9258000400FFFFFFE0001FA
:109B30000B87E0FFFFFFF55554918000240FFFFFD6
:109B4000FE00008787E0C800000000000000000061
:109B5000010000000000000000D000000000000034
:109B6000000000020000000000000000C40000002F
:109B7000000000000000008000000000000000FF66
:109B8000FFFFFAAAAA488000100FFFFFFE00004363
:109B900087E0FFFFFFF55555248000080FFFFFFE0B
:109BA00000002387E0C0000000000000400000002B
:109BB0000000010000000000C000000000000020C4
:109BC0000000000000008000000000C00000000055
:109BD0000000100000000000004000000000C20073
:109BE0000000000000000000004000000000000035
:109BF00000C1000000000000000000002000000084
:109C000000000000C0800000000000000000001004
:109C100000000000000000C000000000000008007C
:109C200000000000002000000000C0000000000054
:109C300000040000000000001000000000FFFFFF13
:109C4000FAAAA8908200000FFFFFFE08000387E039
:109C5000C00000000000000100000000000004003F
:109C6000000000C0000000000000008000000000B4
:109C7000000200000000FFFFFFF555564B8040003A
:109C80000FFFFFFE01000387E0FFFFFFFAAAA927ED
:109C90008020000FFFFFFE00800387E0C00000006F
:109CA000000000001000000000000040000000C0A4
:109CB000000000000000000800000000000020007C
:109CC0000000C000000000000000040000000000D0
:109CD0000010000000C000000000000000020000B2
:109CE0000000000008000000C000000000000000AC
:109CF0000100000000000004000000C0000000009F
:109D00000000000080000000000002000000776FEB
:109D1000726420303A2030782578200A00776F72FC
:109D20006420313A2030782578200A00776F7264F9
:109D300020323A2030782578200A00776F7264202C
:109D4000333A2030782578200A0072616E64203022
:109D5000782578200A00636667303A2030782578C5
:109D6000207374617475732030782578200A004858
:109D70004152444641554C543A0A5043203A20300F
:109D800078253038580A4C52203A2030782530381F
:109D9000580A5053523A203078253038580A5230F9
:109DA000203A203078253038580A5231203A203075
:109DB00078253038580A5232203A20307825303809
:109DC000580A5033203A203078253038580A52311A
:109DD000323A203078253038580A005B4F4F4D5DBD
:109DE00020402025640A005B415353455254494F9B
:109DF0004E5D20402025733A25640A0070007700EC
:109E000053454747455200525454005465726D699A
:109E10006E616C00249E0202285500205C02000046
:049E2000E2990202BF
:04000005020280096A
:00000001FF
